:020000040100F9
:10000000D01C01001EDD6F00002000010020000157
:080010000B0000004403000096
:020000040100F9
:1020000000008400DD200001E92000013945800046
:1020100047458000494580004B4580000000000096
:1020200000000000000000000000000011458000DA
:10203000F320000100000000F5200001E928000164
:10204000F720000139380600DD3706009145800091
:10205000F7200001F7200001FF45800005468000C1
:10206000F7200001F7200001F7200001F720000110
:10207000AD468000B5468000F7200001F720000142
:10208000F7200001F72000010B468000F720000137
:10209000F7200001F7200001F7200001F7200001E0
:1020A000F7200001D13706004D458000F7200001E0
:1020B000F7200001F7200001F7200001F7200001C0
:1020C000F7200001F7200001DFF80CD000F0C8FB7A
:1020D00000480047DB2800010000840006488047D4
:1020E0000648804706480047FEE7FEE7FEE7FEE7B2
:1020F000FEE7FEE7FEE7FEE731CE000181290001A1
:10210000A9B200012DE9F05F0546002092469B46EA
:1021100088460646814640241BE0284641464746FD
:10212000224600F0C2FA53465A46C01A914110D3D3
:1021300011461846224600F0A9FA2D1A67EB01084D
:102140004F4622460120002100F0A0FA17EB0009BB
:102150004E41201EA4F10104DFDC484631462A46E8
:102160004346BDE8F09F00000649074A086850430F
:1021700043F2390210440860400870470149086082
:1021800070470000FC4480006D4EC64140EA0103E8
:102190009B0703D009E008C9121F08C0042AFAD21D
:1021A00003E011F8013B00F8013B521EF9D27047E1
:1021B000D2B201E000F8012B491EFBD27047002289
:1021C000F6E710B513460A4604461946FFF7F0FF36
:1021D000204610BD421C10F8011B0029FBD1801ABB
:1021E000704730B504460020034600E05B1C934274
:1021F00003D2E05CCD5C401BF8D030BD2DE9FE4F32
:10220000804681EA0300C00F0C46009021F0004197
:1022100023F00045B8EB0200A94105D24046214613
:1022200090461C460B46024623F00040104347D020
:10223000270DC7F30A00C3F30A510290401A019018
:1022400040286BDAC3F3130040F4801B00989246D9
:1022500020B10023D2EB030A63EB0B0B0198594624
:10226000C0F14002504600F011FA06460D465046B5
:102270005946019A00F029FA10EB08006141002448
:1022800087EA115284EAE7731A4340D0009A62B396
:10229000019A012A4FEA075215DC001B61EB02018B
:1022A0004FF0004202EA0752CDE90042001C41F51E
:1022B000801132462B4600F029FA03B0BDE8F08FBA
:1022C00040462146F9E7001B61EB0201001C41F585
:1022D000801300185B412018A2F5001747EB03019B
:1022E00040EAD570B6196D4111E06D084FEA360627
:1022F00045EAC0754FEA0752001B61EB0201001C62
:1023000041F5801149084FEA300000195141324629
:102310002B4603B0BDE8F04F00F0E9B90098012268
:1023200040000023D0EB020263EBE07300982146EB
:102330004FEAE074B8EB000061EB0401E9E783F0D9
:1023400000435BE781F0004158E72DE9FE4F81EA49
:10235000030404F0004421F0004100944FF0000B0E
:1023600023F0004350EA01045ED052EA03045BD03C
:10237000C3F30A54C1F30A552C44A4F2F334019474
:10238000A0FB0254C1F3130141F48011C3F3130302
:1023900043F4801301FB024400FB034E840A970AB6
:1023A00044EA815447EA8357A4FB076802958D0AE3
:1023B00005FB07854FEA932C04FB0C542705029D6F
:1023C0004FEA065847EA1637B5EB08056EEB070CDF
:1023D000870E920E47EA811742EA8312A7FB020199
:1023E000B6EB0B0164EB00042B0D43EA0C335E18D3
:1023F00044EB1C50DA465146E7FB0201C5F31304D7
:102400004FEA0B3343EA14534FEA0432019C43EA88
:102410000603A4F10C040294009CCDE900B400F082
:1024200075F903B0BDE8F08F00200146F9E72DE90A
:10243000F04D81EA030404F0004B21F000451446FE
:102440004FF0000A23F0004150EA050220D054EA80
:1024500001021DD0C5F30A570246C5F31303C1F3A9
:102460001300C1F30A5640F4801543F48013A7EB20
:102470000608101BD64608F2FD3873EB050002D3A0
:1024800008F1010801E092185B41B8F1000F03DA8E
:1024900000200146BDE8F08D00204FF48011064673
:1024A00084460EE0171B73EB050705D3121B63EB85
:1024B000050306434CEA010C49084FEA3000921824
:1024C0005B4150EA0107EDD152EA030012D082EAE3
:1024D000040083EA0501084305D0101BAB4106D276
:1024E0000122002306E000224FF0004302E06FF0DB
:1024F000010253101AEB06004CEB085110EB0A00D6
:1025000041EB0B01BDE8F04D00F0F1B870B521F0E2
:10251000004303430CD0C1F30A550024D5EB040556
:1025200064EB0403D617AD1AB34102DB0020014669
:1025300070BD201841EB025170BD0EB5C10F80EA8D
:10254000E0700844CA07002140F233438DE80E00D2
:102550000A460B4600F0DAF803B000BD0EB540F2B3
:10256000334102910021CDE900110A460B4600F0EB
:10257000CDF803B000BD0EB540F233420292002206
:10258000CDE90022134600F0C1F803B000BD70B5DC
:10259000C1F30A5201F000450024C1F3130140F2D7
:1025A000FF3341F480119A4201DA002070BD40F2FD
:1025B00033439A42A2F2334203DC524200F075F8F0
:1025C00000E090402C43F1D0404270BDC1F30A526C
:1025D00010B5C1F3130140F2FF3341F480119A4268
:1025E00001DA002010BD40F233439A42A2F2334296
:1025F00003DC524200F059F810BD904010BD0000BD
:1026000030B5041E71F1000404DB4FF00044404279
:1026100064EB0101141E73F1000405DB1C464FF04E
:102620000043524263EB04038B4208BF824230BD39
:1026300030B5041E71F1000404DB4FF00044404249
:1026400064EB0101141E73F1000405DB1C464FF01E
:102650000043524263EB0403994208BF904230BDED
:1026600030B50B46014600202022012409E021FA62
:1026700002F59D4205D303FA02F5491B04FA02F55F
:102680002844151EA2F10102F1DC30BD202A04DB32
:10269000203A00FA02F1002070479140C2F1200375
:1026A00020FA03F3194390407047202A04DB203AB4
:1026B00021FA02F00021704721FA02F3D040C2F162
:1026C00020029140084319467047202A06DBCB17A9
:1026D000203A41FA02F043EAE07306E041FA02F3DD
:1026E000D040C2F12002914008431946704710B50E
:1026F000141E73F1000408DA401C41F10001921825
:102700005B411A4301D120F0010010BD2DE9F04DCD
:1027100092469B4611B1B1FA81F202E0B0FA80F222
:1027200020329046FFF7B2FF04460F4640EA0A0007
:1027300041EA0B0153465A46084313D0114653EA67
:10274000010019D0C8F140025046FFF7AEFF054620
:102750000E46504659464246FFF798FF084305D0BB
:10276000012004E020463946BDE8F08D00200543F5
:1027700046EAE0762C4337430A986305E40AA0EB67
:1027800008000022FD0A44EA47540A3002D500201E
:102790000146E9E7010510196941DDE9084500191D
:1027A0006941BDE8F04DA2E72DE9F041054621F071
:1027B00000400C46284309D0C4F30A5040F233418C
:1027C000884205DD28462146BDE8F0812846FBE722
:1027D00040F2FE31884210DC0CDB4FEA043040EA64
:1027E000155050EA053105D0104804F0004101436E
:1027F0000020E9E700200146E6E7A0F23340464228
:10280000C6F1400228462146FFF740FF07468846AA
:10281000284621463246FFF748FF43463A46FFF72F
:1028200066FF3246BDE8F041FFF730BF0000F03FE1
:10283000C1F30A52C1F3130140F2FF3341F4801196
:102840009A4202DA00200146704740F233439A422E
:10285000A2F2334202DC5242FFF727BFFFF716BF56
:10286000064C074D06E0E06840F0010394E80700DD
:1028700098471034AC42F6D3FFF72AFC28F2000147
:1028800068F2000170B58C1810F8015B15F00703B1
:1028900001D110F8013B2A1106D110F8012B03E0F9
:1028A00010F8016B01F8016B5B1EF9D12B0705D401
:1028B0000023521E0DD401F8013BFAE710F8013B4A
:1028C000CB1A921C03E013F8015B01F8015B521E66
:1028D000F9D5A142D8D3002070BD10B50AF0BAFED8
:1028E000BDE8104008F0D0BC7047000002490968FC
:1028F00001F007010170704704C500A030B406283C
:1029000021D212490A6802F00702824212D00A68F4
:102910000F4B1A400F4C22430A6000BF00BF00BF9C
:1029200000BF0A681A400C4B024333F8203042EAD9
:1029300083420A600849183951F8200007490860A5
:1029400030BC76F4579330BC7047000004C500A03B
:10295000F8FFE3FF050008005CE200012040800072
:1029600004480068044900F0070051F820000349BA
:102970000860704704C500A044E2000120408000C8
:102980000648016841F4700101600548006800F4E0
:102990008070002801D10AF013B8704788ED00E07C
:1029A00078C500A00FB41CB50246002007AC002972
:1029B0000BD0491ECDE90021054B6A4621460698F9
:1029C00000F036F9009A002111701CBC5DF814FB70
:1029D0005F3300010FB4084B10B504A902AA039895
:1029E00000F026F9044602A9002000F0C3FC2046AE
:1029F00010BC5DF814FB0000753300017CB5044683
:102A000000201D46164600290BD0491ECDE9004185
:102A1000044B6A462946304600F00AF9009A002124
:102A200011707CBD5F330001002809DB00F01F023C
:102A3000012191404009800000F1E020C0F880129F
:102A40007047002804DB00F1E02090F80004704794
:102A500000F00F0000F1E02090F8140D70470028FE
:102A600004DB00F1E02090F80004704700F00F0054
:102A700000F1E02090F8140D704700000248006853
:102A8000C0F30220704700000CED00E002E008C82F
:102A9000121F08C1002AFAD170477047002001E0D8
:102AA00001C1121F002AFBD1704700002DE9FF5F12
:102AB00082B00021DDE90430020DDDF840B00343AF
:102AC00018D044F61050A2F2FF3242431514119868
:102AD00001281FD0A5EB0B00401C5FEA000A4FF055
:102AE00000064E4FDFF83891B046504615D5CAF172
:102AF000000413E0119801244AA3012801D16FEAD0
:102B00000B010298119AC0E90031C0E9024206B0F7
:102B1000BDE8F09FCBF10000DFE704460021404A0A
:102B2000491842EB0450CDE9001012E0E00707D04D
:102B300032463B4640464946FFF707FC80468946F9
:102B400032463B4610461946FFF7FFFB06460F4646
:102B50006410002CEAD1DDE90401DDE90023BAF1BB
:102B6000000F06DAFFF7F1FB42464B46FFF7EDFB9D
:102B700005E0FFF75CFC42464B46FFF758FC044675
:102B80000E460022284BFFF753FD03D84FF0FF30CD
:102B9000014607E00022254B20463146FFF72EFB79
:102BA000FFF746FE102409E0002C0ADB0A2200236E
:102BB000FFF7A8FA039B30321A55641E50EA01024F
:102BC000F2D1641C039AC4F111031444119A012A2E
:102BD00003D0012208430DD10AE0084304D00020AD
:102BE0004FF0110B119072E7A3EB0B056D1E0DE07A
:102BF0005B4504DD4FF0000205F1010504E003DA56
:102C00004FF00002A5F10105002AECD002981199BD
:102C1000C0E90231C0E9004579E700000000144036
:102C20000000F03F300000000000F0430000E03FF3
:102C30002DE9FF4F95B09B468946064600250FE2D9
:102C4000252877D100242746F84A0121059400E081
:102C5000044316F8013F203B01FA03F01042F7D17C
:102C600030782A2811D06FF02F033078A0F130028D
:102C7000092A16D8059A44F0020402EB820203EBFB
:102C800042021044761C0590EFE759F8042B059298
:102C9000002A03DA504244F40054059044F0020440
:102CA000761C30782E2816D116F8010F44F0040453
:102CB0002A280DD06FF02F023078A0F13003092BB5
:102CC00009D807EB870302EB4303C718761CF3E729
:102CD00059F8047B761C30786C280FD006DC4C2821
:102CE00017D068280DD06A2814D104E0742810D0B9
:102CF0007A280FD10DE044F400140AE044F4801463
:102D000001E044F440147278824202D104F5801448
:102D1000761C761C307866280BD013DC582877D0C8
:102D200009DC002875D04528F6D04628F4D047287D
:102D30001AD19DE118E0632835D0642879D0652840
:102D400012D195E1702873D008DC6728F1D069288A
:102D50006FD06E280DD06F2806D1B5E073282CD027
:102D6000752875D0782874D05A46179990476D1CED
:102D700075E1C4F30250022809D003280DD0D9F818
:102D8000001004280DD00D6009F1040967E1D9F89D
:102D90000010EA17C1E90052F6E7D9F800100D80DB
:102DA000F2E70D70F0E719F8041B8DF80010002011
:102DB0008DF80100EA46012003E059F804AB4FF01A
:102DC000FF3061074FF0000102D40DE008F101016E
:102DD0008846B9420FDA8045F8DB1AF80810002956
:102DE000F4D108E008F1010188468142FADB1AF8C3
:102DF00008100029F6D105985B46A0EB080721468C
:102E00003846179A00F094FA284400EB080507E0CA
:102E10004DE029E10DE01AF8010B5A461799904749
:102E2000B8F10108F7D25B4621463846179A13E1FC
:102E300042E00A220092C4F302524FF0000A022A32
:102E400008D059F804CB032A4FEAEC710AD00DE000
:102E500029E02AE009F1070121F00702F2E802C1A6
:102E6000914609E00FFA8CFC4FEAEC71042A03D179
:102E70004FFA8CFC4FEAEC71002907DA0A46002170
:102E8000DCF1000C61EB02012D2202E0220504D5E9
:102E90002B228DF80420012203E0E20701D020223A
:102EA000F7E7904659E00A2102E010220DE01021D8
:102EB0004FF0000A00910BE010224FF0000A44F09E
:102EC00004040827009203E008224FF0000A009251
:102ED000C4F30252022A05D059F804CB0021032A78
:102EE00008D009E009F1070121F00702F2E802C168
:102EF000914605E01FFA8CFC042A01D10CF0FF0C6E
:102F00004FF00008220728D5702806D0009B83F0D8
:102F1000100353EA0A0305D00EE040228DF8042086
:102F2000012208E05CEA010206D030228DF804207C
:102F30008DF8050002229046009B83F0080353EAB7
:102F40000A030AD15CEA010201D1620705D53022E9
:102F50008DF804204FF001087F1E582804D034A0BB
:102F600003900EA802900DE036A0F9E753466046A4
:102F7000009AFFF7C7F884460398825C0298401EC7
:102F8000029002705CEA0100F0D1029806A9081ACA
:102F900000F1200A600702D524F4803400E0012704
:102FA000574502DDA7EB0A0000E0002000EB0A0114
:102FB000009005984144401A0590E00306D45B4612
:102FC0002146179A059800F0B3F90544002706E05A
:102FD00001A85A46C05D179990476D1C7F1C474554
:102FE000F6DBE0030CD55B462146179A059800F006
:102FF0009FF9054404E030205A46179990476D1C0C
:103000000099481E00900029F5DC08E0029802991A
:103010005A460078491C0291179990476D1CBAF1E5
:103020000001AAF1010AF1DC65E1000009280100B4
:10303000303132333435363738396162636465662E
:1030400000000000303132333435363738394142F0
:10305000434445460000000000F058F90544761C42
:10306000307800287FF4ECAD19B02846BDE8F08F29
:10307000620700D4062709F1070222F0070CFCE8DA
:103080000223E14603F000485FEA080C02D00FF289
:10309000702C0DE05FEA045C02D50FF2682C07E0AB
:1030A0005FEAC47C02D00FF2602C01E0AFF2700C3A
:1030B0004FF0FF3823F00043CDF850C065280CD006
:1030C00006DC452809D046281DD047283DD13DE0E3
:1030D000662818D067287ED138E00021112F01DB47
:1030E000112000E0781CCDE9000106A90EA8FFF729
:1030F000DDFCDDE90F010E9A03910021009207F13A
:10310000010A04914DE04FF000400097CDE9011015
:1031100006A90EA8FFF7CAFCDDE90F0203920E9B79
:1031200011990022DDF80CA00093049211B9791CCA
:1031300000EB010AB7EB0A0004D4C0F1FF3007F13D
:10314000010A0490AAEB0700019044E0012F00DA85
:1031500001270021112F01DD112000E03846CDE9C3
:10316000000106A90EA8FFF7A1FCDDE90F010E9AE8
:103170000391002104910092BA4621070CD40399CF
:10318000514500DA8A46BAF1010F05DD009AAAF12D
:103190000101515C302908D0B84202DA10F1040F65
:1031A00006DA0121CDE9011015E0AAF10101E9E7F4
:1031B000002805DC049901440491AAEB000102E017
:1031C000411C514500DD8A460499401A401C01907B
:1031D0004FF000400290200704D40198504501DBD5
:1031E000CDF8048000208DF84F0002980DF14F07B4
:1031F000B0F1004F25D02B200E9002984FF002081E
:1032000000280CDA404202902D200E9007E00A219F
:103210000298FFF725FA3031029007F8011DB8F146
:103220000001A8F10108F2DC02980028EFD1791E14
:103230000E980870307800F0200040F0450007F844
:10324000020D12A8C01B00F107081498007800B105
:10325000012000EB0A01019801EBE071059841445F
:10326000401A401E0590E00306D45B462146179A9B
:10327000059800F05DF805441498007818B15A4696
:10328000179990476D1CE00324D55B462146179A99
:10329000059800F04DF805441CE00498002807DB71
:1032A000DDE90301884203DD0098405C179901E0E5
:1032B000179930205A469047049805F10105401CA3
:1032C00004900198401E019004D12E205A4617996F
:1032D00090476D1CBAF10001AAF1010ADDDC05E09E
:1032E00017F8010B5A46179990476D1CB8F1000169
:1032F000A8F10108F4DC5B462146179A0598ABE675
:103300002D0000002B000000200000002DE9F041FE
:10331000044600251E461746880404D405E03946B5
:103320002020B0476D1C641EF9D52846BDE8F08109
:103330002DE9F041044600251E469046C80301D5FC
:10334000302700E02027880404D505E041463846B0
:10335000B0476D1C641EF9D52846BDE8F0814A6867
:10336000002A06D00A68531C0B6010704868401E83
:10337000486070470A68531C0B601070704700006B
:103380002DE9F05F06460F4691464FEA5904A046E4
:103390003D46DFF8E4A1DFF8E4B1EFF3108001214E
:1033A00081F31088DBF8A41221F02001CBF8A412DD
:1033B000A0B3012080F31088EFF31080012181F386
:1033C0001088DBF8A01221F02001CBF8A01250B336
:1033D000012080F31088DAF8000020F08040CAF85D
:1033E00000006748CAF800003F20DBF8001160F3D6
:1033F0000501CBF80011DAF8000020F4601040EA73
:10340000C640CAF80000DAF8000020F4E02040EAE4
:103410000640CAF80000052E09D00EE0FFE70020A4
:1034200080F31088C8E7002080F31088D3E7DAF82B
:10343000000040F40040CAF80000062E05D1DAF87A
:10344000000040F48040CAF80000DAF8000040F4C0
:103450000050CAF80000DAF8000020F06050CAF806
:103460000000DAF8000020F00F0040F00300CAF876
:103470000000EFF31080012181F310883E493831BC
:103480000A6822F0E04242F080420A6048B101201E
:1034900080F31088DAF8000040F08040CAF800009D
:1034A00005E0002080F31088F4E7DBF80000DBF88B
:1034B0000401C0F300200028F7D1EFF310800122AF
:1034C00082F310880A6842F000420A6018B10120B5
:1034D00080F310883EE0002080F310883AE000205E
:1034E0004FF47A7120E088421DD9DAF8000020F00C
:1034F0008040CAF80000DAF8000040F00040CAF846
:103500000000DAF8000020F00040CAF8000005F0E2
:1035100019FD1C490868401C086044463D460520CA
:1035200078F46DD339E7401CDBF80421C2F30022A4
:10353000002AD8D0DBF8040100F07F01A14200D9B5
:103540002146002003E0DBF8002004C5401C88422F
:10355000F9D3641A002CC2D15FEAC97008D0DBF835
:103560000401C0F300200028F9D0DBF80000288017
:10357000BDE8F05F05F0E6BC08C500A000E000A0D3
:103580000A070807BC4480002DE9F04107460E46B3
:103590004FF000080024274D0BE004EBC40005EBBE
:1035A0008000801C07223946FEF71BFE40B1641CD8
:1035B000E4B22878A042F0D8B8F1000F18D102E0A8
:1035C0004FF00108F8E728780A21B0FBF1F201FB7F
:1035D00012040A2801D2401C287004EBC40105EB38
:1035E00081003968C0F80210B988C180B9790172C8
:1035F0002B7811A21021002005F44CF3307800073D
:103600000BD504EBC40005EB800006F14601BDE8D4
:10361000F0410A301C22FEF7B9BD04EBC40005EBF3
:10362000800006F12A01BDE8F0410A301C22FEF7B5
:10363000ADBD0000E47C8100523A313A61646420FF
:103640006C746B206974656D2C206E756D203D2047
:1036500025640A000449896B084004490A7810432C
:1036600000220A7070470000002001A05C42800028
:103670002DE9F04104460D46154F164E0022134623
:1036800020462946FEF7BCFF0FD83068C0F3412022
:10369000012808D0386C401C3864306820F4C060C1
:1036A00040F400703060BDE8F08100220A4B2046F3
:1036B0002946FEF7BDFFF6D8306810F4C06FF2D08F
:1036C000F86B401CF863306820F4C0603060EAE7B3
:1036D000884280000CC500A000002440014878F416
:1036E000CB9000006840800006460F46154672B633
:1036F0003846FEF76FFD402801D9402002E03846E9
:10370000FEF768FD80463046FEF764FD402801D98B
:10371000402002E03046FEF75DFD04469C21104843
:10372000FEF74DFD424639460D48FEF72FFD0C4889
:10373000224631465C30FEF729FD09484FF0AA3198
:10374000016445644FF0BB3181644FF0CC310165B9
:103750004FF0DD318165002000F004F8FEE7000045
:10376000C896800030B5ADF20C4D04464FF4806130
:1037700003A8FEF724FD184D202085F83F0085F8AA
:103780009B003CB12846012C436DC26C09D0022C31
:103790000CD00FE0104A11A15C3203A8FFF71AF910
:1037A00008E011A103A8FFF715F903E016A103A88B
:1037B000FFF710F903A90BA2686CCDE90121009075
:1037C00018A3054A18A1002000F07EFB00F042FB80
:1037D0000DF20C4D30BD0000C89680005B45525282
:1037E0004F525D20257300005B5741524E494E47B2
:1037F0005D20506172616D303A25642C50617261B8
:103800006D313A25640000005B504152414D5D200E
:10381000506172616D303A25642C506172616D3176
:103820003A256400000000006170705F6173736589
:1038300072742E630000000006460F4690461D4637
:1038400072B64046FEF7C6FC402801D9402002E08F
:103850004046FEF7BFFC04469C210D48FEF7AFFC36
:10386000224641460A48FEF791FC09484FF055317F
:10387000016445644FF066318164C6644FF077316E
:1038800001654765C94381650220FFF76BFFFEE7CD
:10389000C89680002DE9F04106460F4690461D4629
:1038A0004046FEF797FC402801D9402002E0404600
:1038B000FEF790FC04469C210D48FEF780FC224652
:1038C00041460B48FEF762FC09484FF01131016494
:1038D000456449008164C6644FF033310165476532
:1038E0004FF044318165BDE8F0410120FFF73ABF58
:1038F000C89680007047000010B586B00AF04EF9F7
:103900000949002062F4BAD50446002C09D01422DB
:10391000064901A8FEF73AFCADF8084001A800F0FE
:103920009FF806B010BD00004842800058E5000135
:10393000082808D200EB4001044800EB4110017850
:1039400009B1001D7047002070470000448D8000C1
:103950002DE9F0470646894600244FF0FF384746D8
:103960000121002E6ED0307880B101280ED00228BF
:103970000CD003280AD0042808D0052806D0062831
:1039800004D0072802D04046BDE8F087EFF310834B
:10399000012282F310882D4D944604EB440205EB7E
:1039A000421292F800A0BAF1000F03D092F804A0DE
:1039B00082450DD104EB440005EB401090F82D003A
:1039C000022803D0274682F800C005E0082403E05F
:1039D000641CE4B2082CE0D353B1012080F31088BA
:1039E000082C2FD2DFF868A09AF8000020B10BE075
:1039F000002080F31088F3E78AF800C003211548FF
:103A000008F032F8AAF8020004EB440105EB411576
:103A10003078287105F108002422311DFEF7B6FB2D
:103A20000D4868630D48E86300202864C5F85C9081
:103A3000032018F4F1D3032018F40CD4281D03F04C
:103A4000E1FE014601B1474638469DE7448D8000BE
:103A50005840800074E200014D5A0001CD59000128
:103A600010B5ADF5047D04464FF4007104A8FEF7CF
:103A7000A6FB207810B1012819D01DE000211748BD
:103A8000A28830F831309A4207D100EBC10014A16E
:103A9000436804A8FEF79EFF0EE02B2902D0491CC4
:103AA000C9B2EEE714A104A8FEF794FF04E01DA13B
:103AB00004A86268FEF78EFF04A921A22069CDE95F
:103AC00001210090D4E902231EA1002000F0FCF99E
:103AD00000F0C0F90DF5047D10BD000074408000B9
:103AE0004572726F7220636F6465203078253034C0
:103AF000583A2025730000004572726F7220636F80
:103B00006465203078253034583A204E6F20666F37
:103B1000756E6420696E666F726D6174696F6E2E6A
:103B20000000000028257329206973206E6F74201F
:103B300065737461626C69736865642E00000000CF
:103B4000257300006170705F6572726F722E630082
:103B50000EB500290AD006A07122CDE900200291FD
:103B60000C4B0DA217A1022000F0AEF90EBD000013
:103B7000416476657274696E6720737461727465EE
:103B800064206661696C6564283058253032582994
:103B90002E00000068E400012E2E5C5372635C75F9
:103BA0007365725F63616C6C6261636B5C75736596
:103BB000725F6761705F63616C6C6261636B2E63DF
:103BC000000000004E4F5F544147000070B588B0C0
:103BD00006461446A17AE27A237B657BCDE904533D
:103BE000CDE90621A07BE17B09A28423CDE9003247
:103BF000CDE90210144B15A21FA1022000F064F9B8
:103C000008B021463046BDE87040FFF773BE0000A3
:103C1000436F6E6E656374656420776974682074A1
:103C20006865207065657220253032583A2530323B
:103C3000583A253032583A253032583A25303258E1
:103C40003A253032582E00007DE400012E2E5C53C0
:103C500072635C757365725F63616C6C6261636BE8
:103C60005C757365725F6761705F63616C6C6261E4
:103C7000636B2E63000000004E4F5F54414700000D
:103C8000012162F4919700003EB50546144609A152
:103C9000CDE901149C2200920C4B0DA217A1022029
:103CA00000F012F903B021462846BDE83040FFF786
:103CB00023BE0000446973636F6E6E656374656450
:103CC0002028307825303258292E000090E4000159
:103CD0002E2E5C5372635C757365725F63616C6CEE
:103CE0006261636B5C757365725F6761705F63616E
:103CF0006C6C6261636B2E63000000004E4F5F547A
:103D00004147000010460AF0C7B8000010B58EB059
:103D10000C46002C07D040B101282BD0022841D0FE
:103D200006200EB010BD0520FBE7207907281FD024
:103D3000304951F820000B90A1F12400617950F82E
:103D400021000C90A0790D9020680104090C05D089
:103D500080B20A900AA9284803F0F4FE2068010CFA
:103D600045D0000C0A900AA9244803F0EBFE3EE07F
:103D70000720D6E72079072812D01E49203151F8B4
:103D800020000790A1F13800617950F821000890D7
:103D9000A07909902078069006A803F0D3FC26E0CD
:103DA0000720BEE72079C11E032901D80720B8E704
:103DB000072809D00F49403151F82000029020799E
:103DC000072803D0012002E00120F7E7002003903C
:103DD000084861790C3850F821000490A0790590CA
:103DE000207800F01F00019001A803F0DBFE002006
:103DF00097E70000A4E20001000001A0001001A06C
:103E000000B587B003208DF800001D208DF8160046
:103E100001208DF817008DF818008DF819006846FC
:103E200000F020F80349044800F026F9FFF756FC9B
:103E300007B000BD83B2000145DE0001002806D0B6
:103E4000002904D0024AD269002A00D010477047E6
:103E5000649880000248006A002800D0004770473C
:103E60006498800010B50F4C00280AD0017803290F
:103E700010D80121A17601461A222046FEF786F9C4
:103E800005E00020A0761A210648FEF798F9E07EAA
:103E900010B105E0002010BD0348E0610348206236
:103EA000012010BD649880001752000111520001DA
:103EB000044A1044807D084201D001207047002050
:103EC00070470000649880002DE9FE4FDDF830B0A7
:103ED00006469246994600240027019702975A48C1
:103EE0000178B14202D2807E00287DD10DF13808E0
:103EF000CDF80080EFF311850220FEF7B0FD0146FA
:103F000052480068C0F30220401C012282408818F9
:103F1000C0B280F3118801213046FFF7C9FF38B1E4
:103F20004B484C4950F82620204600F0ADF8044696
:103F30001C213046FFF7BCFF00285ED046A2454951
:103F4000204600F0A1F8204484B204213046FFF757
:103F5000AFFFF8B152463F49204600F095F82044A3
:103F600084B208213046FFF7A3FF38B13BA239499C
:103F7000204600F089F8204484B20BE0102130463E
:103F8000FFF796FF30B136A23249204600F07CF8A8
:103F9000204484B208213046FFF78AFF90B14A4698
:103FA0002C49204600F070F8204484B2102130469D
:103FB000FFF77EFF30B12BA22649204600F064F8BF
:103FC000204484B210213046FFF772FF70B15B4687
:103FD00026A2052101A8FEF7E5FC01AA1D492046FD
:103FE00000F052F8204400E02BE084B220A21949EE
:103FF000204600F049F8204484B21648C4F5807188
:10400000204443460D9AFEF7F9FC00974FF4807167
:10401000002804DB2044884201DC86B200E00E4622
:10402000B01C884200D9FE2612A20A49304600F090
:104030002BF8304481B20748FFF700FFE8B280F365
:104040001188BDE8FE8F0000649880000CED00E050
:10405000CC41800064978000280000002000000010
:104060003A000000204C696E653A0000256C64003F
:10407000292000000D0A0000024AD06111620120CF
:10408000D07670476498800030B50546002000293E
:104090000CD0002A0AD006E02B18FF2B06D8CC54EF
:1040A000521C401C80B21478002CF5D130BD0000A9
:1040B00010B5074A06214CF2010007F011F909F08A
:1040C0004FFEFFF79DFEBDE81040002074F4CA9536
:1040D000B0E4000110B50B4C472020706078002838
:1040E0000ED14FF0E0200069C00701D103F044FD7C
:1040F00001206070BDE810400321034807F0B4BC04
:1041000010BD00006040800024E300012DE9F04173
:10411000054688461746002F04D0286820B10F2096
:10412000BDE8F0810120FBE7EFF311840220FEF7E8
:1041300088FC0646FEF7A2FC401C01218140701855
:10414000C0B280F3118800F061F80646FF2E0FD050
:104150003A464146304600F06FF8094906EB8600C2
:1041600001EB80002860E0B280F311880020D7E7DF
:1041700000202860E0B280F311880B20D0E7000017
:10418000249580002DE9F04106463468002C2AD0A1
:10419000EFF311870220FEF754FC0546FEF76EFC94
:1041A000401C012181406818C0B280F311880025AD
:1041B0006560AB20607025703560114E7068A0425C
:1041C00019D100F01FF802F05BFF78B18168F26846
:1041D000891AB1607060084677F43ED70146012025
:1041E00003F0E4FC07E00120BDE8F0813570756064
:1041F000012074F443D5F8B280F311880020F3E76E
:10420000B49680000121032003F0D0BC00200949AE
:1042100000EB800211F822202AB1401CC0B2142801
:10422000F6D3FF20704700EB8003012201F8232022
:10423000704700002495800000EB8003024800EBEB
:10424000830002618170704724958000F0B595B0BD
:10425000044694F835008DF82C000F270C970A209F
:104260000D904FF480100E9000250F9500131090C4
:10427000119512951395149500210BA8FFF768FB73
:1042800021784D2211FB02F1264E06EB8101A1F8A7
:104290009800002802DA042015B0F0BDFFF748FBB3
:1042A00021784D2211FB02F106EB81010863217890
:1042B00011FB02F106EB8101091DC16294F8360081
:1042C0008DF804000B20029003974FF40010049027
:1042D000C01205900695079508950995A0200A90AB
:1042E000002101A8FFF734FB21784D2211FB02F1D8
:1042F00006EB8101A1F89A00002801DA0420CBE73F
:10430000FFF716FB21784D2211FB02F106EB81012C
:104310004863217811FB02F106EB8101091DC1629E
:104320000020B9E7BC9280007CB50224304B0268C3
:104330009A4201D1002403E02E4B9A4200D101247D
:104340008DF800102C4D002281B101291DD00229C9
:1043500032D003293ED0042907D14D20444355F8DB
:104360002410002901D0684688477CBDC06B0190AD
:104370004D20444305EB840080F8302155F824108B
:104380000029F2D0684688477CBD018C408C081A11
:10439000ADF80400204600F083F94D20444305EBBE
:1043A000840090F830010028EED155F8241000293F
:1043B000EAD0684688477CBD018D408D081AADF86B
:1043C00004004D20444355F824100029F3D06846DA
:1043D00088477CBD4D20444305EB840080F83021A4
:1043E00055F824100029F4D0684688477CBD0000A9
:1043F00000C600A000C700A0BC9280002DE9F843D1
:104400004D21434A414302EB8104271D022878D203
:1044100094F89C00002874D0FFF75CFE94F89C0090
:1044200001286ED184F8310194F86420012A4DD01E
:104430000025D4E903010144207D00F00100C01DE6
:104440000E186068C16FC1F380010029FAD0BAB1BB
:10445000DFF8C0806D1C201D03F015FD102808D06A
:10446000A068D8F80010B1FBF0F07043B5EBC01FA6
:10447000F0D904F1A006304607F01CFE85B21EE01C
:10448000A68CE58C201D1CF44DD7A019411BB03122
:10449000201D41F288332A461DF491D2E9E73046C7
:1044A0000122694607F010FE6068C16FC1F3400148
:1044B0000029FAD09DF8001001606D1EADB2002DEC
:1044C000EDD1304607F0F6FD0028D4D16068C16F09
:1044D000C1F380010029FAD094F8640001280DD0BE
:1044E000EFF31081012080F310883868426842F0B1
:1044F0008202426039B1012080F31088002084F8E4
:104500003101BDE8F883002080F31088F6E7000051
:10451000BC928000204080002DE9F04389B0044621
:104520000F4615462678002C05D0022E05D308200C
:1045300009B0BDE8F0830520FAE794F834000128BB
:1045400000D09DB1FFF7C6FD242204F1100168469A
:10455000FDF71CFE211DA06C0EC909F0AFFB002861
:10456000E6D194F83400022802D014E00420DFE7FA
:104570000EB10820DCE7EFF31088012080F31088EB
:104580002046FFF763FEB8F1000F49D0012181F307
:1045900010880028CCD194F83400DFF8AC800128D2
:1045A0000FD04D2306FB03F008EB800006CDA030B2
:1045B00007F06AFD254DA85717F42ED6A85717F413
:1045C00049D64D2206FB02F008EB800514F8341F93
:1045D000814605F8641FA078A8706078343C687044
:1045E000643D05F168003022211DFDF7CFFD48F83C
:1045F000297005F10800182204F13801FDF7C6FD05
:104600001248001D50F826006860281D03F020FCA9
:10461000281D03F041FC0E4C0126207820B10EE04D
:10462000002181F31088B4E7267008480321143074
:1046300007F01AFA6080002801DA042078E785F88C
:104640009C60002074E70000BC92800004E300013D
:104650005C40800010B503460020022B11D281B1CE
:104660007AB14D2463430D4C04EB830393F89C40D3
:104670003CB193F8644034B1012C0BD0022C09D129
:1046800005E0042010BD181D1DF40ED102E0181D18
:104690001DF48CD00028F5D110BD0000BC92800024
:1046A0002DE9F04105464D201F49684301EB800488
:1046B00004F1A006304607F0FDFC82B2174692B125
:1046C00094F8310101280ED04D204543164800EBE7
:1046D0008505B035802A0BD329463046802207F065
:1046E000F3FC802708E0002084F83001BDE8F08169
:1046F0002946304607F0E8FC94F8640010B102281F
:104700000FD107E02946201D3A461DF4D9D10028D3
:10471000ECD106E02946201D3A461DF48BD1002835
:10472000E4D10020E2E70000BC92800070B50546AD
:10473000022D11D281B17AB14D20144B684303EBA5
:10474000800494F89C0038B104F1A00007F01AFD31
:1047500094F8300110B117E0042070BD94F83101D5
:1047600090B994F89C0001280ED16068D0F89800A8
:1047700050B1012084F830012846FFF791FF18B1AD
:10478000002184F8301170BD002070BDBC92800003
:104790002DE9F04106460C46174604F1080520466F
:1047A00071F40AD0C3B21B48E1184268914202DD9D
:1047B0000320BDE8F0811849184A006809681268AA
:1047C000891A081A001FE91881421CD94FF40045C4
:1047D00013A22946002004F45DF200F085FD30B1FB
:1047E00018A22946002004F455F20820E1E71DA292
:1047F0002946002004F44EF23A4621463046BDE8F0
:10480000F04109F067BC3A4621463046BDE8F04128
:1048100009F060BCD8328000D0238000CC23800017
:10482000523A353A4E56445320617265612069739D
:10483000206265696E6720636F6D70616374656483
:104840002E0D0A00523A353A436F6D7061637469F8
:104850006E67204E564453206661696C65640D0A8C
:1048600000000000523A353A436F6D70616374691D
:104870006E67204E56445320737563636573736689
:10488000756C0D0A000000007CB50D4600220092F8
:104890000192694604F400F2044634BB4FF42051FF
:1048A000684604F4FBF1B8B942F60101684604F425
:1048B000F5F188B942F60301684604F4EFF158B9FE
:1048C00042F60201684604F4E9F128B94FF4245194
:1048D000684604F4E3F108B1062406E00098C5F345
:1048E0000B01808808430099888020467CBD000029
:1048F0002DE9F04105460C46FF26217A1E2905D0F8
:1049000022480279521E52B200683AE004F10801CE
:10491000284604F4C5F1064635E010F832308B42E3
:104920002DD11B4E56F82500406F30B300273B4673
:1049300018A24021002004F4ADF1062000EB052070
:104940002BF418D5C00605D5002717A2402100205A
:1049500004F4A0F121460C3956F82500743004F413
:10496000A1F10020A08001266FB115A2402104F41E
:1049700091F1284604F498F105E00127D7E7521E8B
:1049800052B2002AC9DA3046BDE8F0817C058000C9
:10499000C40E8000523A333A657865637574653D9C
:1049A000307825780A000000523A333A636F6E6E11
:1049B000656374206E6F742063666D0A00000000EA
:1049C000523A333A73746172742065786563757412
:1049D000650A00000348024901600D2141607047EB
:1049E00064E700017C0580002DE9FF5F81460F46EA
:1049F0000024A246CDF808A0CDF80CA0584850F8E5
:104A00002900603004F452F180463D1F79882888DF
:104A1000544BCDE9001054A24021002004F43AF197
:104A20002888E8BB484610F4F9D2401E28800026AA
:104A300011E007EB460002AB82880021484604F4EF
:104A400037F1C4B2CDF808A0CDF80CA00CB1B04637
:104A50003BE0761CB6B27888B042EAD835E007EB86
:104A600048006B46818801AA484604F423F1C4B289
:104A70003CBBBDF804002988884200D3084686B2B2
:104A8000022106F108002BF41FD28346ABF8046024
:104A900032460BF106000099FDF778FB304800E044
:104AA00013E050F829005946603004F4FBF0484602
:104AB00004F402F12888801B288008F101081FFAFD
:104AC00088F8CDF808A0CDF80CA07888404503D927
:104AD000288808B1002CC2D044BB484610F49ED2AE
:104AE0002988401A401E86B20025062000EB0923C3
:104AF0000F220421484600962DF496D58246AAF846
:104B00000260174850F82900066E0AE00AEB05001B
:104B1000B288001DB11DFDF739FBB088284485B26D
:104B20003668002EF2D1504604F4C8F04CB1062C81
:104B300007D007EB4800397882882346484604F4BA
:104B4000BFF0084B14A240210020009404F4A2F00E
:104B5000062C03D0002004B0BDE8F09F0120FAE746
:104B6000C40E8000CCE70001523A333A5B25735DF6
:104B700020656E7465722C206E625F68616E646C75
:104B8000653D307825782C2072655F6C656E3D3010
:104B90007825780A00000000523A333A5B25735DAD
:104BA00020657869742C207374617475733D307856
:104BB00025780A0005F0B2BC2DE9F041054688468B
:104BC00028466BF4BDD2C0B22449097888420DD280
:104BD00000EB4000213040F400404246AC2106F09A
:104BE0007FFB0446200032D0012430E06BF4ECD28D
:104BF000C7B207EB470606F1200040F400402A4602
:104C0000072106F06DFB10B10120BDE8F0813846A8
:104C100077F42AD406F1210040F400404246AC214A
:104C200006F05EFB0446200001D00120EDE72236AD
:104C300046F4004072F4EAD40949C7EBC70009689A
:104C4000084429680160A9888180A97981711CB90B
:104C500041462846FEF798FC2046D6E738238000D8
:104C60003C23800010B507F0B1FD07F051FD07F0BF
:104C700013F808F0E9FD00F0E1F907F0BBFD07F0DB
:104C800021FE06F095FA00F051F901F0A9FFBDE808
:104C9000104000F042B910B504F0C6FD05F004FD67
:104CA00004F0D2FD05F012FA04F028FE04F030F80A
:104CB00003F062FF01F08AFD02F066F807F0B0FD34
:104CC00007F04CFE02F03CF807F0A6FEBDE81040ED
:104CD00008F036BA70B504460D46204607F02EFEA1
:104CE000002805D129462046BDE8704064F4629151
:104CF00070BD70B504460D46204607F01FFE002823
:104D000004D12946204665F401D280B270BD70B549
:104D100004460D46204607F011FE002805D129461D
:104D20002046BDE8704065F4379370BD70B5044609
:104D30000D46204607F002FE002804D129462046F1
:104D400065F416D680B270BD10B58CB008A808F016
:104D5000D9FBBDF8221009989DF82120CDE9041057
:104D60009DF820302EA0E921CDE90232CDE90010D6
:104D7000364B37A23CA10220FFF7A6F80AA861F43F
:104D800017D1044654B114223049183103A8FDF755
:104D9000FDF9ADF8104003A8FEF762FE9DF828006B
:104DA0009DF82910CDE906109DF82A209DF82B309A
:104DB000CDE904329DF82C109DF82D002CA2EE2395
:104DC000CDE90032CDE90201204B21A226A102202B
:104DD000FFF77AF831A0F521CDE900101B4B1CA29A
:104DE00021A10220FFF770F808F0D8FE08F03CFF80
:104DF00008F004F801F022FC3049002061F43ED3B1
:104E00000446002C0AD0142210492C3103A8FDF7C7
:104E1000BDF9ADF8104003A8FEF722FE0CB010BD9E
:104E2000476F6F6469782047523535317820534495
:104E30004B205625642E25642E25303264202863AD
:104E40006F6D6D6974202564290000006CE5000118
:104E50002E2E5C5372635C757365725C757365723C
:104E60005F6170702E6300004E4F5F544147000039
:104E70004C6F63616C20426F617264202530325840
:104E80003A253032583A253032583A253032583A9D
:104E9000253032583A253032582E0000476F6F6463
:104EA00069782055415254206578616D706C652099
:104EB000737461727465642E0000000048428000C3
:104EC00010B540F4404072F4A1D310BD10B540F4C9
:104ED000404006F005FA10BD0449016004494160F4
:104EE000044981600449C1607047000041C2060066
:104EF00015C20600CD4E0001C14E000110B505F0EF
:104F000055FC06F099F806F067F806F0ABF901F0E9
:104F100005FEBDE8104001F0B1BE10B5FFF7BBFEC5
:104F2000FFF7ECFFFFF746FE10BD00000449034801
:104F300008600549034808607047000041620001AD
:104F40000C228000F1630001182280003EB500248D
:104F50001D0A0A78122A02D0132A04D006E0002083
:104F60008DF8000002E001208DF800008888ADF87F
:104F700004004888ADF80200891D029100206BF4FE
:104F80007FD10B48016829B18A691AB16946284660
:104F9000904708E09DF80000012804D1BDF80410F6
:104FA0002846FFF797FE6BF4A1D120463EBD0000D6
:104FB000B42280007CB50E46150A002000900190B6
:104FC0006946284675F4DAD19DF8061068466FF4F4
:104FD000E3D50446CCB164F4D9D7C0B164F4D6D7D4
:104FE000C01C81B23288002320466FF4B7D36946D3
:104FF000284607F04DFD40B106A24021002003F4F1
:1050000049F62146684660F41FD500207CBD00208B
:10501000E7E70000523A333A7361766520636363D1
:10502000640A00007CB5DDE90654CDE9005468F45B
:10503000D9D5BDE87C4006F05DBD000002490148BD
:1050400008607047255000014823800010B588B0E3
:10505000044669F455D00020079007A856F4FCD602
:105060000798FFF739FF2068019060680290A068F8
:105070000390E0680490208AADF81400608AADF8CF
:105080001600A08AADF81800E08AADF81A0001A851
:1050900056F40CD756F4ECD6034801680161416818
:1050A000416108B010BD0000300100B02DE9FC479F
:1050B00005460C46FFF7D6FD6BF418D1074630487D
:1050C000006800B180470120FDF758F8DFF8B49080
:1050D000DFF8B480E16999F8000098F800200244F4
:1050E000B1FBF2F1CEB216FB00F1A06967F45ED11C
:1050F000286865F4EDD4686861F4FAD3286969F426
:1051000099D0A86863F492D6E86863F437D71F484B
:105110004EF4C0D21E484EF4C3D21E484EF4C6D23E
:105120001D4856F4EFD61D484EF46AD21C484EF482
:105130006DD21C484EF470D21B4867F40BD14FF06F
:10514000806073F4D5D72046FFF780FFD4E90A01C9
:10515000CDE9000199F80010A06916FB010098F84C
:10516000001016FB01F1D4E90823104C2468A04775
:1051700038466BF485D0BDE8FC4767F4CF9100005A
:105180008026800029D507002AD50700119F070037
:10519000B9C3060065C40600EDAF070025ED0600A3
:1051A00045ED060065ED0600799B07004823800069
:1051B00010B50A4601460A4806F0E4FF094801888E
:1051C000074806F06DFF002809D00021052008F0EF
:1051D00011FD0021BDE81040084602F079B910BD6C
:1051E000E85D81004C428000034900EB800001EB48
:1051F0008000808870470000CC428000034A00EBAA
:10520000800002EB8000818070470000CC4280006B
:105210000020FFF7F3B80A4601460020FFF786BAE0
:1052200030B50B4DEA68B2F1704F10D30020A5F5F0
:10523000C87300EB800103EB81014C6814B18C68EA
:10524000A41A8C60401C1428F3DB0020E86030BDF9
:10525000B496800070B504460D46194E0022194BD5
:1052600020462946FDF7CCF906D2306820F470407C
:1052700040F44050306070BD0022134B2046294658
:10528000FDF7D6F90DD20022134620462946FDF738
:10529000B7F906D2306820F4704040F480403060A6
:1052A00070BD0022094B20462946FDF7C1F9F7D20F
:1052B000306820F4704040F4A040306070BD0000C1
:1052C00024C500A0008040C000003EC00000244073
:1052D00010B507F025FA06F0B1FB08F045F9BDE876
:1052E000104000F06BBB00002DE9F04F87B0DFF8F5
:1052F000EC9100240025A246002608F0B1FA784877
:105300000168C9F800104068C9F8040075480068D1
:105310000830059009F108000690042203A90598B9
:1053200000F018FBBDF80C10A1F57F40FF3843D00A
:10533000082203A9059800F00DFBBDF80E0070F4DB
:105340003BD200F0FF08BDF80C00002867D006989B
:10535000A9EB000707F58057BDF80E1008F108000B
:1053600083460844B84263D805AB082203A906A8BF
:1053700000F0ECF8BDF80E00002300EB080205A9D0
:1053800006A806F0C2FB641CBDF80E005844B842E3
:10539000C3D10020CDE9006053464A462146284645
:1053A00008F0AEFD002826D1824600260024CDF864
:1053B00018906D1CEDB2B0E70020CDE900605346B7
:1053C0004A462146284608F09BFD002813D16D1C53
:1053D000ECB2444D4FF48057434E08E0286800EB90
:1053E0000430394602F0FEFA40B1641CE4B2707A2F
:1053F000A042F3D8002007B0BDE8F08F3B49886990
:10540000497A40F25C42CDE900210290384B39A242
:105410004FF40041002003F43DF40920EBE7BDF810
:105420000E00059908F1080808444044059074E707
:10543000082F29D305AB082203A906A800F086F897
:10544000083F2FB100233A4605A906A806F05DFBE8
:10545000611C0020CDE9006053464A46284608F00A
:105460004FFD0028C7D18246BDF80E004044C61B40
:105470000024CDF818906D1CEDB20023324605A92A
:1054800006A806F042FB48E705AB3A4603A906A882
:1054900000F05CF8611C03A8CDE9006053464A4661
:1054A000284608F02DFD0028A5D1C7F1080ABDF84F
:1054B0000E0000EB08060024CDF818906D1CEDB22C
:1054C0000123524605A906A806F01FFB0023324619
:1054D00005A906A806F019FB1FE70000F85D81008A
:1054E000ACD50700CC238000D8328000641F800038
:1054F00066E60001523A353A25732C204C2564208B
:10550000666C61736820737461746520307825302F
:1055100032582C206572726F7220307825303858DE
:105520000D0A00000221B0FBF1F2FF2A04D8B0FB03
:10553000F1F201FB12022AB1491CC9B24029F2D38F
:1055400000207047B0FBF1F0C0B2704770B5044660
:1055500015461E462A462068FCF718FE3068284487
:10556000306020682844206070BD000010B50548F8
:10557000C17A491CC172002074F438D3BDE81040D0
:1055800000F064B888428000FEB52A4C206840F0E4
:1055900040002060206820F48070206025482C3076
:1055A000016821F400310160224D24352868224928
:1055B00080B208432860214803C8CDE90001206873
:1055C000C82100F007001DF8000010FB01F2DFF811
:1055D00070C0DCF8006046F08070CCF8000019481C
:1055E000076847F001010160416843685B1A934214
:1055F000FBD30760CCF8006001F4A4F102909DF8A1
:10560000080028B19DF808000F4948618861C86109
:10561000286820F07F402860206840F0400020602B
:10562000206840F480702060206820F040002060F6
:10563000FEBD000004C500A000008F11B458000199
:10564000FCED00E0001000E0884280002DE9FC4104
:105650002D4D286820F07F4040F0885028602B486E
:1056600003C8CDE90001284824380068C82100F0AB
:1056700007001DF8000010FB01F2254F3C6844F0C4
:10568000807038602348066846F001010160416877
:1056900043685B1A9342FBD306603C60002601F42A
:1056A00051F10446DFF87080D8F81800844201D91F
:1056B000012700E0002774F43FD140B91FB1D8F8AA
:1056C0001800201A02E0D8F81800001BC6B2D8F85B
:1056D0001800C8F82000B6EB900F03D8292C01D889
:1056E000112C02D200F01AF807E000EBC0002044B1
:1056F0000A21B0FBF1F0C8F81800286820F07F40BC
:105700002860BDE8FC81000028C500A0B458000155
:10571000FCED00E0001000E0884280002DE9FF5F12
:105720004FF0000B0824604E1A2070615F4801683A
:105730005F4A89B21143016003A8FDF7D7F8022040
:10574000FDF7DCF8DFF8649109F10809D9F80000E9
:1057500020F47C3040F42030C9F8000055A003C884
:10576000CDE90001DFF844A1AAF1240ADAF800002B
:10577000C82100F007001DF8000010FB01F1DFF860
:105780003C81D8F8003043F08070C8F800004C4FDE
:105790003D6845F00100386078687A68121A8A42DC
:1057A000FBD33D60C8F8003001F4CCF002909DF8C6
:1057B00008107069814204D99DF80820811C8A4232
:1057C0005FD99DF80810814204D29DF80820811EFF
:1057D0008A4256D29DF80810814201D9012500E085
:1057E000002515B1641C64B201E0641E64B2202C73
:1057F0000FD3D9F8000020F47C3040F42030C9F8F1
:105800000000B06B401CB063002002904FF0010B11
:1058100037E0D9F8000020F47C3040EA043040F44E
:105820000030C9F8000023A003C8CDE90001DAF870
:105830000000642100F007001DF8000010FB01FCCF
:10584000D8F8000040F08071C8F80010396841F0C5
:1058500001023A607A687B689B1A6345FBD3396022
:10586000C8F8000001F46EF002902DB19DF8080018
:1058700071698842B5D804E09DF8080071698842D2
:10588000AFD39DF80C00FDF739F80848016821F006
:105890007F4101609DF80800B061706A401C706231
:1058A00004B05846BDE8F09F8842800028C500A09B
:1058B00000008F114030101810200000FCED00E0B7
:1058C000001000E02DE9F04180460D4616461F46C7
:1058D000FFF71ED9094C268065800120207308EB54
:1058E000060020F0704060607F1CA7602946044AD3
:1058F00006F032FF0020BDE8F0810000CC6E810090
:1059000051D1000170B504460D460F4E00220F4BD9
:1059100020462946FCF78CFE08D2D6F8200220F457
:10592000706040F44070C6F8200270BD0022084B41
:1059300020462946FCF764FEF7D2D6F8200220F470
:105940007060C6F8200270BD00E000A00000494071
:10595000000044402DE9F04105460E461746094C2B
:105960002378002B02D0002070F49AD23A463146B8
:10597000284602F077F80546207870F491D2284640
:10598000BDE8F081C92380002DE9F04105460E46AF
:105990001746094C2378002B02D0002070F480D2E7
:1059A0003A463146284602F06DF80546207870F4F4
:1059B00077D22846BDE8F081C92380000121024A40
:1059C00000206AF4D19000003170000130B4002151
:1059D0000D4B01EB410203EB42121478012C0DD167
:1059E00012790478A24209D101EB410003EB401087
:1059F000C16D002906D030BC00200847491CC9B23F
:105A00000829E6D330BC7047448D800070B500246F
:105A10000C4E04EB440006EB4015287801280AD10F
:105A2000281D12F41BD518B1012801D0002070BD2B
:105A3000281D12F46DD7641CE4B2082CE9D30120B0
:105A400070BD0000448D80007047000030B400211C
:105A50000D4B01EB410203EB42121478012C0DD1E6
:105A600012790478A24209D101EB410003EB401006
:105A7000C16D002906D030BC01200847491CC9B2BD
:105A80000829E6D330BC7047448D80002DE9FC5FC7
:105A900083468A4615461E460020009001908146A6
:105AA00000243E4F386820F4C07040F08000386019
:105AB000786820F480507860803FA046584607F010
:105AC000C3F973F449D573F49BD501F001FA009042
:105AD00000980444504607F0B7F973F43DD573F4C9
:105AE0008FD501F0F5F90190DDE90010401A8144ED
:105AF00008F10108B8F1070FE0DB4846FCF72EFD7E
:105B0000DFF89C8000224346FCF791FC06F074FC11
:105B1000FCF75CFD81462046FCF720FD0022434651
:105B2000FCF785FC06F068FCFCF750FD02460020FF
:105B30001C4B0BE000FB09F1B1FBF5F111440091A6
:105B40000099B3FBF1F13154401CC0B2A842F1D32B
:105B5000F86A20F00050F862F86A20F40050F86209
:105B6000F86A20F08050F862F86A20F48050F862F9
:105B7000F86A40F40050F862F86A20F40050F862C5
:105B8000F86A40F48050F862F86A20F48050F862B5
:105B9000054905200860BDE8FC9F0000802001B099
:105BA00000001C4000C0A83200CD00A02DE9FE4F2F
:105BB00007460D4602AA2946384607F01BFF10B1DA
:105BC0000298BDE8FE8F029C00260296DFF86880EE
:105BD00098F8000010B1002070F462D1DFF85CA0EA
:105BE0004FF6FF7908226946204601F03BFFBDF8D9
:105BF0000000484502D12E80029617E0B84206D137
:105C000015B1BDF802002880083402940EE0BDF8FA
:105C100002006FF4D1D5BDF80210083021444418B9
:105C2000DAF800008442DDD32E80029698F8000056
:105C300070F436D10298C4E7C9238000D0238000D5
:105C400070B506460024094D0BE004EBC40005EBDB
:105C50008000801C07223146FCF7C3FA20B1641C87
:105C6000E4B22878A042F0D8204670BDE47C8100E0
:105C700003490978002902D0002104F0C9B970470E
:105C8000C044800010B5884210D808290ED2094BB4
:105C9000074A5A6006E003EB8002946844F001046E
:105CA0009460401C8842F6DD0320186010BD00009F
:105CB00000400030002000E070B505461446114851
:105CC00040F8345000EBC4004160284601F00AFA65
:105CD0000646FF2001F008FA014625F001000A4BB4
:105CE000850703EB8402094B06D0801E906006EB0B
:105CF000014043F8240002E0906043F8241020465D
:105D000070BD0000643D8000002000E000400030D5
:105D10002DE9FC410C46434A6178A07852F82110E5
:105D2000CDE90010237840A21021002002F4B2F740
:105D3000607801264B4F052530B1012833D0022869
:105D400045D003286AD152E020786CF4A7D4C0B2C1
:105D5000C0EBC00107EB81014D72A278452A05D145
:105D6000CA681278022A13D081F8206091F82020A6
:105D7000012A04D0022A02D0032281F8202091F8BF
:105D80002020022A4AD0C9680978022906D102E0F7
:105D900007224A72EAE7A17845293FD0324A00211A
:105DA000126890473AE087F89950A078452805D1C5
:105DB00097F89C00022801D087F89C6097F89C0017
:105DC00002282BD0294900200968884726E087F857
:105DD000A550A078452801D187F8A86097F8A800B9
:105DE00006281BD0224900200968884716E0207841
:105DF0006CF4B6D4C0B207EB001181F8B150A278B0
:105E0000462A01D0CE2A01D181F8B35091F8B310BF
:105E1000022903D0174A0021126890470020BDE8EC
:105E2000FC81000068228000523A313A616374209C
:105E300073746F707065642C206163745F6964783B
:105E40003A2025642C206163745F747970653A2070
:105E500025732C20726561736F6E3A20307825307F
:105E600032780A007C2780001022800014228000F3
:105E7000182280001C2280002DE9FF470C4666781E
:105E80008DF80D6020784FEA1329CDE900905A4B28
:105E90005AA210210296002002F4FCF620786449F0
:105EA000644F4FF0000801EBC905092861D008DCF8
:105EB000092824D2DFE800F09A8B9A4A4A9A9A2459
:105EC000240017282FD004DC0B2807D0142816D163
:105ED0006AE0182814D0192811D111E0607822281E
:105EE0000DD100206AF4CCD15348006828B1436832
:105EF0001BB100220F21484698476AF4F7D175E09C
:105F00006BF4B4D0044685F8058000206AF4B8D15B
:105F1000386828B1436D1BB1224631464846984740
:105F20006AF4E4D162E06BF4A1D0044685F8048001
:105F300000206AF4A5D1386828B183681BB12246D5
:105F40003146484698476AF4D1D14FE06BF48ED081
:105F5000044685F8068000206AF492D1386828B19A
:105F6000836D1BB122463146484698476AF4BED13C
:105F70003CE06BF47BD0044685F8028000206AF494
:105F80007FD1386830B1C36C23B136B12246314677
:105F9000484698476AF4AAD128E0002CFAD0224655
:105FA000314648469847F5E76BF460D0044685F8DB
:105FB000038000206AF464D1386828B1C36D1BB136
:105FC00022463146484698476AF490D10EE0607800
:105FD00060B100206AF454D1386828B1C36B1BB19A
:105FE00061780022484698476AF480D16BF444D027
:105FF00004B00020BDE8F08728E70001523A313AAA
:1060000025733A20636F6E696478203D2025642CE7
:10601000206F70636F6465203D20305825782C20F8
:106020006572726F72203D203058257800000000A4
:106030002A27800098218000EC2380002DE9F04180
:10604000ADF50E7D0C461E0A304662F4C3D60746F7
:10605000304662F4BFD6002834D044A100913346C4
:1060600044A21021002002F415F6FF2E78D04E4DE8
:106070002088288060886880A088A880E088E880E0
:10608000207A2872607A68722F74D4F80A00C5F8F2
:106090000A00E089E881454A002102EBC600016060
:1060A0004160218822F836104FF4CA7129A8FCF704
:1060B00086F829A85FF4B6D3687ADFF8F48001285F
:1060C00016D101E03BA1C9E7E87B0121B1EB901FAC
:1060D0000ED198F81C0140070AD59DF8A40038B1EC
:1060E000A02101A8FCF76BF8002429AD01AF2BE03B
:1060F00004F10A02617A1546304674F45DD1617A82
:106100002A4630466EF4E3D577B100206AF4B8D061
:106110002A48016829B18B6B1BB1234A0021304604
:1061200098476AF4E3D01BE0032088F8A80017E042
:1061300004EB840005EBC001093107EB04101022C9
:10614000FCF724F8641CE4B29DF8A400A042EFD848
:1061500015499DF8A43001AA0A3130466CF4D2D713
:106160000DF50E7D0020BDE8F0810000534C415636
:1061700045000000523A313A636F6E6E6563746990
:106180006F6E5F7265715F696E645F68616E646C8B
:1061900065723A20636F6E6964782025642C2072E2
:1061A0006F6C652025730A00182780002A2780005D
:1061B0007C2780004D4153544552000098218000B7
:1061C0002DE9F0410D46E879FF2819D01B4F796879
:1061D00089B300246CF442D2C6B216B1032E05D0A6
:1061E00008E0E8796CF45AD2C4B203E0E8796CF4C0
:1061F000B7D2C4B27B682A462146304698471AE097
:1062000000210E2065F470D30446A4B10120207053
:106210002868C4F80300A888A4F80700A879607269
:10622000E8796CF43BD2A0700E2120466AF432D794
:10623000204665F457D30020BDE8F081F444800087
:1062400030B58FB006200E90002507953C4C0320FA
:1062500020700F20607084F82F5084F82E504FF477
:106260000070E08420850A2084F82A001B206084C6
:106270004FF4A470A0840CAA0EA9012065F4CAD71B
:1062800038B108A807F01EF818B907A807F040F9B8
:10629000D0B1A5764FF461706080208C40F0800012
:1062A000208405A84EF446D0059806990844FBF7CB
:1062B00065FF019502950395049508A807F002F87B
:1062C0001F4C0A3448B334E00120A0769DF820002A
:1062D000412813D09DF82A00A0719DF82D00E0718F
:1062E0009DF82E0020729DF82F0040F0C0006072D3
:1062F000BDF81C006071000A2071CBE79DF82800F2
:10630000A0719DF82900E0719DF82A0020729DF887
:106310002B0040F0C0006072EAE7102201A908A833
:10632000FBF75FFF28B1102208A92046FBF72EFFDC
:1063300002E0204673F48CD702F016FB0FB030BD9C
:106340007E28800070B50D46EFF311801D490A7854
:106350001D490968C1F30221491C01248C4011190F
:10636000C9B281F311881C0A1849002301EBC40249
:10637000136053604FF6FF7221F83420C0B280F3EF
:106380001188AB7812A21021002002F483F4204679
:1063900074F4AAD020466EF41FD5204673F4ACD70F
:1063A000002069F46DD7114802683AB1D36B2BB164
:1063B000A8789030C2B200212046984769F496D759
:1063C000002070BD02E400E00CED00E02A27800010
:1063D000523A313A646973636F6E6E20726561730D
:1063E0006F6E203D20307825780A000098218000CB
:1063F0002DE9FC5F0446EFF311876D4801786D4885
:106400000068C0F30220401C4FF0010B0BFA00F0B3
:106410000844C0B280F3118869F468D78146664D9C
:106420000094DFF8988195F8A50065A2102158F82E
:106430002030002002F42EF48DF8054095F8A530A8
:1064400007200C210D2200264FF0090A0A2B74D2D6
:10645000DFE803F0050C97979719283C424D6BF441
:10646000B1D285F8A5B085F8A86090E0002C09D0DD
:1064700085F8A56085F8A6608DF8041001A90020B4
:1064800069F4FAD783E095F8A600A22804D06BF44B
:1064900087D485F8A5A07AE06DF454D3062085F85A
:1064A000A50074E04CB16BF47BD485F8A5A0042062
:1064B00085F8A80085F8A94069E085F8A5008DF861
:1064C000041001A9002069F4D7D760E06DF48CD4E2
:1064D000082085F8A5005AE0002C58D085F8A500C2
:1064E0008DF8042001A9002069F4C6D74FE0A43537
:1064F0006E70FF2028702879A43D042807D0062854
:1065000012D03C4C012819D0032824D03FE085F854
:10651000A8608DF8041095F8A9008DF8050001A970
:10652000002069F4A9D732E085F8A8608DF804202E
:1065300001A9002069F4A0D729E022E085F8A8602D
:10654000002069F49DD6206810B1406C00B18047EE
:1065500069F4CCD61BE085F8A860002069F490D6D9
:10656000206858B1806B48B1234800886FF45AD135
:106570002168C0B2204A8B6B0021984769F4B6D6D7
:1065800005E040F202321DA122A002F49BF395F82F
:10659000A50021A2102158F82030002002F47AF33F
:1065A000484669F46DD6F8B280F31188BDE8FC9FC7
:1065B00002E400E00CED00E07C278000282280004F
:1065C000523A313A696E69745F66736D20656E7414
:1065D00065722C20696E69745F73746174653A200A
:1065E00025732C20737461747573203D2025640A13
:1065F000000000009821800018278000626C655F11
:1066000073646B5F6761706D5F70617463682E6344
:106610000000000030000000523A313A696E69749F
:106620005F66736D20657869742C20696E69745F8C
:1066300073746174653A20257300000030B585B02D
:106640000B223CA1002060F4EBD43D484FF4C8710C
:10665000818120214181002505700721817301215D
:10666000417085700246002108465FF4E1D504467A
:106670004CB1142233496846FBF788FDADF804405D
:106680006846FDF7EDF92F4A00211823283A0846FD
:106690005FF446D5044654B114222A4914316846A1
:1066A000FBF774FDADF804406846FDF7D9F9254ABB
:1066B0000D23103A012100205FF432D5044654B175
:1066C0001422204928316846FBF760FDADF80440EC
:1066D0006846FDF7C5F91C4805808570F7210A2238
:1066E000084660F4D1D7044654B1142215493C3110
:1066F0006846FBF74BFDADF804406846FDF7B0F97E
:1067000040F64801FB2060F451D3044654B11422F2
:106710000C4950316846FBF739FDADF80440684636
:10672000FDF79EF905B00021BDE83040084661F450
:1067300041950000476F6F6469785F55415254007E
:10674000DC338100E0E40001484280002DE9F041A3
:1067500004461846002600230025A4F58854043C6E
:1067600002D10B4B0925087800240CE033F8347073
:10677000874207D103EBC4035C6834B10346A047EA
:10678000064602E0641CAC42F0D33046BDE8F0811E
:106790004C7A810010B5362200210A4B05E033F80F
:1067A0003140844203D0491CC9B29142F7D391428F
:1067B00007D2A0F58850043803D103EBC101024889
:1067C000486010BD947A81004D67000110B501F05A
:1067D00083FB00200B490C4C31F8302024F830208A
:1067E00001EBC00204EBC00352685A60401CC0B207
:1067F0003628F1D341F20410FFF7CCFF03480460C0
:1068000010BD0000F0DC0500947A8100C002800019
:106810002DE9FC410E4629A003C8CDE900016A46D6
:10682000314601200CF410D70746012F43D13046E2
:106830000AF4BCD3C4B2C4BB0AF444D4C5B2FF2D1D
:1068400009D03078A02808D0A1280CD0A22816D0D2
:10685000A32819D10DE04B2427E0314628460BF43C
:10686000DBD0044610E0314628460DF4A7D004469C
:106870000AE0314628460CF4C1D5044604E031460E
:10688000284600F00BF9C4B27CB9707868B90D489D
:1068900090F86E10C90708D000EB8501C96850F860
:1068A000662FC1F816208088488324B1064A214605
:1068B0000120126890473846BDE8FC81A0A1A3A240
:1068C00000000000000E8000EC0380002DE9F04184
:1068D000AEB006460D46174698462878032804D0E1
:1068E000012809D017280AD036E002200BF46CD515
:1068F000F821FDF7C9FF2FE002F00AFA2CE06AF454
:10690000B5D3044620780A2826D300202C902D9059
:10691000687870B901A9E01D5EF4E8D79DF82D00F4
:106920008DF8B600DDF827002C90BDF82B00ADF8EF
:10693000B4000E4E306848B1002069F4A1D4336829
:10694000227868782CA9984769F4D0D46AF494D353
:106950002EB00020BDE8F0812EB043463A462946CD
:106960003046BDE8F0416DF465940000F4448000C9
:106970002DE9F0410646384890F8791000EB810087
:10698000C4680025002C04D1D72234A138A002F419
:1069900099F1FF2E55D0607C90B10BF40DD54007D6
:1069A00009D50BF409D540070AD5344850F826001C
:1069B00090F85F0020B904F11601304609F432D393
:1069C000A07B40F6B15798B3012815D0022839D1E1
:1069D000082040EA06210123072240F6056029F439
:1069E000DFD30221017029F427D4E08BF8B107210D
:1069F000384629F44DD725E094F8540028B94FF4CF
:106A0000807216A11EA002F45DF194F85400401E9D
:106A1000C0B284F8540028B104F11C0120460CF4E3
:106A200008D00FE00721384629F432D7012509E0C4
:106A3000FFE7E08B18B10721384629F429D7012553
:106A400000E0012525B10022012120460CF4B6D03A
:106A50002846BDE8F0810000000E80006761706D7F
:106A60005F696E69745F70617463682E6300000013
:106A7000705F616374765F696E697400CC0D80002D
:106A8000705F616374765F696E69742D3E6E625FDC
:106A90006175746F5F636F6E6E00000070B50446C1
:106AA0000E460025194890F86C100520884301D047
:106AB000432522E070780CF4A9D000B30BF47CD409
:106AC000400702D5707802281BD0582120460AF4CE
:106AD00055D20446BCB10220607370786074012006
:106AE0000BF4E6D5A0820A4820600A4860600A4894
:106AF000A060002120460AF461D2284670BD4025DE
:106B0000FBE74925F9E74B25F7E70000000E800079
:106B10002D6B0001B56B00011D2A010002490148DF
:106B20000860704771690001C80480002DE9F041D8
:106B30000446884608F102051D4F97F87900FF28A2
:106B400006D197F86D0097F87D1008440A2801D304
:106B500043262AE028460BF491D6C6B22EBB2878ED
:106B6000A073002084F85500382208F1020104F1D6
:106B70001C00FBF70BFB6A8822B1072140F6B150DD
:106B800029F416D7A07B012803D197F87E0084F85A
:106B900054007937207B7870207B38703879401C1E
:106BA0003871294620460BF444D73046BDE8F081C1
:106BB000000E800010B50446E08B002804D00721A9
:106BC00040F6B15029F464D60449207B81F87A005C
:106BD0002046BDE810400BF423970000000E800013
:106BE00038B5164C60892168C2001548FBF7CEFA0B
:106BF000134820604FF4C072124900F59070FBF703
:106C0000C5FA1248104CC0F82441114908601822F6
:106C1000104900F5C070FBF7B9FA0F4844600F49FE
:106C200008600C480EA21021008800900548B0F8BA
:106C30002031002002F42EF038BD0000CC0280008C
:106C40009477810090DE0500F97F0001B47881001F
:106C5000E804800010E00500347A8100E004800040
:106C6000523A313A696431203D20307825782C2021
:106C7000696432203D2030782578000003490248BD
:106C8000C1F8DC00704700001168000194778100B2
:106C90007CB50546174B18A24021002001F4FAF7F5
:106CA0006946284605F0F4FEA0B117A24021002055
:106CB00001F4F0F79DF8061068466DF46DD70446B0
:106CC00044B115A24021002001F4E4F721466846B2
:106CD0005EF4BAD69DF8061068466EF4CBD128460D
:106CE0006EF412D4034B12A24021002001F4D2F71B
:106CF0007CBD000042E70001523A333A5B25735DE8
:106D000020656E7465720A00523A333A626F6E649F
:106D10006564206465760A00523A333A7361766599
:106D2000206363636420696E206E7664730A0000DA
:106D3000523A333A5B25735D20657869740A000026
:106D40000249014808607047916C0001D822800018
:106D500010B51C2200210A4B05E033F83140844273
:106D600003D0491CC9B29142F7D3914207D2A0F592
:106D70002060133803D103EBC1010248486010BD05
:106D80002C738100A58B000110B5FDF723FE074C85
:106D900007496089C2000748FBF7F8F940F613205D
:106DA000FFF7D6FF0348206010BD0000D802800026
:106DB00024E405002C7381002DE9FF410C460027D7
:106DC000D6B2150A00200290039000900190E8B21C
:106DD000694673F4D3D2304671F422D28046002043
:106DE00069F44ED2B8F1000F39D0D8F80420002A47
:106DF00035D0E8B221469047208802A95EF482D0BF
:106E000000282CD142F6021102A85EF481D030B3E2
:106E1000304665F495D280469DF8061068466DF4BC
:106E2000BBD60646DEB1A079E179434640EA0122AD
:106E3000218830466DF492D4E8B2694605F028FE08
:106E400068B10AA24021002001F424F769F44ED26F
:106E5000314668465EF4F8D5002069F411D269F431
:106E600045D204B03846BDE8F0810000523A333ACA
:106E7000636F6D6D6F6E20736572766963653A201E
:106E800070656572207772697465732063636364EB
:106E90002C207361766520697420696E206E76649B
:106EA000730A0000017882781144C9B20171084662
:106EB000704730B500224271438805E044798D5C0B
:106EC0002C444471521C92B29342F7D8407930BDA1
:106ED0000748C169C1F31401026AC2F314030068D0
:106EE000C0F3C112581A034951F8221048437047A1
:106EF000802001B0E444800030B502460024002028
:106F00000021084B53F820502DB1914201D1044685
:106F100005E0491CC9B2401CC0B20A28F2D3204681
:106F200030BD0000CC0D80002DE9F04389B08146D2
:106F30000E4600242546202101A8FBF740F9002732
:106F4000102201A94846FCF71BFA002001A900F114
:106F5000080231F812203A4497B2401CC0B2082807
:106F6000F5D34FEAD708B9F1050F03D0B9F1060FF1
:106F700020D03AE07088FBF7F1FA04460D463088DD
:106F8000FBF7ECFA06460F464046FBF7E7FA3246B7
:106F90003B46FBF7D4F922462B46FBF748FA154A45
:106FA000154BFBF744FA0022144BFBF7CBF90446D0
:106FB0000D461AE07088FBF7D1FA04460D46B088FA
:106FC000FBF7CCFA06460F464046FBF7C7FA3246B7
:106FD0003B46FBF7B4F922462B46FBF728FA084A52
:106FE000084BFBF7B2F904460D4609B02046294686
:106FF000BDE8F08379E9263108AC5CBF0000394078
:10700000B76DDBB66DDB0EC010B502460020002167
:10701000064B53F821401CB1914205D0401CC0B230
:10702000491CC9B20A29F4D310BD0000CC0D800060
:107030001CB542680121117000214FF48A2205E03D
:1070400012F8013B4468491C6354C9B20829F7D3BC
:10705000094906C9CDE900124168009A41F8092F93
:10706000019A4A6002884068112168F43FD50349BB
:10707000002008701CBD00009CE60001482580002F
:10708000F0B5FF224FF0FF310020154F07F5C87310
:10709000DC6800EB800307EB83035D687DB15D78FE
:1070A000AA2D0CD19E68351B8D4202D2294602467C
:1070B00004E0A64202D29C600021024649B1401C75
:1070C0001428E6DBFF2A09D002EB820007EB8000E0
:1070D000F0BD02EB820007EB8000F0BD0020F0BDA8
:1070E000249580000088704740F45F40704700009E
:1070F0002DE9F05F04460D46374FDFF8E080DFF8FA
:10710000E0B04FF0663A4FEA670936480068C0F3CE
:10711000C2263A46434620462946FBF771FA01D279
:10712000062656E03A46434620462946FBF780FAB3
:107130000AD852465B4620462946FBF761FA03D23D
:10714000042E46D0062644E052465B462046294699
:10715000FBF76EFA08D80022234B20462946FBF79E
:107160004FFA01D8042634E000221F4B204629465E
:10717000FBF75EFA0AD24A461C4B20462946FBF72B
:107180003FFA03D2032E24D0042622E04A46174BAE
:1071900020462946FBF74CFA08D80022144B20461B
:1071A0002946FBF72DFA01D8032612E00022104BE6
:1071B00020462946FBF73CFA0AD24A460D4B2046A8
:1071C0002946FBF71DFA03D2022E02D0032600E067
:1071D00002263046BDE8F09F9A9999999999014005
:1071E0006666024010C500A000000440CCCC0440FC
:1071F00000000840CCCC08402DE9F05F04460D4665
:10720000DFF82CA1DFF82081DFF820B14FF06639DC
:107210004FEA4A0747480068C0F3C2263A46434649
:1072200020462946FBF7ECF901D2072678E03A46DA
:10723000434620462946FBF7FBF90AD84A465B46F7
:1072400020462946FBF7DCF903D2052E68D0072635
:1072500066E04A465B4620462946FBF7E9F908D82E
:107260000022354B20462946FBF7CAF901D80526EE
:1072700056E00022304B20462946FBF7D9F90AD2C6
:1072800052462E4B20462946FBF7BAF903D2042E6C
:1072900046D0052644E05246284B20462946FBF7B7
:1072A000C7F908D80022264B20462946FBF7A8F943
:1072B00001D8042634E00022214B20462946FBF762
:1072C000B7F90AD252461F4B20462946FBF798F9D8
:1072D00003D2032E24D0042622E05246194B204626
:1072E0002946FBF7A5F908D83A46174B2046294608
:1072F000FBF786F901D8032612E03A46124B2046E6
:107300002946FBF795F90AD24A46104B20462946F2
:10731000FBF776F903D2022E02D0032600E0022604
:107320003046BDE8F09F0000999901406666024032
:10733000CDCCCCCC10C500A000000440CCCC044087
:1073400000000840CCCC084099990D4066660E407C
:10735000FEB505460F461446204604F040FB0028C3
:107360002CD0184E184B0922B188384604F01DFB6A
:1073700001468DF8015000208DF80000304600EBEA
:107380004500032902D008290FD108E0012C04D0C0
:1073900004218DF80010C48007E00321F9E7012CD7
:1073A0000DD006218DF8001044839DF800000028C0
:1073B00004D03168002901D068468847FEBD052108
:1073C000F0E700008898800030E3000100B591B03C
:1073D00015A090E80E00C068CDE90E230D91109025
:1073E00000200C902C2101A8FAF7E9FE0CA80190CE
:1073F0000DA802901048039009208DF8100040203D
:107400008DF82E0001208DF82F000B48801C059070
:1074100001A863F49FD0002803D10199074A098885
:10742000918011B000BD00001BD790ECE8B97580C9
:107430000A4644D30102EDA630E30001889880009B
:107440000EB5084B1B68002B0BD08DF801000029EE
:1074500007D11078002804D102208DF8000068467A
:1074600098470EBD889880003EB505460C881648A2
:10747000164B09228188204604F097FAADF80040A7
:1074800000228DF804201049022301EB4501032856
:107490000BD0082810D0ADF8022001208DF8040090
:1074A00069462846FDF733FC3EBDADF80230891D24
:1074B00002918DF80420F3E7ADF802301A31029101
:1074C0008DF80420ECE700008898800030E300018C
:1074D00013B584B0044600200C4901EB4402528BE2
:1074E000012A11D18DF804008988094A072004F087
:1074F00041FAADF806000120ADF8080005A8039098
:1075000001A92046FDF7F5FB06B010BD8898800064
:1075100030E30001002805D00349006808600348F3
:1075200067F422900220704788988000F8E30001F9
:1075300010B50178092938D2DFE801F037111705B5
:107540000B1F252B31000121BDE81040084606F035
:1075500051BB0021BDE81040012006F04BBB018962
:107560004068BDE81040FDF723BE0121002006F071
:1075700041FBBDE8104006F0C1BA0121BDE8104052
:10758000032006F037BB0021BDE81040032006F0C1
:1075900031BB0021BDE81040042006F02BBB0121C7
:1075A000BDE81040042006F025BB10BDFEB5044622
:1075B0000D4616461A200C4901EB4402D288012AD6
:1075C00010D100208DF800008988084A022004F0BC
:1075D000D1F9ADF80200ADF8046002956946204685
:1075E000FDF787FBFEBD00008898800030E30001B6
:1075F0002DE9FF4106460C4625782C4F2C4B0922DD
:10760000B988284604F0D1F98DF80560ADF800502E
:1076100000218DF80210394601EB4605032821D0E0
:107620000121052816D0072834D0082826D08DF847
:1076300002109DF80200012806D09DF8040018B140
:10764000396809B101A8884769463046FDF76EFBE5
:10765000BDE8FF818DF80410A01D0290A088ADF850
:107660000C00E6E7A01D01F067FC012804D004210E
:107670008DF80410E880DCE70321F9E7A01D01F094
:107680005BFC012804D006218DF804106883D0E744
:107690000521F9E7A07928B10128CAD108208DF881
:1076A0000400C6E707208DF80400C2E78898800030
:1076B00030E300012DE9FE4F81460024002601251C
:1076C0008DF80050CDF8049071F412D201280BD03F
:1076D0008DF8085020211A48FAF771FD0025DFF8CF
:1076E0006080A8F5017A25E000208DF80800F1E718
:1076F0000AEB0517387901281AD1B86810EA090F82
:1077000016D03A69A2B1002108E058F82100904251
:1077100001D1012604E00026491CC9B2A142F4D3DC
:1077200036B968469047386948F82400641CE4B2CA
:107730006D1CEDB29AF80000A842D9D8BDE8FE8FC2
:107740004892800070B50546094810F49FD1EFF3C8
:107750001084012181F31088284600F00BF81CB139
:10776000012080F3108870BD002080F3108870BD68
:107770005440800000B585B001680091017901F0A6
:107780000301019181680291C16803914068000979
:107790000490684601F0ECFB05B000BD10B5FF2079
:1077A000FBF758FF80B2002827D014498863EFF315
:1077B0001081012282F31088114A6FEA004313609E
:1077C00099B1012181F310886FF0040111600C4917
:1077D00040390968C1F3001159B1202809D0BDE82A
:1077E000104020F0200010F4C990002181F310888F
:1077F000EAE7BDE8104010F4C19010BD002001A0E0
:1078000044C500A030B58DB00446002C04D094F8D7
:107810002900002518B111E001200DB030BD84F819
:1078200028501948416821F080014160016821F029
:1078300080010160816821F004018160022084F8E8
:10784000290001A82DF400D360680A90A0680B906D
:107850002069059060690690A0690790E06908902A
:10786000E0680390206A0490606A0C90217801AA75
:10787000064801F0E1FD2564012084F8290084F820
:1078800028500020C9E70000A0E200A0003001A0BD
:1078900010B50446002C1DD0207A01281CD00120F0
:1078A00020721D48006818B1416809B12046884718
:1078B0001A48016821F480610160EFF31081012012
:1078C00080F310881648026822F002020260006805
:1078D00020B114E0012010BD022010BD1148426803
:1078E00042F001024260C26842F00072C260026867
:1078F00042F001020260C26842F08072C26039B197
:10790000012080F310880020E0606072207210BDBA
:10791000002080F31088F6E78403800014C500A0DF
:10792000BC438000A0E200A070B50446002C03D048
:1079300026492068884201D0012070BD207A0128A4
:1079400005D001252572607A002610B120E00220C2
:1079500070BD26721E48016821F001010160816836
:1079600021F000718160EFF31080012181F3108814
:1079700018490A6842F002020A60E8B1012080F367
:1079800010881548006818B1016809B12046884779
:10799000022060721148016841F4806101606068F2
:1079A00001280DD02068016821F480510160304623
:1079B000E6606572207270BD002080F31088E0E7F9
:1079C0002068016841F480510160F0E7006401A083
:1079D000A4E200A0BC4380008403800014C500A082
:1079E00011F4289510B50B46024600210348FEF716
:1079F00053D908B1002010BD012010BD641F8000C4
:107A000038B5022000906846FAF770FF114C2068E4
:107A100080B91148206011490160012141608160F5
:107A2000EB21C1600E499DF8002051F82210016140
:107A30000021416174F49AD208B1012000E00020D5
:107A4000A072044811F48AD408B1002038BD012086
:107A500038BD0000641F8000281F800000D000A0F7
:107A60007042800010B514460A4601462346044879
:107A7000FFF7B6FF08B1002010BD204610BD000082
:107A8000641F80002DE9F047C0B081468A46174642
:107A90003B46524649461748FDF7E5DF18BB002430
:107AA0003D464FF48078474501D9464600E03E46C2
:107AB00009EB040133466A460E48FFF791FF90B97F
