:020000040100F9
:10000000702B0200558AD50000200001002000015D
:080010000B0000004403000096
:020000040100F9
:1020000000008400A5220001B1220001757A800041
:10201000837A8000857A8000877A80000000000043
:102020000000000000000000000000004D7A800069
:10203000BB22000100000000BD220001F93D0001AB
:10204000BF22000139380600DD370600CD7A800056
:10205000BF220001BF220001CB578000D157800072
:10206000BF220001BF22000155578000BF2200019E
:10207000997B8000A17B8000BF220001BF2200016C
:10208000BF220001BF220001D7578000BF220001FC
:10209000BF220001BF220001BF220001BF220001B8
:1020A000BF220001D1370600897A8000BF220001DB
:1020B000BF220001BF220001BF220001BF22000198
:1020C000BF220001BF22000100F002F800F0C0F8BA
:1020D0000AA090E8000C82448344AAF10107DA4583
:1020E00001D100F0B5F8AFF2090EBAE80F0013F015
:1020F000010F18BFFB1A43F001031847FCB8010099
:102100004CB901000A444FF0000C10F8013B13F0E9
:10211000070408BF10F8014B1D1108BF10F8015B40
:10212000641E05D010F8016B641E01F8016BF9D133
:1021300013F0080F1EBF10F8014BAD1C0C1B09D18A
:102140006D1E58BF01F801CBFAD505E014F8016BFC
:1021500001F8016B6D1EF9D59142D6D3704700008E
:10216000103A24BF78C878C1FAD8520724BF30C8C3
:1021700030C144BF04680C60704700000023002495
:1021800000250026103A28BF78C1FBD8520728BF87
:1021900030C148BF0B6070476E2900F0238470295E
:1021A00000F0BD81662918F06D83652918F06A83F7
:1021B000672918F06783612918F0668303681B0A92
:1021C00028BF41F08001692900F02E81642900F0C8
:1021D0002B81752900F028816F2900F0108578295E
:1021E00000F08981E92900F0AB84E42900F0A8849B
:1021F000F52900F0A584EF2900F00D85F82900F0FD
:1022000088810368DB0928BF41F08001632900F061
:102210002C84732900F03184E32901F0E380F32951
:1022200001F0E880002070471FB500F05CFA01F073
:102230000DF904000020002117F0AAFB401C60608B
:102240000020002117F08EFBE0601FBD10B510BD0F
:10225000DFF80CD0FFF7E8FF01F0C7FD01F0ACF9A3
:102260000000840003B4FFF7F1FF03BC01F0EEF9B6
:102270000B49D1F800C04A685CF8043B1068184468
:1022800042F8040B8C4528BFA1F1DC0C8A4228BF20
:10229000A1F1DC02C1F800C04A6020F000407047A4
:1022A00014E38100064880470648804706480047F7
:1022B000FEE7FEE7FEE7FEE7FEE7FEE7FEE7FEE7F6
:1022C000D9870101913E0001394B01011CB50C4633
:1022D000064B7B4469460090204600F09CFB044678
:1022E0000020694600F0AAFB20461CBD67070000DD
:1022F0007CB51D4616460C00009001D02044401EBF
:10230000074B7B442A4669460190304600F083FB28
:1023100005461CB10020694600F090FB28467CBDB4
:10232000410700000FB41CB5084B06AA7B44694660
:102330000090059800F06FFB04460020694600F00D
:102340007DFB20461CBC5DF814FB00000D0700005F
:102350000FB47CB50C0009AA009001D02044401EA7
:10236000084B7B4469460190089800F054FB0546F1
:102370001CB10020694600F061FB28467CBC5DF87A
:1023800014FB0000E106000070B504468569006892
:10239000C10601D5302600E02026C00707D070BD59
:1023A000D4E9012130469047206A401C20626D1E0E
:1023B000F6D570BD70B5044685690078C00707D1B1
:1023C00070BDD4E9012120209047206A401C206282
:1023D0006D1EF6D570BD70B50C460546012A05D0B8
:1023E0002878800600D5EA69002302E0012305E091
:1023F0005B1C934202D2E05C0028F9D1A869E61880
:10240000C01AA861286A184428622846FFF7BCFF52
:1024100004E0D5E9012114F8010B9047B442F8D348
:102420002846FFF7C7FF70BD2DE9F041064600249E
:1024300010687529314616A510D000F068FA0028FA
:1024400002DA404213A507E031688A0701D512A5D8
:1024500002E0490704D511A5012401E000F060FA6B
:1024600000210A2206F1240709E0B0FBF2FCB0FBD0
:10247000F2F302FB1C00303078541846491C002847
:10248000F3D123462A463046BDE8F04100F051BA68
:10249000000000002D0000002B00000020000000C4
:1024A000F0B40D460188090502D5214C7C4402E0B8
:1024B0001F4C7C440E34002100F1240608E002F099
:1024C0000F071209E75D42EA03721B097754491CA2
:1024D00052EA0307F3D102780023120704D5702DC6
:1024E00006D009B1022311342246F0BC00F021BA13
:1024F00001231034F8E770B504460D4621461068F4
:1025000000F00EFA024629462046BDE8704000233E
:10251000C6E7D21D22F00703D3E90023C0E7036812
:10252000126843F0200303600823C3610023B7E768
:10253000999C01002DE9F05F894604464FF0000A9E
:10254000DFF874B1FB44C0F820A02046E16888475A
:10255000002874D0252806D0D4E901219047206AAC
:10256000401C2062F1E700265F462046E16888476C
:102570002028054607DB312D05D2781910F8200CEC
:1025800008B10643F1E7B00701D526F00406C4F808
:102590001CA00027C4F818A02A2D09D0284602F054
:1025A00067F838B304EB8708303DC8F8185019E0D5
:1025B00059F8041B204604EB87029161E1688847C3
:1025C000012F054618D1E069002820DA26F0200600
:1025D0001DE0D8F8180000EB800005EB4000303813
:1025E000C8F818002046E1688847054602F040F820
:1025F0000028EED1012F0AD02E2D08D12046E16807
:1026000088477F1C0546022F46F02006C4DBA069E0
:10261000002803DA404246F00106A061F00701D02D
:1026200026F010066C2D0BD0682D09D04C2D39D01A
:102630006A2D35D0742D35D07A2D33D016E038E0A0
:10264000E1682F4620468847B842054609D16C2FDD
:1026500026D04FF48060E16806432046884705464F
:1026600004E06C2F1AD04FF4807006430DB3A5F12F
:102670004100192802D8203546F400664A4629460A
:10268000204626604E46FFF787FD80B101280BD01B
:10269000F61D26F0070000F1080956E74020E4E7A0
:1026A0008020D8E70020D6E706F104094DE7284648
:1026B00052E7206ABDE8F09F299C01000B4910B544
:1026C000A1F17C020A4CC2E93712372106E000EB87
:1026D000104342F82130074B00FB03400B1EA1F1D1
:1026E0000101F4DC10BD0120E8E70000B4E2810044
:1026F000E119D666CD0D010040EA010310B59B0734
:102700000FD1042A0DD310C808C9121F9C42F8D05B
:1027100020BA19BA884201D9012010BD4FF0FF300C
:1027200010BD1AB1D30703D0521C07E0002010BD22
:1027300010F8013B11F8014B1B1B07D110F8013BAE
:1027400011F8014B1B1B01D1921EF1D1184610BD8F
:1027500010B5431C02E010F8011B71B18107FAD1DA
:102760004FF0013202C88C1A8C4314EAC211F9D01E
:10277000C01A0A0603D0C01E10BDC01A10BD0A043C
:1027800001D0801E10BD0902FCD0401E10BD032ADE
:1027900040F2308010F0030C00F0158011F8013B7E
:1027A000BCF1020F624498BF11F801CB00F8013B65
:1027B00038BF11F8013BA2F1040298BF00F801CB29
:1027C00038BF00F8013B11F0030300F02580083A00
:1027D000C0F0088051F8043B083A51F804CBA0E857
:1027E0000810F5E7121D5CBF51F8043B40F8043BAC
:1027F000AFF30080D20724BF11F8013B11F801CBE1
:1028000048BF11F8012B24BF00F8013B00F801CBB1
:1028100048BF00F8012B704710B5203AC0F00B807C
:10282000B1E81850203AA0E81850B1E81850A0E8D4
:102830001850BFF4F5AF5FEA027C24BFB1E818502E
:10284000A0E8185044BF18C918C0BDE810405FEA9E
:10285000827C24BF51F8043B40F8043B08BF70471A
:10286000D20728BF31F8023B48BF11F8012B28BF1F
:1028700020F8023B48BF00F8012B70474FF00002E0
:102880000429C0F0128010F0030C00F01B80CCF182
:10289000040CBCF1020F18BF00F8012BA8BF20F8F0
:1028A000022BA1EB0C0100F00DB85FEAC17C24BF44
:1028B00000F8012B00F8012B48BF00F8012B7047EE
:1028C0004FF0000200B5134694469646203922BFC9
:1028D000A0E80C50A0E80C50B1F12001BFF4F7AF14
:1028E000090728BFA0E80C5048BF0CC05DF804EBF6
:1028F000890028BF40F8042B08BF704748BF20F864
:10290000022B11F0804F18BF00F8012B70470968A7
:102910004A0501D540B27047C905FCD500B27047E1
:1029200009684A0501D5C0B27047C905FCD580B217
:1029300070472DE9F0470D4699469246044600F14E
:1029400024080168880604D5E06921F0100121609F
:1029500000E00120A84201DD471B00E00027A1693B
:102960007A1902EB0900081AA0612078C00602D487
:102970002046FFF709FD002608E0D4E901211AF8F6
:1029800006009047206A401C761C20624E45F4DB0E
:102990002078C0060AD52046FFF7F6FC06E0D4E909
:1029A000012130209047206A401C2062381EA7F188
:1029B0000107F4DC07E0D4E9012118F8050090478D
:1029C000206A401C2062281EA5F10105F3DC204688
:1029D000FFF7F0FC2078000602D50220BDE8F08762
:1029E0000120FBE711680268006A530501D50870F1
:1029F0000AE0D30501D5088006E0130603D5C21707
:102A0000C1E9000200E008600120704701694A1C2A
:102A100002610878704700B58FB0CDE9013100211F
:102A2000059105497944CDE9031011466846FFF741
:102A300081FD0FB000BD0000E5FFFFFF0A6802F84E
:102A4000010B0A607047D1E900239A4202D2531C5D
:102A50000B601070704710B5436913B1AFF300807D
:102A600001E0FFF7B8FC012010BD127800F124014D
:102A70000A7000224A700122EDE711684FF0FF3220
:102A8000E9E700002DE9FF5F15468A460446DFF8B6
:102A9000AC80F8440027D8E900103E46CDE900108C
:102AA00010E03AF816106A4602A800F0A7FC411C94
:102AB00007D02178890603D5E269391891420DD8EB
:102AC0000744761C2078800602D5E069B84205DD0F
:102AD000AE42E6DB3AF816000028E2D1A069C01B3E
:102AE000A0612046FFF750FCD8E90010CDE90010A6
:102AF000002017E03AF818106A4602A800F07EFCA1
:102B0000B0F1FF3F81460BD000250DF1080B05E029
:102B1000D4E901211BF8050090476D1C4D45F7D302
:102B200008F10100B0428046E4DB206A38442062AC
:102B30002046FFF73FFCBDE8FF9F0000EE96010036
:102B40002DE9F0418046D21D22F007020025D2E98E
:102B50000002F52915A614D0011E72F1000106DA53
:102B60000023D0EB030063EB020211A608E0D8F8C3
:102B700000108B0701D50FA602E0490701D50EA66C
:102B800001251146002408F1240704E000F04EF866
:102B900030323A55641C50EA0102F7D12B463246D6
:102BA00021464046BDE8F041FFF7C3BE00000000EB
:102BB0002D0000002B0000002000000030B4002198
:102BC00000F1240408E002F00705D208303542EA9B
:102BD0004372DB086554491C52EA0305F3D10468CB
:102BE000002310A2250707D5A40600D421B1C4698B
:102BF00001230DA2641EC46130BCFFF79ABE10B55C
:102C0000044621461068FFF78BFE02462046BDE8C9
:102C100010400023D2E7D21D22F00701D1E90023A2
:102C2000CCE70000000000003000000030B5B0F13B
:102C30000A024FEA900E71F100034EEA817EB0EB7A
:102C40000E0061EB91014FEA101E4EEA017E10EB7F
:102C50000E0041EB11114FEA102E4EEA016E10EBFF
:102C60000E0041EB11214FEA104E4EEA014E10EBDF
:102C70000E0041EB1141401841F100014FEAD00034
:102C800040EA41704FEAD10110EB80054FEA810420
:102C900044EA907444EB01046D1944EB0404521BA4
:102CA000A3414FF0000348BF0A3200D530BD401C9D
:102CB00041F1000130BD70472DE9FF4F0C461E4623
:102CC0004FF0FF378BB0D2E90001DDF860800A9049
:102CD0008A46C1F30A5505B93D46002108464FF022
:102CE0000000BAF1000F00F4400005DA00EB8000AC
:102CF0004FF4400101EA50004FEA9059B9F1010F39
:102D000000DDB9460A9850EA4A000ED044F6105049
:102D1000A5F2FF3545432F14B8F1000F1ED07542C0
:102D2000291E1EDDC9F100021CE0B8F1010F4FF0B1
:102D3000000001D0302103E0F24305E02154401CA3
:102D4000B042FBDB30460022002121540B99C1F830
:102D50000880C1E900200FB0BDE8F08FBD1B6D1CDD
:102D6000DEE74A4600DA694206A800F0B3FB06AB8C
:102D700093E8070003AB83E8070050460A9900F088
:102D80006CFC8DE80700A0F500501F3800900398F8
:102D9000002D0ADD42F21F014A460844002303A920
:102DA0000390684600F0D5FE09E0A0F500504A46C1
:102DB0001F38002303A90390684600F0DFFE8DE86A
:102DC00007000004000C03D04FF0FF30410800E082
:102DD0001046B8F1000F03D00022009215461EE005
:102DE000751E05D4FFF722FF303262556D1EF9D5EE
:102DF000B3460122084302D000227F1C04E0207861
:102E0000302801D100227F1E002A099784D01DE0BE
:102E1000112D07DAFFF70AFF303262556D1C50EAB8
:102E20000102F5D1084302D00098C8B10EE000219C
:102E3000681E05E0235C625C63542254401E491CFA
:102E40008142F7DBAB46A81B401E0990002004F826
:102E50000B000B98099AC0F80880C0E9002B7AE7AC
:102E600011264FF0000857E72DE9F04F8846044639
:102E7000D21D22F0070191B0D1E90001CDE90A018C
:102E800001F0B0FB02460B98C00F01D02D2007E0E7
:102E90002068810701D52B2002E0202101EAC00033
:102EA000032A099001D0072A05DB03464146204644
:102EB00000F0D0FA0BE12078800601D5E06900E04F
:102EC0000620B8F1650F814606D0B8F1660F18D01C
:102ED000B8F1670F70D131E00020B9F1110F009007
:102EE00001DB112301E009F101030AAA01A90CA8E1
:102EF000FFF7E2FEDDE90C70002609F101058346CB
:102F000047E001204B4600904FF000470AAA01A974
:102F10000CA8FFF7D1FEDDE90DB00C995D46002647
:102F200010B909F101000D18B9EB050003D4C0F187
:102F3000FF3609F10105A5EB09002BE0B9F1010FFE
:102F400001DA4FF001090020B9F1110F0090484655
:102F500001DD112300E003460AAA01A90CA8FFF72E
:102F6000ABFEDDE90C704D46002683462078000755
:102F70000AD4AB4500DA5D4601A8012D04DD4119F4
:102F800011F8011C302907D04F4502DA17F1040F60
:102F900004DA012082460FE06D1EEEE7002F02DC0E
:102FA000ED1B3E4403E0781CA84200DD7D1CB81BED
:102FB00000F1010A4FF000472078000703D4AA452A
:102FC00001DB4FF0FF3A0021B7F1004F0DF143084C
:102FD0008DF8431024D002202B23002F01DA7F42EA
:102FE0002D230A21021EA0F1010000DC5FB197FB36
:102FF000F1FC97FBF1F201FB1C7C17460CF1300C45
:1030000008F801CDEEE7A8F1010003702188090559
:1030100001D5452100E06521A0F1010800F8011C5F
:1030200009980FA9A1EB0807FF1D00B10120411964
:1030300001EBEA70A1693844081A401EA0612078AB
:10304000C00602D42046FFF79FF9099828B1D4E9B9
:1030500001219047206A401C20622078C00622D5BA
:103060002046FFF791F91EE0002E04DBB34502DD98
:1030700001A8805D00E03020D4E901219047206A5A
:10308000401C2062761CAAF101005FEA000A0AD106
:1030900000F0DCF9C0680168405CD4E90121904788
:1030A000206A401C2062281EA5F10105DCDC07E037
:1030B000D4E9012118F8010B9047206A401C2062D6
:1030C000381EA7F10107F3DC2046FFF773F9032050
:1030D00011B041E62DE9F04F04460D46D21D22F015
:1030E000070089B0D0E900974846394601F07AFADE
:1030F0000246F80F01D02D2307E02068810701D593
:103100002B2302E0202101EAC0038DF820300BB10F
:10311000012000E00020032A824601D0072A04DBB8
:103120002946204600F096F93FE12078800601D438
:103130000D2500E0E569C7F30A560D2D49DA002197
:103140004FEA175B08464FF00000002F00F44000E4
:1031500007DA00EB80004FF4400100EBD07001EA89
:1031600060008115012901DD4FF0FF3100224FEA97
:10317000850CBCF1180F06D31346ACF118004FF0C4
:103180008052C24003E04FF4801323FA0CF30CF199
:103190000C0CBCF1200F04D3ACF1200C09FA0CF09C
:1031A00001E007FA0CF000294FF0004801DD18B9E2
:1031B0000FE00ED140450CD319EB02095F4121B954
:1031C000404502D19F4329EA0209BBEB175F00D0BB
:1031D000761C2088000502D57B48784402E07A48B6
:1031E0007844193808AA302302F80A30037C0AF11F
:1031F0000101002E0AF1020A53546A4602DC4FF024
:10320000300101E04FF031014FF001088DF800105E
:1032100002D0A6F2FF3603E059EA470100D06B4E18
:10322000002D02DC2178090704D54FF002082E2179
:103230008DF80110C44600210BE0C7F303433F01A2
:10324000C35C491C6D1E02F80830052908F101080D
:1032500001DA002DF1DC00210CE000EB1973491CB0
:103260001B786D1E082902F808304FEA091908F189
:10327000010801DA002DF0DC21688B0602D516E08A
:10328000A8F10108E04505DD02EB080313F8013C55
:10329000302BF5D0B8F1000F09DD02EB080313F86D
:1032A000013C2E2B03D1090701D4A8F10108002D00
:1032B00005DD3E2102F808106D1E08F10108407C72
:1032C000002E02F8080008F1010804DA2D207642E9
:1032D00002F8080002E02B2002F808000A214FF44F
:1032E0007A70864208F101080BDB96FBF0F330336D
:1032F00002F8083096FBF0F308F1010800FB1366B2
:1033000001E0642E0CDB642096FBF0F3303302F80E
:10331000083096FBF0F308F1010800FB136601E0AA
:103320000A2E06DB96FBF1F0303002F8080008F1B7
:10333000010896FBF1F001FB1060303002F8080044
:10334000A16908F1010808EB050202EB0A00081A5E
:10335000A0612078C00602D42046FFF715F8216A44
:1033600008AE01EB0A00206204E0D4E9012116F85E
:10337000010B9047BAF1010AF7D22078C00602D5B6
:103380002046FFF701F86E4609E016F8010B3E28CB
:103390000FD0D4E901219047206A401C2062B8F187
:1033A0000108F2D22046FFF705F809B00320BDE876
:1033B000F08F206A2844206203E0D4E90121302004
:1033C00090476D1EEBD3F8E7C18F010002FCFFFFB1
:1033D00010B5436913B1AFF3008001E0FFF752FB72
:1033E000012010BD128800F1240182840022C284D1
:1033F0000122EDE711684FF0FF32E9E770B516469C
:103400000C46054600F01AF8036893F801010128FC
:1034100006D0FF2C0FD8185D68B101202C7070BD4C
:10342000D3F807013246214603F207130344284626
:10343000BDE8704018474FF0FF3070BD10B500F088
:1034400005F8001D10BD00BF496501000048704728
:103450003CE381002DE9F0411F4604460326016844
:10346000072A01F4006004DB08B116A505E016A5E3
:1034700003E008B115A500E015A521F010002060BB
:10348000A069C01EA0610FB1401EA0612046FEF7DA
:103490007BFF4FB1D4E9012138469047206A401C98
:1034A0002062C01C206206E0206AFAE7D4E901210C
:1034B00015F8010B9047761EF8D22046FEF77AFFEA
:1034C000BDE8F0814E414E006E616E00494E4600EF
:1034D000696E66002DE9F047814616468AB0354888
:1034E00078440DC88DE80D0032487844801C03AC48
:1034F0000DC884E80D0041F69B300844372190FB4D
:10350000F1F290FBF1F5A5F1800501FB12041B3CE3
:1035100002D56442012000E00020DFF898A0804638
:103520000027FA44AAF1BE0A0EE0E0070AD03246AC
:10353000684607EB470101230AEB810100F01EFBFF
:103540008DE8070064107F1C002CEED1194F7F44DA
:10355000AE3F19E0E80715D007EB04100DF1180A8B
:1035600090E80E008AE80E00C068F04201D1981978
:1035700008903246012306A903A800F0FFFA03AB26
:1035800083E807006D10641C002DE3D14FF00103A8
:1035900032466946B8F1000F03A802D000F0D9FA0C
:1035A00001E000F0EBFAC9E90001C9F808200AB00F
:1035B000BDE8F0874C8D010010B50446AFF30080E4
:1035C0002046BDE81040FEF74DBE00004FF0013C24
:1035D00050F8042B51F8043B9A4221D1A2EB0C0382
:1035E000934313EACC1317D150F8042B51F8043B42
:1035F0009A4215D1A2EB0C03934313EACC130BD1DF
:1036000050F8042B51F8043B9A4209D1A2EB0C0369
:10361000934313EACC13DBD04FF00000704700BF98
:10362000D01A01BAB1FA81F101F0180122FA01F0C1
:10363000CB40C1F12001DBB2C0B2C01A2CFA01F3B9
:10364000D11A914311EAC311E6D1704701491820FC
:10365000ABBEFEE72600020070475FEA400C08BFE1
:1036600091F0000F4FEA8C234FEAC12243EA5151F7
:103670004FEA1C5018BF00F5F0404FEA300018BF69
:1036800041F000415FEA6C5C00F02980BCF1FF3F33
:1036900008BF40F080407047130C06BF12044FF083
:1036A000100C4FF0000C130E04BF12020CF1080CAA
:1036B000130F04BF12010CF1040C930F04BF92000E
:1036C0000CF1020CD30F04BF52000CF1010C114697
:1036D0004FF00002A0F11F00A0EB0C00704711F0AA
:1036E000004F08BF704731F000413FF4D5AF0B0CDD
:1036F00006BF09044FF0100C4FF0000C0B0E04BF76
:1037000009020CF1080C0B0F04BF09010CF1040CA9
:103710008B0F04BF89000CF1020CCB0F04BF4900D2
:103720000CF1010CCCF12003A0EB0C0022FA03F306
:1037300002FA0CF241EA030100F10100704720F0A7
:103740007F4C80EA030023F07F47ACEB070303F5CF
:103750007C5300F0004003F1FF032DE980494FEA5C
:10376000154B09B44FEA144325EA0B4E24EA0348EB
:103770000FF2042606EB132749083E785FEA32026F
:1037800003FB0667C7F5000707FB06F64FEA543749
:103790004FEAD64606F1020607FB066CCCF1005C48
:1037A0004FEA1C472CEA074C07FB06F40CFB06F516
:1037B00004EB15464FEA961634BF00204FF0004048
:1037C0004FEAD13706FB07FC4FEA1C4C0CFB0BF70A
:1037D000D21B03FB0CF761EB07010CFB0EF7B0EB00
:1037E000074072EB17420CFB08F734BFA2EB07420D
:1037F000B2EB074261EB17414FEA0C444FEA9107E5
:1038000006FB07FC4FEA1C4C0CFB0BF7B0EBC74068
:1038100072EB573203FB0CF734BFA2EBC742B2EB9B
:10382000C74261EB57310CFB0EF7B0EBC70072EBF0
:1038300057720CFB08F734BFA2EBC702B2EBC7020A
:1038400061EB5771039F4FEA816141EA921104EBEA
:10385000CC044FEAD1374FEA826206FB07FC42EA0A
:1038600090124FEA80604FEA1C4C0CFB0BF7D21B06
:1038700003FB0CF761EB07010CFB0EF7B0EB074005
:1038800072EB17420CFB08F734BFA2EB0742B2EB16
:10389000074261EB17414FEA8C554FEA910704EB61
:1038A0009C2406FB07FC4FEA1C4C0CFB0BF7B0EB0F
:1038B000C74072EB573203FB0CF734BFA2EBC74291
:1038C000B2EBC74261EB57310CFB0EF7B0EBC70010
:1038D00072EB57720CFB08F734BFA2EBC702B2EBD6
:1038E000C70261EB577115EB4C254FEA816141EA44
:1038F00092114FEA82624FEAD13742EA901206FBF8
:1039000007FC44F100044FEA80604FEA1C4C0CFBBA
:103910000BF7D21B03FB0CF761EB07010CFB0EF757
:10392000B0EB074072EB17420CFB08F734BFA2EB79
:103930000742B2EB074261EB174115EB1C154FEA4A
:10394000813141EA92414FEA823242EA90424FEAA3
:1039500080304FEA0C7644F1000448EA03434EEA13
:103960000B484FF0000EB2EB080C71EB030724BFBD
:10397000624639464EEB0E0E4FF0000B00185241D6
:1039800049414BEB0B0BB2EB080C71EB03077BF1DE
:10399000000B24BF624639464EEB0E0E4FF0000B73
:1039A0000018524149414BEB0B0BB2EB080C71EB89
:1039B00003077BF1000B24BF624639464EEB0E0E27
:1039C00051EA020718BF46F0010616EB0E7655F1D4
:1039D000000254F1000103D5BDE88901BDE800886B
:1039E000BDE88901BDE80048B619524141EB01012B
:1039F000A3F10103704780807F7E7D7C7B7A79789C
:103A0000777676757473727171706F6E6E6D6C6CA3
:103A10006B6A6A6968686766666564646363626145
:103A20006160605F5F5E5E5D5D5C5C5B5B5A5A59C6
:103A30005958585757565655555554545353525232
:103A40005251515050504F4F4F4E4E4D4D4D4C4C8A
:103A50004C4B4B4B4A4A4A494949484848474747D3
:103A60004746464645454544444444434343434210
:103A7000424242414141002B9C4630D477002BD03A
:103A80001CB54FEA370703B44FF010004FF0100198
:103A9000BAF1000F06D0BCF1000FDCBF40F0080007
:103AA00040F008014FF000000FBCBDE810400BF1E2
:103AB000010BBBF1010F08BF5FEA170722BF12F12C
:103AC000010211F101014FF0004143F1000300F048
:103AD000004043EA00007047F9D35708D0E746EAB0
:103AE000064613F1400F4FEA16461FDD13F1200F73
:103AF000DFBF16430A46002120335B42BED0C3F12C
:103B0000200746EA064602FA07F74FEA164646EA53
:103B10000706C3F1200722FA03F201FA07F721FA98
:103B200003F14FF0000342EA0702A7E746EA020664
:103B300046EA06464FEA164646EA0106BCBF46EA92
:103B40000646360C4FF000034FF000024FF0000124
:103B500094E72DE9804C9A46934670B491E838007A
:103B600007C831EA400C48BF34EA430C03D5FFF7DD
:103B7000E6FDFFF780FFF0BCBDE8008C2DE9804C2E
:103B80009A46934670B491E8380007C810F0804F09
:103B900008BF13F0804F03D100F005F8FFF76BFF6B
:103BA000F0BCBDE8008C20F07F4780EA030023F0E2
:103BB0007F4C07EB0C03A3F57C5300F00040A3F10E
:103BC000FE0392F0000F00F0B38095F0000F00F0BC
:103BD00077802DE901494FEA11404FEA144621EA66
:103BE000004800FB06FC24EA064708FB06F607FB34
:103BF00008F800FB07F718EB06484CEB164C4FEAA9
:103C0000124B18EB07484FEA15464CEB174022EAD7
:103C10000B4E0BFB06FC25EA06470EFB06F607FBE0
:103C20000EFE0BFB07F71EEB064E4CEB164C4FF04F
:103C300000061EEB074E4CEB174B18EB0B0840F140
:103C4000000018EB0E0B58EB000840F100008F1A33
:103C50004FF000013CBFC943661B14BFB5EB040C19
:103C600000213CBFC943F61B4FEA17444EEA8E0EB3
:103C700027EA04454FEA1C4704FB07622CEA074C7D
:103C800005FB07F70CFB05F604FB0CFC16EB0746DF
:103C900042EB174216EB0C4642EB1C421BEB0606AE
:103CA00058EB0202414146EA9E0601D5BDE8018972
:103CB000B619524141EB0101A3F10103BDE80189AD
:103CC0004FEA14454FEA114724EA054621EA074C1A
:103CD00005FB07F406FB07F70CFB06F105FB0CFCE4
:103CE00011EB074144EB17444FEA124711EB0C412B
:103CF00044EB1C4422EA074C05FB07F206FB07F7DE
:103D00000CFB06F605FB0CFC16EB074642EB1742D4
:103D100016EB0C4642EB1C456A1854F1000148BFF3
:103D20007047B619524141EB0101A3F101037047FD
:103D300095F0000F37D04FEA11424FEA144721EABD
:103D4000024624EA074C02FB07F106FB07F70CFBCF
:103D500006F402FB0CFC14EB074441EB17414FEA5D
:103D6000154714EB0C4441EB1C4125EA074C02FBC0
:103D700007F506FB07F70CFB06F602FB0CFC16EB3F
:103D8000074645EB174516EB0C4645EB1C4212194E
:103D900051F1000148BF7047B619524141EB010192
:103DA000A3F1010370474FEA14454FEA114724EA93
:103DB000054621EA074C05FB07F106FB07F70CFB5C
:103DC00006F24FF0000605FB0CFC12EB074241EB3C
:103DD000174112EB0C4251EB1C4148BF704792183F
:103DE00041EB0101A3F10103704710B515F0E2F8B2
:103DF000BDE8104010F068BE704700000249096835
:103E000001F007010170704704C500A030B4062816
:103E100021D212490A6802F00702824212D00A68CF
:103E20000F4B1A400F4C22430A6000BF00BF00BF77
:103E300000BF0A681A400C4B024333F8203042EAB4
:103E400083420A600849183951F820000749086080
:103E500030BC75F4CF9030BC7047000004C500A0A2
:103E6000F8FFE3FF0500080094A90101204080004D
:103E700004480068044900F0070051F82000034995
:103E80000860704704C500A07CA9010120408000A3
:103E90000448006800F48070002801D112F0A6BD2B
:103EA0007047000078C500A010B505A004F02AFBFB
:103EB000084804F027FBBDE8104007A004F022BB2F
:103EC0005B4251425F434845434B5F535441525418
:103ED0005D00000070CC01015B4251425F434845E8
:103EE000434B5F454E445D0A0000000010B505A03D
:103EF00004F008FB084804F005FBBDE8104007A0EB
:103F000004F000BB5B4251425F434845434B5F5363
:103F1000544152545D000000C8C701015B42514248
:103F20005F434845434B5F454E445D0A0000000037
:103F300010B508A004F0E6FA0B4804F0E3FA0B48C9
:103F400004F0E0FA0A4804F0DDFABDE8104009A0E8
:103F500004F0D8BA5B4251425F434845434B5F533C
:103F6000544152545D000000D0C601014CC701010C
:103F7000F4CB01015B4251425F434845434B5F45EF
:103F80004E445D0A0000000010B505A004F0BAFA26
:103F900008A004F0B7FABDE810400EA004F0B2BAD1
:103FA0005B4251425F434845434B5F535441525437
:103FB0005D000000555549443D20273138303127F8
:103FC0004F2068616E646C653D2730303131274F7A
:103FD000000000005B4251425F434845434B5F4550
:103FE0004E445D0A0000000008F012BE08F010BE4A
:103FF00008F00EBE08F00CBE08F00ABE08F008BEBD
:1040000070B50D4E0D4C3088001B85B20CA004F02D
:1040100079FA04EB55010020087021460DA004F048
:1040200071FA0DA004F06EFA4FF480612046FEF79D
:1040300025FC346070BD00007C428000C0638100BC
:104040005B4251425F434845434B5F535441525496
:104050005D000000257300005B4251425F4348450C
:10406000434B5F454E445D0010B505480121C170CA
:1040700081716AF41BD2BDE8104003F02DBD000031
:10408000A440800010B566F42FD206484468002C86
:1040900006D005A004F036FAA446BDE810406047FB
:1040A00010BD00007C4881007374617274206164EB
:1040B000762067617300000010B506480121C170C9
:1040C0000721817141716AF4F1D1BDE8104003F01C
:1040D00003BD0000A440800008F09ABD08F098BD20
:1040E00008F096BD08F094BD08F092BD024890F823
:1040F0007E1202A004F006BA884280005B41505054
:104100005D5B4251425D5B4251425F434845434BD8
:104110005F53544152545D253032585B4251425FE7
:10412000434845434B5F454E445D0A0010B5064881
:104130000121C1700721817141716AF4B7D1BDE8D5
:10414000104003F0C9BC0000A440800010B505A0D9
:1041500004F0D8F9084804F0D5F9BDE8104007A0EC
:1041600004F0D0B95B4251425F434845434B5F5333
:10417000544152545D00000070CC01015B42514239
:104180005F434845434B5F454E445D0A00000000D5
:1041900010B505A004F0B6F908A004F0B3F9BDE825
:1041A000104014A004F0AEB95B4251425F43484551
:1041B000434B5F53544152545D000000417474728C
:1041C00069627574652048616E646C65203D2027C6
:1041D00030303031274F205365636F6E64617279E0
:1041E0002053657276696365203D20274130304455
:1041F000274F00005B4251425F434845434B5F45B8
:104200004E445D0A0000000010B50AA004F07AF9DF
:104210000D4804F077F90DA004F074F905A004F03E
:1042200071F90F4804F06EF9BDE8104007A004F0E2
:1042300069B900005B4251425F434845434B5F53BD
:10424000544152545D000000FCCA01015B425142DE
:104250005F434845434B5F454E445D0A0000000004
:1042600078CB010110B505A004F04CF908A004F0CA
:1042700049F9BDE8104011A004F044B95B42514235
:104280005F434845434B5F53544152545D00000027
:1042900048616E646C653D273733274F2063686142
:1042A00072616374657269737469632076616C7599
:1042B000653D2730303033274F0000005B425142CC
:1042C0005F434845434B5F454E445D0A0000000094
:1042D00010B505A004F016F908A004F013F9BDE824
:1042E000104011A004F00EB95B4251425F434845B3
:1042F000434B5F53544152545D00000048616E646B
:104300006C653D273133274F2063686172616374A8
:10431000657269737469632076616C75653D2730D9
:10432000303030274F0000005B4251425F43484528
:10433000434B5F454E445D0A0000000010B505A0E8
:1043400004F0E0F808A004F0DDF8BDE8104011A08A
:1043500004F0D8B85B4251425F434845434B5F533A
:10436000544152545D00000048616E646C653D2705
:104370003635274F206368617261637465726973B3
:104380007469632076616C75653D27303030302765
:104390004F0000005B4251425F434845434B5F453D
:1043A0004E445D0A0000000010B505480121C170AF
:1043B00081716AF47BD0BDE8104003F08DBB000032
:1043C000A440800010B505A004F09CF8084804F053
:1043D00099F8BDE8104007A004F094B85B42514240
:1043E0005F434845434B5F53544152545D000000C6
:1043F0003CC901015B4251425F434845434B5F4525
:104400004E445D0A0000000010B505A004F07AF8E3
:10441000084804F077F8BDE8104007A004F072B82F
:104420005B4251425F434845434B5F5354415254B2
:104430005D0000001CCA01015B4251425F434845D8
:10444000434B5F454E445D0A0000000010B505A0D7
:1044500004F058F8084804F055F8BDE8104007A0EB
:1044600004F050B85B4251425F434845434B5F53B1
:10447000544152545D0000008CCA01015B4251421C
:104480005F434845434B5F454E445D0A00000000D2
:1044900010B505A004F036F8084804F033F8BDE87C
:1044A000104007A004F02EB85B4251425F434845DC
:1044B000434B5F53544152545D000000ACC90101AD
:1044C0005B4251425F434845434B5F454E445D0A62
:1044D0000000000010B505A004F014F8084804F02E
:1044E00011F8BDE8104007A004F00CB85B4251423F
:1044F0005F434845434B5F53544152545D000000B5
:10450000CCC801015B4251425F434845434B5F4584
:104510004E445D0A0000000010B505A003F0F2FF54
:10452000084803F0EFFFBDE8104007A003F0EABF22
:104530005B4251425F434845434B5F5354415254A1
:104540005D0000003CC901015B4251425F434845A8
:10455000434B5F454E445D0A0000000010B505A0C6
:1045600003F0D0FF084803F0CDFFBDE8104007A0DE
:1045700003F0C8BF5B4251425F434845434B5F5322
:10458000544152545D0000001CCA01015B4251427B
:104590005F434845434B5F454E445D0A00000000C1
:1045A00010B505A003F0AEFF084803F0ABFFBDE86F
:1045B000104007A003F0A6BF5B4251425F4348454D
:1045C000434B5F53544152545D0000008CCA0101BB
:1045D0005B4251425F434845434B5F454E445D0A51
:1045E00000000000490050EAC12018BF04204A0D15
:1045F00018BF40F0010040F2FF72B2EB515F08BFFC
:1046000040F00200012808BF05207047002809DBA0
:1046100000F01F02012191404009800000F1E020DC
:10462000C0F880127047002804DB00F1E02090F809
:104630000004704700F00F0000F1E02090F8140D26
:104640007047002804DB00F1E02090F80004704778
:1046500000F00F0000F1E02090F8140D704700000A
:1046600002480068C0F30220704700000CED00E033
:1046700030380A2801D2012070470020704700001E
:104680002DE9F05F06460F4691464FEA5904A046D1
:104690003D46DFF8E4A1DFF8E4B1EFF3108001213B
:1046A00081F31088DBF8A41221F02001CBF8A412CA
:1046B000A0B3012080F31088EFF31080012181F373
:1046C0001088DBF8A01221F02001CBF8A01250B323
:1046D000012080F31088DAF8000020F08040CAF84A
:1046E00000006748CAF800003F20DBF8001160F3C3
:1046F0000501CBF80011DAF8000020F4601040EA60
:10470000C640CAF80000DAF8000020F4E02040EAD1
:104710000640CAF80000052E09D00EE0FFE7002091
:1047200080F31088C8E7002080F31088D3E7DAF818
:10473000000040F40040CAF80000062E05D1DAF867
:10474000000040F48040CAF80000DAF8000040F4AD
:104750000050CAF80000DAF8000020F06050CAF8F3
:104760000000DAF8000020F00F0040F00300CAF863
:104770000000EFF31080012181F310883E493831A9
:104780000A6822F0E04242F080420A6048B101200B
:1047900080F31088DAF8000040F08040CAF800008A
:1047A00005E0002080F31088F4E7DBF80000DBF878
:1047B0000401C0F300200028F7D1EFF3108001229C
:1047C00082F310880A6842F000420A6018B10120A2
:1047D00080F310883EE0002080F310883AE000204B
:1047E0004FF47A7120E088421DD9DAF8000020F0F9
:1047F0008040CAF80000DAF8000040F00040CAF833
:104800000000DAF8000020F00040CAF800000DF0C7
:10481000BBFF1C490868401C086044463D46052013
:1048200077F4EDD139E7401CDBF80421C2F3002214
:10483000002AD8D0DBF8040100F07F01A14200D9A2
:104840002146002003E0DBF8002004C5401C88421C
:10485000F9D3641A002CC2D15FEAC97008D0DBF822
:104860000401C0F300200028F9D0DBF80000288004
:10487000BDE8F05F0DF088BF08C500A000E000A013
:104880000A070807D05680002DE9F04107460E467A
:104890004FF000080024274D0BE004EBC40005EBAB
:1048A0008000801C07223946FDF726FF40B1641CBA
:1048B000E4B22878A042F0D8B8F1000F18D102E095
:1048C0004FF00108F8E728780A21B0FBF1F201FB6C
:1048D00012040A2801D2401C287004EBC40105EB25
:1048E00081003968C0F80210B988C180B9790172B5
:1048F0002B7811A21021002001F40AF33078000770
:104900000BD504EBC40005EB800006F14601BDE8C1
:10491000F0410A301C22FDF73ABF04EBC40005EB5E
:10492000800006F12A01BDE8F0410A301C22FDF7A3
:104930002EBF0000D4BF8100523A313A6164642036
:104940006C746B206974656D2C206E756D203D2034
:1049500025640A002DE9F04104460D46154F164E18
:10496000002213462046294615F00AFB0FD830686E
:10497000C0F34120012808D0386C401C38643068EE
:1049800020F4C06040F400703060BDE8F081002287
:104990000A4B2046294615F02DFCF6D8306810F455
:1049A000C06FF2D0F86B401CF863306820F4C06030
:1049B0003060EAE76C4E80000CC500A00000244087
:1049C000014876F459970000BC4C800006460F461B
:1049D000154672B63846FDF7BBFE402801D9402087
:1049E00002E03846FDF7B4FE80463046FDF7B0FEE3
:1049F000402801D9402002E03046FDF7A9FE0446D8
:104A00009C211048FDF75CFF424639460D48FDF7F2
:104A1000BEFE0C48224631465C30FDF7B8FE094820
:104A20004FF0AA31016445644FF0BB3181644FF00F
:104A3000CC3101654FF0DD318165002000F004F8D4
:104A4000FEE7000014BE810030B5ADF20C4D044607
:104A50004FF4806103A8FDF733FF184D202085F83F
:104A60003F0085F89B003CB12846012C436DC26C89
:104A700009D0022C0CD00FE0104A11A15C3203A81F
:104A8000FDF750FC08E011A103A8FDF74BFC03E083
:104A900016A103A8FDF746FC03A90BA2686CCDE99B
:104AA0000121009018A3054A18A1002001F0EAFB9B
:104AB00001F0B8FB0DF20C4D30BD000014BE8100BA
:104AC0005B4552524F525D20257300005B574152A7
:104AD0004E494E475D20506172616D303A25642C1D
:104AE000506172616D313A25640000005B504152A3
:104AF000414D5D20506172616D303A25642C5061EA
:104B000072616D313A256400000000006170705FD1
:104B10006173736572742E630000000006460F46D1
:104B200090461D4672B64046FDF712FE402801D958
:104B3000402002E04046FDF70BFE04469C210D4854
:104B4000FDF7BEFE224641460A48FDF720FE094811
:104B50004FF05531016445644FF066318164C6649D
:104B60004FF0773101654765C94381650220FFF742
:104B70006BFFFEE714BE81002DE9F04106460F46AB
:104B800090461D464046FDF7E3FD402801D94020F0
:104B900002E04046FDF7DCFD04469C210D48FDF790
:104BA0008FFE224641460B48FDF7F1FD09484FF0C4
:104BB00011310164456449008164C6644FF03331AA
:104BC000016547654FF044318165BDE8F041012042
:104BD000FFF73ABF14BE8100082808D200EB40015D
:104BE000044800EB4110017809B1001D7047002016
:104BF0007047000064BB80002DE9F04706468946F7
:104C000000244FF0FF3847460121002E6ED0307847
:104C100080B101280ED002280CD003280AD0042825
:104C200008D0052806D0062804D0072802D0404620
:104C3000BDE8F087EFF31083012282F310882D4D39
:104C4000944604EB440205EB421292F800A0BAF13C
:104C5000000F03D092F804A082450DD104EB44006C
:104C600005EB401090F82D00022803D0274682F86B
:104C700000C005E0082403E0641CE4B2082CE0D383
:104C800053B1012080F31088082C2FD2DFF868A0E0
:104C90009AF8000020B10BE0002080F31088F3E7C1
:104CA0008AF800C00321154810F052FBAAF8020050
:104CB00004EB440105EB41153078287105F108003B
:104CC0002422311DFDF7A8FD0D4868630D48E863F7
:104CD00000202864C5F85C90032001F41BF1032038
:104CE00001F41AF1281D0BF06BFA014601B1474699
:104CF00038469DE764BB800064408000ACA9010198
:104D000075E90001F5E8000110B5ADF5047D044634
:104D10004FF4007104A8FDF7D3FD207810B10128ED
:104D200019D01DE000211748A28830F831309A428E
:104D300007D100EBC10014A1436804A8FDF7F2FA03
:104D40000EE02B2902D0491CC9B2EEE714A104A839
:104D5000FDF7E8FA04E01DA104A86268FDF7E2FA95
:104D600004A921A22069CDE901210090D4E9022300
:104D70001EA1002001F086FA01F054FA0DF5047D21
:104D800010BD0000C84C80004572726F7220636FC6
:104D90006465203078253034583A202573000000AF
:104DA0004572726F7220636F6465203078253034ED
:104DB000583A204E6F20666F756E6420696E666F7C
:104DC000726D6174696F6E2E0000000028257329D2
:104DD000206973206E6F742065737461626C6973EF
:104DE0006865642E00000000257300006170705F2C
:104DF0006572726F722E630001A003F083BB000026
:104E00005B4150505D6170705F6761705F61647697
:104E10005F646174615F7570646174655F63623A59
:104E200020737461747573203D20307825780A0DE5
:104E30000A00000070B5ADF5825D04460EAD41F28A
:104E400008012846FDF73CFDDD208DF838000120E3
:104E50008DF8390002208DF83A0020788DF82E0068
:104E600060788DF82D00D4F802000990E088ADF844
:104E70002800207A8DF82A00207C8DF82B00607C99
:104E80008DF82C00A07C8DF82F00E07C8DF8300090
:104E9000207D8DF83100E08AADF83200207E8DF85B
:104EA0003400608BADF83500132209A9681DFDF7A9
:104EB0006EFC628B14A804F11C01FDF768FC608B8A
:104EC0001330ADF83B00401D81B2284606F03CF897
:104ED0000DF5825D70BD00007CB505460C4621468F
:104EE0000BA003F00FFBDD228DF8002001228DF8CE
:104EF000012028228DF802200222ADF803208DF82F
:104F000005408DF806500721684606F01DF87CBD67
:104F10005B4150505D6170705F6761705F61647686
:104F20005F73746172745F63623A20737461747545
:104F300073203D20307825780A0D0A007CB506469E
:104F40000D46144621460DA003F0DCFADD218DF854
:104F5000001001218DF801102A218DF80210032183
:104F6000ADF803108DF805508DF806408DF80760F8
:104F70000821684605F0E8FF7CBD00005B41505009
:104F80005D6170705F6761705F6164765F73746F9D
:104F9000707065645F63623A20726561736F6E2042
:104FA0003D20307825780A0D0A00000010B5ADF5D7
:104FB000825D0BA003F0A6FADD208DF838000120F9
:104FC0008DF8390080218DF83A10ADF83B008DF84E
:104FD0003D0006210EA805F0B7FF0DF5825D10BD5E
:104FE0005B4150505D6170705F6761705F617574A7
:104FF0006F5F636F6E6E656374696F6E5F74696D0A
:10500000656F75745F63620A0D0A00001CB5044683
:10501000214607A003F076FA23464A22012168467A
:1050200004F0CEF90621684605F08EFF1CBD000095
:105030005B4150505D6170705F6761705F636F6E60
:105040006E6563745F63616E63656C5F63623A2073
:10505000737461747573203D20307825780A0D0AC9
:10506000000000002DE9F041ADF5825D05460E46D9
:105070001446314626A003F045FA29462FA003F036
:1050800041FA0EAF41F208013846FDF719FC0DF167
:10509000240814214046FDF713FCDD208DF838006C
:1050A00001208DF8390006218DF83A108DF8246022
:1050B0008DF825008DF826506088ADF82700A0886F
:1050C000ADF82900E088ADF82B00207A8DF82D008E
:1050D000607A8DF82E00D4F80A00CDF82F00E08910
:1050E000ADF83300207C8DF835001222ADF83B205E
:1050F0004146781DFDF74BFB1721384605F024FF8C
:10510000284606F075FA0DF5825DBDE8F0810000D5
:105110005B4150505D6170705F6761705F636F6E7F
:105120006E6563745F63623A207374617475732093
:105130003D20307825780A0D0A0000005B41505070
:105140005D72637620636F6E6E65637420636F6D4E
:10515000706C6574652063622C20636F6E6964787F
:105160003D25640A0D0A00002DE9F041ADF5825D90
:1051700005460E461446314637A003F0C3F90EAF7C
:1051800041F208013846FDF79BFBDD208DF8380021
:1051900001208DF839002078032230B1012815D084
:1051A000022829D003283CD04BE052208DF83A0049
:1051B000ADF83B208DF8306060788DF831008DF8C7
:1051C00032500CA9781DFDF7E2FA3AE054208DF830
:1051D0003A000722ADF83B208DF82460D4F8010096
:1051E000CDF8250060798DF829008DF82A5009A99D
:1051F000781DFDF7CCFA24E056208DF83A00042201
:10520000ADF83B208DF8346060788DF83500A078DB
:105210008DF836008DF837500DA9781DFDF7B7FAD7
:105220000FE058208DF83A00ADF83B208DF82C6047
:1052300060788DF82D008DF82E500BA9781DFDF7A4
:10524000A6FABDF83B00401D81B2384605F07CFE51
:105250000DF5825DBDE8F0815B4150505D6170707D
:105260005F6761705F636F6E6E656374696F6E5FB9
:10527000696E666F5F6765745F63623A207374611D
:10528000747573203D20307825780A0D0A000000DF
:1052900070B5ADF5825D06460D461446294625A03B
:1052A00003F030F90DF5805383F838502188A3F8C6
:1052B00039106188A3F83B10A088A3F83D0083F85B
:1052C0003F60DD208DF8300001208DF8310038205E
:1052D0008DF832000822ADF833200CAC03F1380110
:1052E000601DFDF754FA0D21204605F02DFE00202B
:1052F0000B900A900AA90BA861F458D3002815D185
:1053000019A003F0FFF800240CE00A9800EB041049
:105310008168009101884368C26821A003F0F2F817
:10532000641CE4B29DF82C008442EED30DF5825D3E
:1053300070BD00005B4150505D6170705F676170CF
:105340005F636F6E6E656374696F6E5F75706461C5
:1053500074655F63623A20737461747573203D20D5
:10536000307825780A0D0A005B4150505D53656521
:10537000207468652043757272656E7420436F6E89
:105380006E656374696F6E20506C616E2053697432
:10539000756174696F6E2042656C6F773A0A000020
:1053A0005B4150505D636F6E6E5F696478203D2095
:1053B00025642C206475726174696F6E203D202510
:1053C000642C20696E74657276616C203D202564C2
:1053D0002C206F6666736574203D2025640A0000EA
:1053E00070B5ADF5825D05460C4614A003F08AF851
:1053F0000DF58053218899866188D986A088188701
:10540000E088588783F83C50DD208DF82C0001207F
:105410008DF82D003C208DF82E000922ADF82F20AC
:105420000BAC03F13401601DFDF7B1F90E212046EC
:1054300005F08AFD0DF5825D70BD00005B415050A6
:105440005D6170705F6761705F636F6E6E656374DE
:10545000696F6E5F7570646174655F7265715F63BB
:10546000620A0D0A0000000084B0002860D10878AC
:1054700008285DD2DFE800F0040F1A25303B4651C2
:1054800051F8020F01904B6802938A680392194603
:1054900004B000F0FAB851F8020F01904B68029383
:1054A0008A680392194604B000F0C7B851F8020F99
:1054B00001904B6802938A680392194604B000F089
:1054C0008CB951F8020F01904B6802938A680392DD
:1054D000194604B000F013B951F8020F01904B685F
:1054E00002938A680392194604B000F032B951F869
:1054F000020F01904B6802938A680392194604B028
:1055000000F07AB851F8020F01904B6802938A6854
:105510000392194604B000F084B951F8020F0190CB
:105520004B6802938A680392194604B000F031B9BF
:1055300004B0704770B5ADF5825D04460D46164661
:10554000294615A002F0DEFF21461FA002F0DAFF77
:105550000DF5805181F83C5081F83E4081F83D6066
:10556000DD208DF8340001208DF8350008258DF8F8
:1055700036500322ADF837200DAE3C31701DFDF7DB
:1055800006F92946304605F0DFFC204606F046F8CD
:105590000DF5825D70BD00005B4150505D61707023
:1055A0005F6761705F646973636F6E6E6563745F7C
:1055B00063623A20737461747573203D20307825DE
:1055C000780A0D0A000000005B4150505D7263765E
:1055D00020646973636F6E6E65637420636F6D70B2
:1055E0006C6574652063622C20636F6E6964783D1E
:1055F00025640A0D0A00000037B5ADF5825D0DF592
:105600008051B1F84000C863DD208DF834000120DE
:105610008DF835007A208DF836000222ADF837205B
:105620000DAC3C31601DFDF7B2F80721204605F0B6
:105630008BFC13B00DF5805D30BD37B5ADF5825DE7
:105640000DF5805191F8470081F83E00D1F84100F6
:105650008863B1F845008887DD208DF8300001208F
:105660008DF8310072208DF832000722ADF833201A
:105670000CAC3831601DFDF78AF80C21204605F08E
:1056800063FC13B00DF5805D30BD37B5ADF5825DBF
:105690000DF5805191F8400081F8340091F84100F7
:1056A00081F8350091F8420081F83600B1F84400E5
:1056B000A1F83700B1F84600A1F83900B1F8480068
:1056C000A1F83B00B1F84A00A1F83D00DD208DF8BB
:1056D0002C0001208DF82D0070208DF82E000B225B
:1056E000ADF82F200BAC3431601DFDF750F81021C0
:1056F000204605F029FC13B00DF5805D30BD37B5AF
:10570000ADF5825D0DF58051B1F840000887B1F824
:1057100042004887B1F844008887B1F84600C8873E
:10572000DD208DF8300001208DF8310076208DF8D5
:1057300032000822ADF833200CAC3831601DFDF783
:1057400026F80D21204605F0FFFB13B00DF5805D16
:1057500030BD37B5ADF5825D0DF5805191F8400053
:10576000C863DD208DF8340001228DF835207820C3
:105770008DF83600ADF837200DAC3C31601DFDF7DB
:1057800006F80621204605F0DFFB13B00DF5805D1D
:1057900030BD37B5ADF5825D0DF58051B1F84000F3
:1057A0008887B1F84200C887DD208DF834000120D9
:1057B0008DF835007E208DF836000422ADF83720B4
:1057C0000DAC3C31601DFCF7E2FF0921204605F0DD
:1057D000BBFB13B00DF5805D30BD37B5ADF5825D17
:1057E0000DF58051B1F840008887B1F84200C887B4
:1057F000DD208DF8340001208DF8350074208DF8FF
:1058000036000422ADF837200DAC3C31601DFCF7AA
:10581000BEFF0921204605F097FB13B00DF5805D12
:1058200030BD37B5ADF5825D0DF5805191F8400082
:1058300081F83D0091F8410081F83C00DD208DF8B1
:10584000340001208DF835007C208DF836000222CE
:10585000ADF837200DAC3C31601DFCF798FF0721F7
:10586000204605F071FB13B00DF5805D30BD0000E2
:1058700070B5ADF5825D06460D461446294615A065
:1058800002F040FE0DF5805383F8345083F8356004
:105890002088D88660881887A0885887E0889887ED
:1058A000DD208DF82C0001208DF82D0044208DF88E
:1058B0002E000A22ADF82F200BAC03F13401601D3D
:1058C000FCF765FF0F21204605F03EFB0DF5825DDC
:1058D00070BD00005B4150505D6170705F6761702A
:1058E0005F6C655F706B745F73697A655F696E6624
:1058F0006F5F63623A20737461747573203D20306A
:105900007825780A0D0A00001CB500290ED001295F
:1059100017D0022909D1034618220121684603F055
:105920004FFD0621684605F00FFB1CBD03466A22A9
:105930000121684603F044FD0621684605F004FB9A
:105940001CBD03460A220121684603F039FD0621E9
:10595000684605F0F9FA1CBD2DE9F041ADF5825D10
:1059600005460E461446314626A002F0CBFD0EAF8A
:1059700041F208013846FCF7A3FF00220C920D9279
:105980000A920B92DD208DF8380001208DF8390045
:10599000227812B1012A18D029E04E208DF83A0061
:1059A0000722ADF83B208DF830606088ADF83100FB
:1059B000A088ADF83300A0798DF835008DF8365009
:1059C0000CA9781DFCF7E3FE11E050208DF83A0099
:1059D0000622ADF83B208DF82860D4F80200CDF8FF
:1059E00029008DF82D500AA9781DFCF7D0FEBDF8CE
:1059F0003B00401D81B2384605F0A6FA0DF5825DE8
:105A0000BDE8F0815B4150505D6170705F6761700F
:105A10005F706565725F696E666F5F6765745F630F
:105A2000623A20737461747573203D203078257854
:105A30000A0D0A0001A002F065BD00005B41505054
:105A40005D6170705F6761705F706565725F6E61E8
:105A50006D655F696E645F63620A0D0A0000000095
:105A60002DE9F041ADF5825D06460D461446294606
:105A700015A002F047FD0EAF41F208013846FCF7D1
:105A80001FFFDD208DF8380001208DF839004C20F3
:105A90008DF83A000422ADF83B208DF834508DF893
:105AA000356020788DF8360060788DF837000DA9C4
:105AB000781DFCF76CFE0921384605F045FA0DF516
:105AC000825DBDE8F08100005B4150505D61707007
:105AD0005F6761705F7068795F7570646174655F3E
:105AE00063623A20737461747573203D20307825A9
:105AF000780A0D0A000000007047000070B5ADF58F
:105B0000825D05460C46294614A002F0FBFC0DF50B
:105B1000805181F83850207881F83900D4F801009C
:105B2000C1F83A00B4F80500C887DD208DF83000D0
:105B300001208DF8310086208DF832000822ADF862
:105B400033200CAC3831601DFCF721FE0D212046BE
:105B500005F0FAF90DF5825D70BD00005B41505013
:105B60005D6170705F6761705F72736C765F6164B6
:105B700064725F726561645F63623A20737461741A
:105B80007573203D20307825780A0D0A000000004A
:105B900001A002F0B7BC00005B4150505D7263761B
:105BA000207363616E2072657120696E640A0D0A4C
:105BB000000000001CB50446214607A002F0A2FC2C
:105BC0002346F0220121684603F0FAFB06216846CD
:105BD00005F0BAF91CBD00005B4150505D6170706A
:105BE0005F6761705F7363616E5F73746172745F2E
:105BF00063623A20737461747573203D2030782598
:105C0000780A0D0A000000007CB504460D462946BE
:105C10000BA002F077FCDD228DF8002001228DF828
:105C2000012004228DF802200222ADF803208DF815
:105C300005408DF806500721684605F085F97CBDC2
:105C40005B4150505D6170705F6761705F7363614D
:105C50006E5F73746F707065645F63623A20726523
:105C600061736F6E203D20307825780A0D0A0000A0
:105C700070B5ADF5825D04460D462A46214610A05A
:105C800002F040FC0EAE41F208013046FCF718FE6F
:105C9000DD208DF8380001208DF8390023208DF8A3
:105CA0003A000220ADF83B008DF83D408DF83E50A3
:105CB0000721304605F048F90DF5825D70BD000002
:105CC0005B4150505D6170705F6761705F73746FAE
:105CD000705F73796E635F63623A20696E73745F9D
:105CE000696478203D2025642C2073746174757379
:105CF000203D20307825780A0D0A00002DE9F0417A
:105D0000ADF5825D05460E4614463246294623A06F
:105D100002F0F8FB0DF580510020086348638863AA
:105D2000C8630AAF41F208013846FCF7C9FDDD201F
:105D30008DF8280001208DF8290020208DF82A00F8
:105D40000DF5805181F8305081F83160207881F86C
:105D500032006088A1F83300207981F8350060793D
:105D600081F83600D4F80600C1F837006089A1F840
:105D70003B00207B81F83D00E089C8871022ADF808
:105D80002B203031781DFCF702FD1521384605F037
:105D9000DBF80DF5825DBDE8F08100005B415050FD
:105DA0005D6170705F6761705F73796E635F65736B
:105DB0007461626C6973685F63623A20696E7374C0
:105DC0005F696478203D2025642C207374617475AC
:105DD00073203D20307825780A0D0A0070B5ADF5A6
:105DE000825D044621460EA002F08CFB0EAD41F20E
:105DF00008012846FCF764FDDD208DF838000120FD
:105E00008DF8390082228DF83A20ADF83B008DF8EC
:105E10003D400621284605F097F80DF5825D70BDDE
:105E20005B4150505D6170705F6761705F73796E48
:105E3000635F6C6F73745F63622C20696E73745F51
:105E4000696478203D2025640A0D0A0070B5ADF51F
:105E5000825D05460C4614486288218802F052FB98
:105E60000EAE41F208013046FCF72AFDDD208DF828
:105E7000380004208DF8390015208DF83A0020886C
:105E8000ADF830006088ADF832000C98CDF83D00D8
:105E90008DF841500520ADF83B000A21304605F051
:105EA00053F80DF5825D70BD90C201012DE9F041FE
:105EB000ADF5825D06460D46144629461FA002F048
:105EC00021FB0EAF41F208013846FCF7F9FC002235
:105ED0000A920B920C920D92DD208DF8380004206E
:105EE0008DF8390002208DF83A008DF828508DF891
:105EF00036609DB98DF829502088ADF82A00608859
:105F0000ADF82C00A088ADF82E00E088ADF8300088
:105F10002089ADF832006089ADF834000F22ADF869
:105F20003B200AA9781DFCF732FC1421384605F005
:105F30000BF80DF5825DBDE8F08100005B4150502B
:105F40005D6170705F6C326361705F6C6563625F2E
:105F5000636F6E6E5F63623A206F705F737461741B
:105F60007573203D20307825780A0D0A0000000066
:105F700070B5ADF5825D06460C4619A002F0C2FA76
:105F80000EAD41F208012846FCF79AFC00210B9166
:105F90000C910D91DD208DF8380004208DF839002A
:105FA00006208DF83A002088ADF82C006088ADF806
:105FB0002E00A088ADF83000E088ADF832008DF8F2
:105FC00034600922ADF83B200BA9681DFCF7DFFB0C
:105FD0000E21284604F0B8FF0DF5825D70BD00006B
:105FE0005B4150505D6170705F6C326361705F6CDB
:105FF0006563625F636F6E6E5F7265715F63620A95
:106000000D0A00002DE9F041ADF5825D06460C4613
:1060100015462A462146124802F074FA0EAF41F2A4
:1060200008013846FCF74CFCDD208DF838000420D0
:106030008DF839000C238DF83A308DF83440ADF8E6
:1060400035508DF837600D99CDF83D10ADF83B0017
:106050000921384604F078FF0DF5825DBDE8F08136
:1060600048C2010170B5ADF5825D05460E46144685
:10607000314617A002F046FA002E26D10EAE41F2AC
:1060800008013046FCF71CFC00210C910D91DD202D
:106090008DF8380004208DF8390014208DF83A006E
:1060A0008DF830102088ADF83100A0788DF83300DD
:1060B0008DF834500522ADF83B200CA9701DFCF77B
:1060C00066FB0A21304604F03FFF0DF5825D70BD8E
:1060D0005B4150505D6170705F6C326361705F6CEA
:1060E0006563625F646973636F6E6E5F63623A20BB
:1060F000737461747573203D20307825780A0D0A19
:106100000000000070B5ADF5825D05460C461AA092
:1061100002F0F8F90EAE41F208013046FCF7D0FB70
:10612000DD208DF8380004208DF839000A208DF824
:106130003A002088ADF830006088ADF83200A288BF
:10614000ADF834200C98CDF83D00BDF83400ADF822
:1061500041008DF84350D01DADF83B00A11D11A8A2
:10616000FCF715FBBDF83B00401D81B2304604F042
:10617000EBFE0DF5825D70BD5B4150505D6170704E
:106180005F6C326361705F6C6563625F7364755FDF
:10619000726563765F63620A0D0A00002DE9F041C3
:1061A000ADF5825D05460E461446314622881648F6
:1061B00002F0A8F90EAF41F208013846FCF780FB67
:1061C000DD208DF8380004228DF839208DF83A2032
:1061D0002088ADF830006088ADF832008DF834606A
:1061E0008DF835500C98CDF83D00BDF83400ADF871
:1061F00041000620ADF83B000B21384604F0A4FE18
:106200000DF5825DBDE8F081E0C20101002806D0F5
:10621000002904D0024AD269002A00D010477047F2
:10622000B0BF81000248006A002800D000477047D4
:10623000B0BF810010B50C4900280AD00278032AAB
:106240000FD801228A7601461A220748FCF79FFAE6
:1062500005E0002088761A210348FCF731FB012075
:1062600010BD002010BD0000B0BF8100044A1044E2
:10627000807D084201D00120704700207047000057
:10628000B0BF81002DE9FE4FDDF830B006469246E2
:10629000994600240027019702975A480178B14295
:1062A00002D2807E00287DD10DF13808CDF8008023
:1062B000EFF311850220FEF7C4F901465248006849
:1062C000C0F30220401C012282408818C0B280F333
:1062D000118801213046FFF7C9FF38B14B484C49BE
:1062E00050F82620204600F0ADF804461C21304628
:1062F000FFF7BCFF00285ED046A24549204600F0CB
:10630000A1F8204484B204213046FFF7AFFFF8B172
:1063100052463F49204600F095F8204484B20821B7
:106320003046FFF7A3FF38B13BA23949204600F0C1
:1063300089F8204484B20BE010213046FFF796FF25
:1063400030B136A23249204600F07CF8204484B2B5
:1063500008213046FFF78AFF90B14A462C49204673
:1063600000F070F8204484B210213046FFF77EFF21
:1063700030B12BA22649204600F064F8204484B2B4
:1063800010213046FFF772FF70B15B4626A205214F
:1063900001A8FBF7DDFF01AA1D49204600F052F8D5
:1063A000204400E02BE084B220A21949204600F0EE
:1063B00049F8204484B21648C4F58071204443460D
:1063C0000D9AFBF795FF00974FF48071002804DBCE
:1063D0002044884201DC86B200E00E46B01C8842B0
:1063E00000D9FE2612A20A49304600F02BF83044AC
:1063F00081B20748FFF70AFFE8B280F31188BDE8D1
:10640000FE8F0000B0BF81000CED00E0204E800048
:10641000B0BE810028000000200000003A0000000B
:10642000204C696E653A0000256C6400292000004C
:106430000D0A0000024AD06111620120D076704737
:10644000B0BF810030B50546002000290CD0002ADD
:106450000AD006E02B18FF2B06D8CC54521C401C47
:1064600080B21478002CF5D130BD70B5ADF5825DE9
:1064700005460C460EAE41F208013046FCF720FA04
:10648000DD208DF8380002228DF8392004208DF8A7
:106490003A008DF834408DF83550ADF83B200DA909
:1064A000701DFCF774F90721304604F04DFD0DF521
:1064B000825D70BD70B5ADF5825D04460D460EAED1
:1064C00041F208013046FCF7FBF9DD208DF8380079
:1064D00002228DF8392006208DF83A002B783BB146
:1064E0000322012B10D0022B2CD0032B2AD11AE02F
:1064F00000208DF834008DF83540ADF83B200DA913
:10650000701DFCF744F91DE001208DF8300068781B
:106510008DF831008DF83240ADF83B200CA9701D8C
:10652000FCF735F90EE08DF82820D5F80110CDF8EC
:1065300029108DF82D40ADF83B0002460AA9701DC8
:10654000FCF725F9BDF83B00401D81B2304604F050
:10655000FBFC0DF5825D70BD01A001F0D3BF000012
:106560005B4150505D6B6579206D697373696E672F
:106570002C20726561736F6E203D2025640A0D0A20
:10658000000000007047000010B50B4C4720207041
:10659000607800280ED14FF0E0200069C00701D1DB
:1065A00009F0C4FF01206070BDE8104003210348DA
:1065B0000EF0CEBE10BD000068408000B8A90101F9
:1065C0002DE9F041054688461746002F04D028687B
:1065D00020B10F20BDE8F0810120FBE7EFF311842B
:1065E0000220FEF720F80646FEF73AF8401C01218B
:1065F00081407018C0B280F3118800F061F806463F
:10660000FF2E0FD03A464146304600F02DF9094999
:1066100006EB860001EB80002860E0B280F3118871
:106620000020D7E700202860E0B280F311880B201B
:10663000D0E7000070BC81002DE9F04106463468C7
:10664000002C2AD0EFF311870220FDF7ECFF05465E
:10665000FEF706F8401C012181406818C0B280F3A3
:10666000118800256560AB20607025703560114E83
:106670007068A04219D100F01FF809F021FC78B130
:106680008168F268891AB1607060084675F4E4D4D4
:106690000146012009F064FF07E00120BDE8F08118
:1066A00035707560012072F4E9D2F8B280F3118878
:1066B0000020F3E700BE81000121032009F050BF54
:1066C0000020094900EB800211F822202AB1401C69
:1066D000C0B21428F6D3FF20704700EB80030122DC
:1066E00001F823207047000070BC810010B586B00F
:1066F000094A01210948FFF763FF0446002C09D02D
:106700001422074901A8FCF787F8ADF8084001A852
:10671000FEF7FAFA06B010BD45770001D44B8000B1
:10672000A0B9010110B586B0134A01211348FFF743
:1067300047FF04464CB11422114901A8FCF76CF83C
:10674000ADF8084001A8FEF7DFFA0C480D4A012118
:10675000001DFFF735FF0446002C0AD0142208491B
:10676000143101A8FCF758F8ADF8084001A8FEF76D
:10677000CBFA06B010BD0000C91201010C4C80001C
:10678000B8BA0101295D010110B586B0094A01219D
:106790000948FFF715FF0446002C09D014220749C9
:1067A00001A8FCF739F8ADF8084001A8FEF7ACFAEB
:1067B00006B010BDF5190101344C800000BC010188
:1067C00010B586B0094A01210948FFF7F9FE0446D1
:1067D000002C09D01422074901A8FCF71DF8ADF8D8
:1067E000084001A8FEF790FA06B010BD39DE00019E
:1067F000584C8000D8BC010110B586B0094A01216F
:106800000948FFF7DDFE0446002C09D01422074991
:1068100001A8FCF701F8ADF8084001A8FEF774FAEA
:1068200006B010BD655D0101804C800000BE010115
:1068300010B586B0094A01210948FFF7C1FE044698
:10684000002C09D01422074901A8FBF7E5FFADF899
:10685000084001A8FEF758FA06B010BD8DCA000125
:10686000B04C8000F0BE010100EB8003024800EB59
:10687000830002618170704770BC81002DE9F8438C
:106880000446EFF311850220FDF7CDFE0646FDF725
:10689000E7FE401C012181403144C8B280F31188D9
:1068A000002700973CB16078AA2808D0E8B280F3AE
:1068B0001188BDE8F883E8B280F31188F9E7AB20CE
:1068C00060706760224E7068A0423CD1FFF7F4FE12
:1068D00069464FF0004001F417F375F49BD213F0B2
:1068E000F1FE04460098804613F0ECFE194913F0BF
:1068F000FDFE214613F004FE13F0C4FE0446B8F179
:10690000FF3F07D114496FF0020008601A20FDF71D
:106910007DFE0097B068001BF1680844F06009F044
:10692000CFFA60B18168F268891AB1607060084678
:1069300075F492D30146012009F012FE03E037708E
:10694000012072F49BD1E8B280F31188B1E7000016
:1069500000BE81000024744944C500A0F0B595B084
:10696000044694F835008DF82C000F270C970A2068
:106970000D904FF480100E9000250F95001310908D
:10698000119512951395149500210BA8FEF734F973
:1069900021784D2211FB02F1264E06EB8101A1F870
:1069A0009800002802DA042015B0F0BDFEF714F9B3
:1069B00021784D2211FB02F106EB81010863217859
:1069C00011FB02F106EB8101091DC16294F836004A
:1069D0008DF804000B20029003974FF400100490F0
:1069E000C01205900695079508950995A0200A9074
:1069F000002101A8FEF700F921784D2211FB02F1D8
:106A000006EB8101A1F89A00002801DA0420CBE707
:106A1000FEF7E2F821784D2211FB02F106EB81012D
:106A20004863217811FB02F106EB8101091DC16267
:106A30000020B9E7B8BE8000002000F0CFB8000009
:106A400070B504460D46062209A12046FBF754FE08
:106A500030B12A462146BDE87040002000F056BA09
:106A600022462946BDE8704003A001F04BBD00005E
:106A70004150505F453A0000252E2A730000000067
:106A80007CB50224304B02689A4201D1002403E015
:106A90002E4B9A4200D101248DF800102C4D00227B
:106AA00081B101291DD0022932D003293ED0042909
:106AB00007D14D20444355F82410002901D06846E1
:106AC00088477CBDC06B01904D20444305EB84009A
:106AD00080F8302155F824100029F2D06846884704
:106AE0007CBD018C408C081AADF80400204600F0F3
:106AF000C7F94D20444305EB840090F8300100288D
:106B0000EED155F824100029EAD0684688477CBDAC
:106B1000018D408D081AADF804004D20444355F80E
:106B200024100029F3D0684688477CBD4D2044439B
:106B300005EB840080F8302155F824100029F4D0AA
:106B4000684688477CBD000000C600A000C700A0C2
:106B5000B8BE800070B504464FF4805520780228F6
:106B600010D000282AD116A0616801F0CBFC29467C
:106B70001948FBF783FE2A46BDE8704016490020FD
:106B800000F058B9A188144806F0D4FCA188022965
:106B900009D911480278442A05D14078472802D102
:106BA0000D4869F467D129460B48FBF767FE2A4672
:106BB000BDE870400849002000F03CB970BD0000FD
:106BC0005B4150505D6572725F636F6465203D206C
:106BD00025640A0D0A0000001C9A81002DE9F84383
:106BE0004D21434A414302EB8104271D022878D2FC
:106BF00094F89C00002874D0FFF7C6FC94F89C0021
:106C000001286ED184F8310194F86420012A4DD016
:106C10000025D4E903010144207D00F00100C01DDE
:106C20000E186068C16FC1F380010029FAD0BAB1B3
:106C3000DFF8C0806D1C201D09F0FFFD102808D072
:106C4000A068D8F80010B1FBF0F07043B5EBC01F9E
:106C5000F0D904F1A00630460EF096FE85B21EE093
:106C6000A68CE58C201D1AF45DD3A019411BB03110
:106C7000201D41F288332A461AF4A1D6E9E73046AE
:106C8000012269460EF08AFE6068C16FC1F34001BF
:106C90000029FAD09DF8001001606D1EADB2002DE4
:106CA000EDD130460EF070FE0028D4D16068C16F7F
:106CB000C1F380010029FAD094F8640001280DD0B6
:106CC000EFF31081012080F310883868426842F0A9
:106CD0008202426039B1012080F31088002084F8DC
:106CE0003101BDE8F883002080F31088F6E700004A
:106CF000B8BE8000204080002DE9F04389B00446F2
:106D00000F4615462678002C05D0022E05D3082004
:106D100009B0BDE8F0830520FAE794F834000128B3
:106D200000D09DB1FFF730FC242204F11001684629
:106D3000FBF772FD211DA06C0EC912F099FB002813
:106D4000E6D194F83400022802D014E00420DFE7F2
:106D50000EB10820DCE7EFF31088012080F31088E3
:106D60002046FFF7FBFDB8F1000F49D0012181F368
:106D700010880028CCD194F83400DFF8AC800128CA
:106D80000FD04D2306FB03F008EB800006CDA030AA
:106D90000EF0EEFD254DA857FFF7BCD8A857FFF71A
:106DA000BBD84D2206FB02F008EB800514F8341F17
:106DB000814605F8641FA078A8706078343C68703C
:106DC000643D05F168003022211DFBF725FD48F8E0
:106DD000297005F10800182204F13801FBF71CFDA9
:106DE0001248001D50F826006860281D09F00AFDB1
:106DF000281D09F02BFD0E4C0126207820B10EE055
:106E0000002181F31088B4E726700848032114306C
:106E10000EF09EFA6080002801DA042078E785F8F9
:106E20009C60002074E70000B8BE8000C4A9010186
:106E30006A40800010B503460020022B11D281B1B8
:106E40007AB14D2463430D4C04EB830393F89C40CB
:106E50003CB193F8644034B1012C0BD0022C09D121
:106E600005E0042010BD181D1AF41ED502E0181DFF
:106E70001AF49CD40028F5D110BD0000B8BE8000E3
:106E80002DE9F04105464D201F49684301EB800480
:106E900004F1A00630460EF077FD82B2174692B19B
:106EA00094F8310101280ED04D204543164800EBDF
:106EB0008505B035802A0BD32946304680220EF056
:106EC0006DFD802708E0002084F83001BDE8F081E6
:106ED000294630460EF062FD94F8640010B1022895
:106EE0000FD107E02946201D3A461AF4E9D50028BB
:106EF000ECD106E02946201D3A461AF49BD500281D
:106F0000E4D10020E2E70000B8BE800070B505467D
:106F1000022D11D281B17AB14D20144B684303EB9D
:106F2000800494F89C0038B104F1A0000EF07AFDC2
:106F300094F8300110B117E0042070BD94F83101CD
:106F400090B994F89C0001280ED16068D0F89800A0
:106F500050B1012084F830012846FFF791FF18B1A5
:106F6000002184F8301170BD002070BDB8BE8000D3
:106F70002DE9F04106460C46174604F10805204667
:106F80006EF41AD4C3B21B48E1184268914202DD84
:106F90000320BDE8F0811849184A006809681268A2
:106FA000891A081A001FE91881421CD94FF40045BC
:106FB00013A229460020FEF7ABDF06F04FFC30B1EC
:106FC00018A229460020FEF7A3DF0820E1E71DA252
:106FD00029460020FEF79CDF3A4621463046BDE8B0
:106FE000F04112F007BC3A4621463046BDE8F04178
:106FF00012F000BCD8328000D0238000CC23800067
:10700000523A353A4E564453206172656120697395
:10701000206265696E6720636F6D7061637465647B
:107020002E0D0A00523A353A436F6D7061637469F0
:107030006E67204E564453206661696C65640D0A84
:1070400000000000523A353A436F6D706163746915
:107050006E67204E56445320737563636573736681
:10706000756C0D0A000000007CB50D4600220092F0
:1070700001926946FEF752DF044634BB4FF42051BB
:107080006846FEF74DDFB8B942F601016846FEF7E3
:1070900047DF88B942F603016846FEF741DF58B979
:1070A00042F602016846FEF73BDF28B94FF424514F
:1070B0006846FEF735DF08B1062406E00098C5F300
:1070C0000B01808808430099888020467CBD000021
:1070D0002DE9F04105460C46FF26217A1E2905D0F0
:1070E00022480279521E52B200683AE004F10801C7
:1070F0002846FEF717DF064635E010F832308B429F
:107100002DD11B4E56F82500406F30B300273B466B
:1071100018A240210020FEF7FBDE062000EB052030
:1071200029F428D1C00605D5002717A24021002048
:10713000FEF7EEDE21460C3956F825007430FEF7D6
:10714000F3DE0020A08001266FB115A24021FEF7DA
:10715000DFDE2846FEF7EADE05E00127D7E7521E0C
:1071600052B2002AC9DA3046BDE8F0817C058000C1
:10717000C40E8000523A333A657865637574653D94
:10718000307825780A000000523A333A636F6E6E09
:10719000656374206E6F742063666D0A00000000E2
:1071A000523A333A7374617274206578656375740A
:1071B000650A00000348024901600D2141607047E3
:1071C000C8C001017C0580002DE9FF5F81460F46A4
:1071D0000024A246CDF808A0CDF80CA0584850F8DD
:1071E00029006030FEF7A4DE80463D1F798828889C
:1071F000544BCDE9001054A240210020FEF788DE58
:107200002888E8BB4846FEF795DE401E2880002609
:1072100011E007EB460002AB828800214846FEF7EA
:107220008BDEC4B2CDF808A0CDF80CA00CB1B046EE
:107230003BE0761CB6B27888B042EAD835E007EB7E
:1072400048006B46818801AA4846FEF777DEC4B243
:107250003CBBBDF804002988884200D3084686B2AA
:10726000022106F1080028F42FD68346ABF804600B
:1072700032460BF106000099FBF789FA304800E02E
:1072800013E050F8290059466030FEF74DDE4846BD
:10729000FEF756DE2888801B288008F101081FFAB7
:1072A00088F8CDF808A0CDF80CA07888404503D91F
:1072B000288808B1002CC2D044BB4846FEF73ADE0D
:1072C0002988401A401E86B20025062000EB0923BB
:1072D0000F220421484600962BF4A6D18246AAF834
:1072E0000260174850F82900066E0AE00AEB050014
:1072F000B288001DB11DFBF74AFAB088284485B258
:107300003668002EF2D15046FEF71CDE4CB1062C3A
:1073100007D007EB48003978828823464846FEF7B5
:1073200013DE084B14A2402100200094FEF7F0DD8C
:10733000062C03D0002004B0BDE8F09F0120FAE73E
:10734000C40E800030C10101523A333A5B25735DAF
:1073500020656E7465722C206E625F68616E646C6D
:10736000653D307825782C2072655F6C656E3D3008
:107370007825780A00000000523A333A5B25735DA5
:1073800020657869742C207374617475733D30784E
:1073900025780A003EB505461A20114B1B78994204
:1073A0001DD801EB81030F4901EBC304627104EBAB
:1073B00045014989012912D100208DF80000221DC4
:1073C000218902200DF022FFADF802000120ADF866
:1073D0000400641D02946946284600F02BFD3EBD62
:1073E0004C4B800030BB81002DE9F84F07468946A1
:1073F00016464FF0000A002430460DF03CFF0028EE
:107400002BD01E4DDFF878800FE004EB840005EBF5
:10741000C000031D0189052248460DF012FF824677
:10742000BAF1000F05D1641CE4B298F80000844260
:10743000EBD3BAF1030F12D000208DF800009DF8B5
:107440000000002809D004EB840055F83010002912
:1074500003D08DF8017068468847BDE8F88F04EBCB
:10746000840005EBC00000EB47004681012E03D0ED
:1074700002208DF80000E2E70120FAE730BB81002E
:107480004C4B800030B585B00E4DA878002813D144
:1074900000224FF4FA61686800F405F404464CB128
:1074A000142209496846FBF7B7F9ADF8044068466D
:1074B000FDF72AFC0120A8702878401C287005B030
:1074C00030BD0000D04B8000B4B9010110B5084CAC
:1074D0002078401EC0B22070002807D105A001F01E
:1074E00011F86068FFF7CAF90020A07010BD000015
:1074F000D04B80005B4150505D426C6F6F642050F8
:10750000726573737572652054696D65722053746A
:107510006F700D0A000000002DE9F0418EB01BA035
:1075200000680D904FF000082C2101A8FBF7C8F966
:107530000024174E174F23E000200C900CA9019156
:107540000DA9029104EB840106EBC105291D0391ED
:1075500005218DF810108DF82E008DF82F000E48A3
:10756000059001A862F4F6D780465FEA080002D0D1
:107570000EB0BDE8F081019800882881641CE4B257
:1075800038788442D8D34046F2E700000F18000054
:1075900030BB81004C4B8000C0B701012DE9F043A6
:1075A00085B081460E78ADF8006000278DF8047034
:1075B0000024254DDFF894800CE004EB840005EBFB
:1075C000C002131D1189052230460DF03AFE28B97C
:1075D000641CE4B298F800108C42EED3012102281A
:1075E0000ED0032815D004281FD0ADF802708DF8F6
:1075F00004106946484600F039FC05B0BDE8F08348
:10760000ADF8021004EB840005EBC000401D0290B1
:10761000EFE70220ADF8020004EB840005EBC000A8
:1076200000EB49000A300290E3E70720ADF80200C2
:1076300004EB840005EBC0011E3103A80DF025FE0C
:1076400003A80290D5E7000030BB81004C4B8000BE
:10765000F0B4002804D0012904D90120F0BC7047FF
:107660000220FBE700220A4D09E000EBC20402EB16
:10767000820305EBC30350CC50C3521CD2B28A42E2
:10768000F3D304480170F0BC034866F46D97000022
:1076900030BB81004C4B8000E8B701012DE9FC476D
:1076A00007460E46B6F8008000200024ADF80080A2
:1076B00000218DF80210214DDFF884900CE004EBDE
:1076C000840005EBC000031D0189052240460DF032
:1076D000B8FD28B9641CE4B299F800108C42EED3CE
:1076E000032818D001208DF802009DF8020001281F
:1076F0000BD09DF8040040B104EB840055F8301025
:1077000019B18DF8057001A888476946384600F020
:10771000BCFBBDE8FC87B01D0BF030F804EB840126
:1077200005EBC10101EB47014881012803D002208C
:107730008DF80400D9E70120FAE7000030BB810092
:107740004C4B8000F0B585B01149081F0FF0FBFCD1
:107750000F4F0C3FF87000240E4E305D90B1FA7858
:1077600000212046FFF716FE05461A2D0AD04DB11E
:10777000142209496846FBF74FF8ADF804506846F3
:10778000FDF7C2FA641CE4B20A2CE6D305B0F0BDE2
:10779000DC4B800010BC810078B9010170B5044653
:1077A0000D4D20780D4E01280BD0022808D10CA0D9
:1077B00000F0A8FE6878401E687061780020705460
:1077C00070BD12A000F09EFE6878401C6870617861
:1077D0000120705470BD0000D04B800010BC8100AF
:1077E0005B4150505D42617474657279204C6576DE
:1077F000656C204E6F74696669636174696F6E2091
:1078000044697361626C65640D0A00005B4150500D
:107810005D42617474657279204C6576656C204EAA
:107820006F74696669636174696F6E20456E616229
:107830006C65640D0A0000000CF092BA2DE9F0416D
:1078400005468846284668F47BD4C0B224490978A6
:1078500088420DD200EB4000213040F40040424607
:10786000AC210DF085F90446200032D0012430E02F
:1078700068F4AAD4C7B207EB470606F1200040F42B
:1078800000402A4607210DF073F910B10120BDE830
:10789000F081384674F4E8D506F1210040F4004048
:1078A0004246AC210DF064F90446200001D00120CD
:1078B000EDE7223646F400406FF4A8D60949C7EB3D
:1078C000C7000968084429680160A9888180A979EE
:1078D00081711CB941462846FCF7D6FF2046D6E701
:1078E000382380003C23800010B5FFF7E1DD0EF067
:1078F00095FF0DF045FE11F057FC00F0B5FBFFF7CA
:10790000EBDD0EF0F5FF0DF075F800F025FB08F04B
:1079100073F8BDE8104000F016BB10B50BF0A6FBE5
:107920000CF0E4FA0BF0B2FB0BF0F2FF0BF008FCEA
:107930000AF010FE0AF042FD07F054FE08F030F99C
:107940000EF084FF0FF020F808F006F90FF07AF837
:10795000BDE8104011F0C8B82DE9FC4104460025EF
:10796000EFF311863348017833480068C0F30220F2
:10797000401C012282408818C0B280F3118868F44C
:10798000B5D40746002000900190B4B106226946A4
:107990002046FAF7B1FE48B1A079012806D80ED1E9
:1079A00061794FF00302B2EB911F08D023A210219E
:1079B0000020FEF7ADDA1D2532E0022530E0DFF8C9
:1079C000948010B1012822D02AE02246062101200D
:1079D00000F092FA98F81C0120F0010088F81C01D0
:1079E000B8F8020040F00200A8F8020006234B227B
:1079F000072140F6B35063F49DD730B12168016090
:107A0000A188818063F4DCD70AE0102508E02046D5
:107A100060F4BAD698F81C0140F0010088F81C0107
:107A2000384668F42DD4F0B280F311882846BDE8BA
:107A3000FC81000002E400E00CED00E0523A313A33
:107A40006164647220697320696E76616C69640A8E
:107A5000000000007C278000F0B5E5B00646EFF39B
:107A600011851B4801781B480068C0F30220401CA8
:107A7000012282408818C0B280F3118868F436D49D
:107A8000074656B169F468D348B130465DF4B0D5C5
:107A900069F4DAD284B224B106E002240FE00F24A4
:107AA0000DE0304606F014FE4FF4CA716846FAF74E
:107AB00007FF68465DF4B6D6684660F4F7D53846E9
