:020000040100F9
:10000000009B0100616EA3000020000100200001A0
:080010000B0000004403000096
:020000040100F9
:1020000000008400A1210001AD21000125478000CE
:1020100033478000354780003747800000000000CC
:10202000000000000000000000000000FD468000ED
:10203000B7210001000000003D210001E92A000154
:10204000BB21000139380600DD3706007D478000DE
:10205000214A8000194A8000EB478000F147800048
:10206000BB210001BB210001BB210001BB210001FC
:102070009D488000A5488000A1498000A9498000B2
:10208000BB210001BB210001F7478000BB210001FB
:10209000BB210001BB210001BB210001BB210001CC
:1020A000BB210001D137060039478000BB21000168
:1020B000BB210001354980002D498000BB21000172
:1020C000BB210001BB210001DFF810D000F046FC6D
:1020D00000480047D7290001AFF3008000008400CA
:1020E0002C4B19680868B0E8F04F80F30988BFF3FB
:1020F0006F8F4FF0000080F31188704700000000E0
:1021000008480068006880F308884FF0000080F3FA
:10211000148862B661B6BFF34F8FBFF36F8F00DFD5
:1021200000BF00BF08ED00E0DFF80C00016841F4DB
:1021300070010160704700BF88ED00E0EFF3098097
:10214000BFF36F8F134B1A681EF0100F08BF20EDFE
:10215000108A20E9F04F106009B44FF0300080F38E
:102160001188BFF34F8FBFF36F8F12F0B1FB4FF0A9
:10217000000080F3118809BC19680868B0E8F04FC6
:102180001EF0100F08BFB0EC108A80F30988BFF36F
:102190006F8F70479C428000EFF30580704700000E
:1021A000064880470648804706480047FEE7FEE7A6
:1021B000FEE7FEE7FEE7FEE7FEE7FEE7692901012D
:1021C000B52B000101FA00012DE9F05F0546002062
:1021D00092469B4688460646814640241BE0284698
:1021E00041464746224600F0DEFA53465A46C01A98
:1021F000914110D311461846224600F0C5FA2D1A17
:1022000067EB01084F4622460120002100F0BCFA8E
:1022100017EB00094E41201EA4F10104DFDC484603
:1022200031462A464346BDE8F09F00000649074A6A
:102230000868504343F23902104408604008704770
:102240000149086070470000E84680006D4EC641B5
:1022500040EA01039B0703D009E008C9121F08C028
:10226000042AFAD203E011F8013B00F8013B521EA8
:10227000F9D27047D2B201E000F8012B491EFBD21F
:1022800070470022F6E710B513460A460446194681
:10229000FFF7F0FF204610BD421C10F8011B00297B
:1022A000FBD1801A704730B504460020034600E099
:1022B0005B1C934203D2E05CCD5C401BF8D030BD88
:1022C00010B5044600E0401C0378002BFBD100E071
:1022D000401C521E04D311F8013B0370002BF7D1B0
:1022E00000210170204610BD034611F8012B00F8B3
:1022F000012B002AF9D1184670472DE9FE4F804680
:1023000081EA0300C00F0C46009021F0004123F049
:102310000045B8EB0200A94105D24046214690464F
:102320001C460B46024623F00040104347D0270DC1
:10233000C7F30A00C3F30A510290401A01904028E3
:102340006BDAC3F3130040F4801B0098924620B16F
:102350000023D2EB030A63EB0B0B01985946C0F143
:102360004002504600F010FA06460D4650465946C7
:10237000019A00F028FA10EB08006141002487EA76
:10238000115284EAE7731A4340D0009A62B3019A6B
:10239000012A4FEA075215DC001B61EB02014FF0E6
:1023A000004202EA0752CDE90042001C41F58011CB
:1023B00032462B4600F028FA03B0BDE8F08F4046C5
:1023C0002146F9E7001B61EB0201001C41F5801377
:1023D00000185B412018A2F5001747EB030140EA03
:1023E000D570B6196D4111E06D084FEA360645EA21
:1023F000C0754FEA0752001B61EB0201001C41F55A
:10240000801149084FEA30000019514132462B46ED
:1024100003B0BDE8F04F00F0E8B900980122400099
:102420000023D0EB020263EBE073009821464FEAF1
:10243000E074B8EB000061EB0401E9E783F00043CE
:102440005BE781F0004158E72DE9FE4F81EA030484
:1024500004F0004421F0004100944FF0000B23F001
:10246000004350EA01045ED052EA03045BD0C3F398
:102470000A54C1F30A552C44A4F2F3340194A0FB8E
:102480000254C1F3130141F48011C3F3130343F465
:10249000801301FB024400FB034E840A970A44EABE
:1024A000815447EA8357A4FB076802958D0A05FB10
:1024B00007854FEA932C04FB0C542705029D4FEA35
:1024C000065847EA1637B5EB08056EEB070C870E82
:1024D000920E47EA811742EA8312A7FB0201B6EB8C
:1024E0000B0164EB00042B0D43EA0C335E1844EB44
:1024F0001C50DA465146E7FB0201C5F313044FEACC
:102500000B3343EA14534FEA0432019C43EA0603B7
:10251000A4F10C040294009CCDE900B400F074F91D
:1025200003B0BDE8F08F00200146F9E72DE9F04D3A
:1025300081EA030404F0004B21F0004514464FF0FB
:10254000000A23F0004150EA050220D054EA0102BB
:102550001DD0C5F30A570246C5F31303C1F3130098
:10256000C1F30A5640F4801543F48013A7EB060824
:10257000101BD64608F2FD3873EB050002D308F1B4
:10258000010801E092185B41B8F1000F03DA002066
:102590000146BDE8F08D00204FF4801106468446C8
:1025A0000EE0171B73EB050705D3121B63EB050346
:1025B00006434CEA010C49084FEA300092185B418F
:1025C00050EA0107EDD152EA030012D082EA04007A
:1025D00083EA0501084305D0101BAB4106D2012256
:1025E000002306E000224FF0004302E06FF00102FA
:1025F00053101AEB06004CEB085110EB0A0041EBAC
:102600000B01BDE8F04D00F0F0B870B521F00043CB
:1026100003430CD0C1F30A550024D5EB040564EB49
:102620000403D617AD1AB34102DB0020014670BD8A
:10263000201841EB025170BD0EB5C10F80EAE07069
:102640000844CA07002140F233438DE80E000A46D1
:102650000B4600F0D9F803B000BD0EB540F233418F
:1026600002910021CDE900110A460B4600F0CCF89A
:1026700003B000BD0EB540F2334202920022CDE914
:102680000022134600F0C0F803B000BD70B5C1F3DE
:102690000A5201F000450024C1F3130140F2FF3358
:1026A00041F480119A4201DA002070BD40F23343B8
:1026B0009A42A2F2334203DC524200F074F800E086
:1026C00090402C43F1D0404270BDC1F30A5210B586
:1026D000C1F3130140F2FF3341F480119A4201DA51
:1026E000002010BD40F233439A42A2F2334203DC91
:1026F000524200F058F810BD904010BD30B5041E95
:1027000071F1000404DB4FF00044404264EB01012E
:10271000141E73F1000405DB1C464FF000435242C7
:1027200063EB04038B4208BF824230BD30B5041E08
:1027300071F1000404DB4FF00044404264EB0101FE
:10274000141E73F1000405DB1C464FF00043524297
:1027500063EB0403994208BF904230BD30B50B468D
:10276000014600202022012409E021FA02F59D42C1
:1027700005D303FA02F5491B04FA02F52844151E95
:10278000A2F10102F1DC30BD202A04DB203A00FA7C
:1027900002F1002070479140C2F1200320FA03F3B8
:1027A000194390407047202A04DB203A21FA02F0B6
:1027B0000021704721FA02F3D040C2F1200291407B
:1027C000084319467047202A06DBCB17203A41FA06
:1027D00002F043EAE07306E041FA02F3D040C2F1AE
:1027E0002002914008431946704710B5141E73F13A
:1027F000000408DA401C41F1000192185B411A43C1
:1028000001D120F0010010BD2DE9F04D92469B460C
:1028100011B1B1FA81F202E0B0FA80F220329046B2
:10282000FFF7B2FF04460F4640EA0A0041EA0B01F7
:1028300053465A46084313D0114653EA010019D0B3
:10284000C8F140025046FFF7AEFF05460E4650461F
:1028500059464246FFF798FF084305D0012004E09F
:1028600020463946BDE8F08D0020054346EAE07673
:102870002C4337430A986305E40AA0EB08000022C2
:10288000FD0A44EA47540A3002D500200146E9E730
:10289000010510196941DDE9084500196941BDE8E4
:1028A000F04DA2E72DE9F041054621F000400C462D
:1028B000284309D0C4F30A5040F23341884205DD71
:1028C00028462146BDE8F0812846FBE740F2FE316C
:1028D000884210DC0CDB4FEA043040EA155050EA25
:1028E000053105D0104804F0004101430020E9E71C
:1028F00000200146E6E7A0F233404642C6F140021E
:1029000028462146FFF740FF0746884628462146CD
:102910003246FFF748FF43463A46FFF766FF324626
:10292000BDE8F041FFF730BF0000F03FC1F30A52AD
:10293000C1F3130140F2FF3341F480119A4202DAED
:1029400000200146704740F233439A42A2F23342DC
:1029500002DC5242FFF727BFFFF716BF064C074DB8
:1029600006E0E06840F0010394E80700984710345F
:10297000AC42F6D3FFF7ACFBB46E0101F46E01017B
:1029800070B58C1810F8015B15F0070301D110F831
:10299000013B2A1106D110F8012B03E010F8016B5E
:1029A00001F8016B5B1EF9D12B0705D40023521EE1
:1029B0000DD401F8013BFAE710F8013BCB1A921C49
:1029C00003E013F8015B01F8015B521EF9D5A14247
:1029D000D8D3002070BD10B510F060FDBDE81040E8
:1029E0000CF0EEBF2DE9F0470546DDF820900E46CD
:1029F00017469846124C2078002801D100F0ECF8D8
:102A00002069A84219D9EFF31180202181F31188A0
:102A10000B4A05EB450102EBC10435B1A661E76144
:102A2000C4F820800021A1626162C4F82C90C0B279
:102A300080F311880020BDE8F0874FF0FF30FAE7FF
:102A4000449E80002DE9F04105460E4617460A488F
:102A50000078002801D100F0BFF8EFF311842023A3
:102A600083F311883A463146284600F007F8E1B270
:102A700081F31188BDE8F081449E800070B50E4658
:102A80001446184900EB400001EBC0051835686991
:102A9000002806D0012811D002281BD0002420468F
:102AA00070BD284600F0CCF8A04201D20024F6E721
:102AB00022463146284600F0FDF8F0E7284600F0AF
:102AC000BFF8A04200D2044622463146284600F014
:102AD000F1F8E4E722463146284600F0BDF8044606
:102AE000DDE70000449E800010B5302080F311889F
:102AF000BFF34F8FBFF36F8F07480078012806D1CF
:102B000012F06AFF18B105494FF0805008600020AC
:102B100080F3118810BD00007442800004ED00E0D5
:102B20000249096801F007010170704704C500A05F
:102B300030B4062821D212490A6802F00702824204
:102B400012D00A680F4B1A400F4C22430A6000BF94
:102B500000BF00BF00BF0A681A400C4B024333F8A5
:102B6000203042EA83420A600849183951F82000AF
:102B70000749086030BC76F43D9230BC70470000D5
:102B800004C500A0F8FFE3FF05000800145D010183
:102B90002040800004480068044900F0070051F814
:102BA000200003490860704704C500A0FC5C0101D7
:102BB000204080000648016841F47001016005482A
:102BC000006800F48070002801D10FF095BC7047B8
:102BD00088ED00E078C500A010B5124C02202061FD
:102BE000606111A0A06104F17800E0614FF48060A1
:102BF00020620021A1626162E1620BA0A06404F581
:102C00008F60E06410202065A1656165E16509A120
:102C1000E01DFFF769FB08A12046FFF765FB2020B8
:102C2000A07110BD449E80005465726D696E616C28
:102C300000000000525454005345474745520000DD
:102C40000169C268914204D88068801A0844401E15
:102C50007047881A401E70472DE9F047054689469F
:102C600017464FF00008EC682869A04202D9061BFD
:102C7000761E03E0A968201A0E1A761EA868001BAB
:102C8000B04200D80646BE4200D33E46686832468F
:102C900020444946FFF7DCFAB044B144BF1B34443A
:102CA000A868A04200D10024EC60002FDCD140468F
:102CB000BDE8F0872DE9F041044688461646E768EE
:102CC000A068C51BE1686068B542084407D9324670
:102CD0004146FFF7BDFAB819E060BDE8F0812A4629
:102CE0004146FFF7B5FA761B08EB050132466068EE
:102CF000FFF7AEFAE660F0E70FB47CB50C0009AD63
:102D000001D0611E00E00021CDE90001064B6A46BA
:102D10002946089800F018F9002C02D0009A0021EA
:102D200011707CBC5DF814FB4F3600010FB4084BEA
:102D300010B504A902AA039800F006F9044602A9F6
:102D4000002000F08FFC204610BC5DF814FB000052
:102D5000653600017CB50C001D461646014601D0C3
:102D6000601E00E00020CDE90010064B6A462946AF
:102D7000304600F0E9F8002C02D0009A00211170D2
:102D80007CBD00004F360001002804DB00F1E0208C
:102D900090F80004704700F00F0000F1E02090F878
:102DA000140D704702E008C8121F08C1002AFAD1AA
:102DB00070477047002001E001C1121F002AFBD1BB
:102DC000704700002DE9FF5F82B00021DDE904308B
:102DD000020DDDF840B0034318D044F61050A2F2C3
:102DE000FF3242431514119801281FD0A5EB0B00A8
:102DF000401C5FEA000A4FF000064E4FDFF83891A2
:102E0000B046504615D5CAF1000413E011980124CC
:102E10004AA3012801D16FEA0B010298119AC0E977
:102E20000031C0E9024206B0BDE8F09FCBF10000DE
:102E3000DFE704460021404A491842EB0450CDE93F
:102E4000001012E0E00707D032463B4640464946B4
:102E5000FFF7FAFA8046894632463B461046194645
:102E6000FFF7F2FA06460F466410002CEAD1DDE9BE
:102E70000401DDE90023BAF1000F06DAFFF7E4FAF6
:102E800042464B46FFF7E0FA05E0FFF74FFB4246AC
:102E90004B46FFF74BFB04460E460022284BFFF73C
:102EA00045FC03D84FF0FF30014607E00022254BD8
:102EB00020463146FFF721FAFFF738FD102409E0DC
:102EC000002C0ADB0A220023FFF77EF9039B303235
:102ED0001A55641E50EA0102F2D1641C039AC4F12F
:102EE00011031444119A012A03D0012208430DD181
:102EF0000AE0084304D000204FF0110B119072E754
:102F0000A3EB0B056D1E0DE05B4504DD4FF00002E9
:102F100005F1010504E003DA4FF00002A5F1010517
:102F2000002AECD002981199C0E90231C0E90045AD
:102F300079E70000000014400000F03F300000007E
:102F40000000F0430000E03F2DE9FF4F95B09A46A6
:102F5000884606460025EEE1252877D1002427463D
:102F6000F94A0121039400E0044316F8013F203B95
:102F700001FA03F01042F7D130782A2811D06FF00F
:102F80002F033078A0F13002092A16D8039A44F0B2
:102F9000020402EB820203EB42021044761C03900F
:102FA000EFE758F8042B0392002A03DA504244F466
:102FB0000054039044F00204761C30782E2816D179
:102FC00016F8010F44F004042A280DD06FF02F02E8
:102FD0003078A0F13003092B09D807EB870302EB07
:102FE0004303C718761CF3E758F8047B761C307847
:102FF0006C280FD006DC4C2817D068280DD06A2822
:1030000014D104E0742810D07A280FD10DE044F4D4
:1030100000140AE044F4801401E044F4401472788F
:10302000824202D104F58014761C761C3078662822
:103030000BD013DC582877D009DC002875D0452840
:10304000F6D04628F4D047281AD193E118E0632837
:1030500035D0642879D0652812D18BE1702873D0DF
:1030600008DC6728F1D069286FD06E280DD06F2852
:1030700006D1ACE073282CD0752874D0782853D0B2
:103080005246179990476D1C54E1C4F30250022830
:1030900009D003280DD0D8F8001004280DD00D60F9
:1030A00008F1040846E1D8F80010EA17C1E9005217
:1030B000F6E7D8F800100D80F2E70D70F0E718F889
:1030C000041B8DF8001000208DF80100EB46012054
:1030D00003E058F804BB4FF0FF3061074FF00001E8
:1030E00002D40DE009F101018946B9420FDA8145A8
:1030F000F8DB1BF809100029F4D108E009F10101FF
:1031000089468142FADB1BF809100029F6D10398A1
:103110005346A0EB090721463846179A00F080FA7B
:10312000284400EB090507E044E008E10DE01BF846
:10313000010B524617999047B9F10109F7D253464E
:1031400021463846179AF2E039E00A21C4F30252C8
:103150004FF0000B0091022A06D058F8040BC1175B
:10316000032A09D00AE023E008F1070020F0070253
:10317000F2E80201904605E000B2C117042A01D12D
:1031800040B2C117002906DA0A460021404261EB2D
:1031900002012D2202E0220504D52B228DF8042005
:1031A000012203E0E20701D02022F7E7914657E031
:1031B0000A2100E010214FF0000B00910BE01021DC
:1031C0004FF0000B44F004040827009103E00820AE
:1031D0004FF0000B0090C4F30252022A05D058F8B9
:1031E000040B0021032A08D008E008F1070020F0B2
:1031F0000702F2E80201904603E080B2042A00D1FF
:10320000C0B24FF0000922072AD53278702A07D0C1
:10321000DDF800C08CF0100C5CEA0B0C05D00EE061
:1032200040228DF80420012208E050EA010306D074
:1032300030238DF804308DF8052002229146009B42
:1032400083F0080353EA0B030AD150EA010201D1CB
:10325000620705D530228DF804204FF001097F1E4A
:103260003278582A04D039A20C920CAA02920BE0B0
:103270003BA2F9E75B46009AFEF7A6FF0C9B9B5C1E
:10328000029A521E0292137050EA0102F2D1029881
:1032900004A9081A00F1200B600702D524F4803439
:1032A00000E001275F4502DDA7EB0B0000E00020F6
:1032B00000EB0B01009003984944401A0390E0038F
:1032C00006D453462146179A039800F0A9F90544FD
:1032D000002706E001A85246C05D179990476D1C73
:1032E0007F1C4F45F6DBE0030CD553462146179A69
:1032F000039800F095F9054404E0302052461799F0
:1033000090476D1C0099481E00900029F5DC08E0EC
:103310000298029952460078491C029117999047E9
:103320006D1CBBF10001ABF1010BF1DC5BE100F0C6
:1033300065F90544761C307800287FF40DAE19B08D
:103340002846BDE8F08F00000928010030313233F3
:1033500034353637383961626364656600000000D1
:1033600030313233343536373839414243444546BB
:1033700000000000600700D4062708F1070020F0D5
:103380000700F0E80223804603F0004C5FEA0C00DF
:1033900001D097A009E0200501D596A005E0E0073F
:1033A00001D095A001E0AFF24C001390307823F0EB
:1033B000004365280CD006DC452809D046281DD0DE
:1033C00047287FD13BE0662818D067287AD136E0BD
:1033D0000021112F01DB112000E0781CCDE9000154
:1033E00004A90CA8FFF7EEFCDDE90D010C9A4FF0E3
:1033F000000B07F10109109200914EE04FF00040E0
:103400000097CDE9011004A90CA8FFF7DBFCDDE96A
:103410000D020C9B0F994FF0000B914610930092F8
:1034200011B9791C00EB0109B7EB090003D4C0F115
:10343000FF3B07F10109A9EB0700019042E0012FD2
:1034400000DA01270021112F01DD112000E03846AC
:10345000CDE9000104A90CA8FFF7B4FCDDE90D01DA
:103460000C9A00914FF0000BB946109221070FD42F
:10347000009A4A4503DA914601E0A9F10109B9F140
:10348000010F05DD109AA9F10101515C3029F4D03A
:10349000B84202DA10F1040F03DA0121CDE901107C
:1034A00010E0002803DC8344A9EB000102E0411C8A
:1034B000494500DD8946A0EB0B00401C01904FF010
:1034C00000400290200705D40198484502DB4FF0E8
:1034D000FF30019000208DF84B0002980DF14B0752
:1034E000B0F1004F25D002200C902B200D900298B7
:1034F00000280CDA404202902D200D9007E00A21AE
:103500000298FFF72BF93031029007F8011D0C9952
:10351000481E0C900029F2DC02980028EFD1791E99
:103520000D980870307800F0200040F0450007F852
:10353000020D11A8C01BC01D02901398007800B1A5
:10354000012000EB0901019801EBE07102980144B0
:103550000398401A401E0390E00306D453462146C8
:10356000179A039800F05CF805441398007818B196
:103570005246179990476D1CE00323D553462146C8
:10358000179A039800F04CF805441BE0BBF1000FBC
:1035900007DB0098584504DD1098179910F80B00C8
:1035A00001E0179930205246904701980BF1010B2A
:1035B000401E05F10105019004D12E2052461799B5
:1035C00090476D1CB9F10001A9F10109DEDC05E0AD
:1035D00017F8010B5246179990476D1C0299481E27
:1035E00002900029F4DC53462146179A03989EE680
:1035F0002D0000002B000000200000002DE9F0410C
:10360000044600251E461746880404D405E03946C2
:103610002020B0476D1C641EF9D52846BDE8F08116
:103620002DE9F041044600251E469046C80301D509
:10363000302700E02027880404D505E041463846BD
:10364000B0476D1C641EF9D52846BDE8F0814A6874
:10365000002A06D00A68531C0B6010704868401E90
:10366000486070470A68531C0B6010707047000078
:103670002DE9F05F06460F4691464FEA5904A046F1
:103680003D46DFF8E4A1DFF8E4B1EFF3108001215B
:1036900081F31088DBF8A41221F02001CBF8A412EA
:1036A000A0B3012080F31088EFF31080012181F393
:1036B0001088DBF8A01221F02001CBF8A01250B343
:1036C000012080F31088DAF8000020F08040CAF86A
:1036D00000006748CAF800003F20DBF8001160F3E3
:1036E0000501CBF80011DAF8000020F4601040EA80
:1036F000C640CAF80000DAF8000020F4E02040EAF2
:103700000640CAF80000052E09D00EE0FFE70020B1
:1037100080F31088C8E7002080F31088D3E7DAF838
:10372000000040F40040CAF80000062E05D1DAF887
:10373000000040F48040CAF80000DAF8000040F4CD
:103740000050CAF80000DAF8000020F06050CAF813
:103750000000DAF8000020F00F0040F00300CAF883
:103760000000EFF31080012181F310883E493831C9
:103770000A6822F0E04242F080420A6048B101202B
:1037800080F31088DAF8000040F08040CAF80000AA
:1037900005E0002080F31088F4E7DBF80000DBF898
:1037A0000401C0F300200028F7D1EFF310800122BC
:1037B00082F310880A6842F000420A6018B10120C2
:1037C00080F310883EE0002080F310883AE000206B
:1037D0004FF47A7120E088421DD9DAF8000020F019
:1037E0008040CAF80000DAF8000040F00040CAF853
:1037F0000000DAF8000020F00040CAF8000009F0EC
:1038000049FE1C490868401C086044463D460520A6
:1038100078F4F5D139E7401CDBF80421C2F300222B
:10382000002AD8D0DBF8040100F07F01A14200D9C2
:103830002146002003E0DBF8002004C5401C88423C
:10384000F9D3641A002CC2D15FEAC97008D0DBF842
:103850000401C0F300200028F9D0DBF80000288024
:10386000BDE8F05F09F016BE08C500A000E000A0AA
:103870000A070807CC4680002DE9F04107460E46AE
:103880004FF000080024274D0BE004EBC40005EBCB
:103890008000801C07223946FEF705FD40B1641CFC
:1038A000E4B22878A042F0D8B8F1000F18D102E0B5
:1038B0004FF00108F8E728780A21B0FBF1F201FB8C
:1038C00012040A2801D2401C287004EBC40105EB45
:1038D00081003968C0F80210B988C180B9790172D5
:1038E0002B7811A21021002005F42EF33078000768
:1038F0000BD504EBC40005EB800006F14601BDE8E2
:10390000F0410A301C22FEF7A3BC04EBC40005EB17
:10391000800006F12A01BDE8F0410A301C22FEF7C2
:1039200097BC0000307C8300523A313A61646420D5
:103930006C746B206974656D2C206E756D203D2054
:1039400025640A000449896B084004490A78104339
:1039500000220A7070470000002001A04844800047
:103960002DE9F04104460D46154F164E0022134630
:1039700020462946FEF7C2FE0FD83068C0F341202A
:10398000012808D0386C401C3864306820F4C060CE
:1039900040F400703060BDE8F08100220A4B204600
:1039A0002946FEF7C3FEF6D8306810F4C06FF2D097
:1039B000F86B401CF863306820F4C0603060EAE7C0
:1039C000904480000CC500A000002440014877F41A
:1039D00053970000D840800006460F46154672B641
:1039E0003846FEF759FC402801D9402002E038460D
:1039F000FEF752FC80463046FEF74EFC402801D9C7
:103A0000402002E03046FEF747FC04469C21104867
:103A1000FEF737FC424639460D48FEF719FC0C48C4
:103A2000224631465C30FEF713FC09484FF0AA31BC
:103A3000016445644FF0BB3181644FF0CC310165C6
:103A40004FF0DD318165002000F004F8FEE7000052
:103A5000549C800030B5ADF20C4D04464FF48061AB
:103A600003A8FEF70EFC184D202085F83F0085F8CE
:103A70009B003CB12846012C436DC26C09D0022C3E
:103A80000CD00FE0104A11A15C3203A8FFF74EF9E9
:103A900008E011A103A8FFF749F903E016A103A864
:103AA000FFF744F903A90BA2686CCDE9012100904E
:103AB00018A3054A18A1002001F094F901F058F963
:103AC0000DF20C4D30BD0000549C80005B455252FD
:103AD0004F525D20257300005B5741524E494E47BF
:103AE0005D20506172616D303A25642C50617261C5
:103AF0006D313A25640000005B504152414D5D201C
:103B0000506172616D303A25642C506172616D3183
:103B10003A256400000000006170705F6173736596
:103B200072742E630000000006460F4690461D4644
:103B300072B64046FEF7B0FB402801D9402002E0B3
:103B40004046FEF7A9FB04469C210D48FEF799FB71
:103B5000224641460A48FEF77BFB09484FF05531A3
:103B6000016445644FF066318164C6644FF077317B
:103B700001654765C94381650220FFF76BFFFEE7DA
:103B8000549C80002DE9F04106460F4690461D46A4
:103B90004046FEF781FB402801D9402002E0404624
:103BA000FEF77AFB04469C210D48FEF76AFB22468D
:103BB00041460B48FEF74CFB09484FF011310164B8
:103BC000456449008164C6644FF03331016547653F
:103BD0004FF044318165BDE8F0410120FFF73ABF65
:103BE000549C80000EB50821ADF800101021ADF8EE
:103BF00002100021ADF804104FF4FA71ADF8061070
:103C00000221ADF80810694662F45CD70EBD0000D1
:103C100010B586B010F0E6FA0949002062F42ED4FF
:103C20000446002C09D01422064901A8FEF710FB17
:103C3000ADF8084001A800F00FF906B010BD000073
:103C40004C438000FC6001012DE9F041082821D29D
:103C50001B4D00EB400005EB40142078D0B1EFF392
:103C60001086012080F31088201D06F0B3FE002787
:103C70002770FF202071002000EB400105EB41116F
:103C80000978012903D0401CC0B20828F4D30828C1
:103C900003D00BE00820BDE8F0810A4CB4F9020023
:103CA0000DF0BAFA2770032018F4C3D226B1012010
:103CB00080F310880020EEE7002080F31088F9E7F9
:103CC00064908000B8408000082808D200EB4001D2
:103CD000044800EB4110017809B1001D7047002035
:103CE00070470000649080002DE9F0470646894641
:103CF00000244FF0FF3847460121002E6ED0307867
:103D000080B101280ED002280CD003280AD0042844
:103D100008D0052806D0062804D0072802D040463F
:103D2000BDE8F087EFF31083012282F310882D4D58
:103D3000944604EB440205EB421292F800A0BAF15B
:103D4000000F03D092F804A082450DD104EB44008B
:103D500005EB401090F82D00022803D0274682F88A
:103D600000C005E0082403E0641CE4B2082CE0D3A2
:103D700053B1012080F31088082C2FD2DFF868A0FF
:103D80009AF8000020B10BE0002080F31088F3E7E0
:103D90008AF800C0032115480DF0F8F9AAF80200CE
:103DA00004EB440105EB41153078287105F108005A
:103DB0002422311DFEF74CFA0D4868630D48E86374
:103DC00000202864C5F85C90032018F425D2032055
:103DD00018F440D2281D06F02DFE014601B14746D9
:103DE00038469DE764908000B84080002C5D01015A
:103DF000797E0001F97D000110F04ABC10B504463F
:103E0000002808D003220021012011F0CFFB206000
:103E100018B1002010BD042010BD052010BD000009
:103E200008B500210091002810D0694611F0C3FCAC
:103E3000009939B1074A4FF080511160BFF34F8F9D
:103E4000BFF36F8F012803D0042008BD042008BDF4
:103E5000002008BD04ED00E010B5ADF5047D04467A
:103E60004FF4007104A8FEF70CFA207810B1012875
:103E700019D01DE000211748A28830F831309A424D
:103E800007D100EBC10014A1436804A8FEF74EFF60
:103E90000EE02B2902D0491CC9B2EEE714A104A8F8
:103EA000FEF744FF04E01DA104A86268FEF73EFF90
:103EB00004A921A22069CDE901210090D4E90223BF
:103EC0001EA1002000F08EFF00F052FF0DF5047DD2
:103ED00010BD0000E44080004572726F7220636F75
:103EE0006465203078253034583A2025730000006E
:103EF0004572726F7220636F6465203078253034AC
:103F0000583A204E6F20666F756E6420696E666F3A
:103F1000726D6174696F6E2E000000002825732990
:103F2000206973206E6F742065737461626C6973AD
:103F30006865642E00000000257300006170705FEA
:103F40006572726F722E63000EB500290AD006A04A
:103F50007122CDE9002002910C4B0DA217A1022085
:103F600000F040FF0EBD0000416476657274696E1A
:103F7000672073746172746564206661696C65643E
:103F800028305825303258292E0000000C600101DD
:103F90002E2E5C5372635C757365725F63616C6C2B
:103FA0006261636B5C757365725F6761705F6361AB
:103FB0006C6C6261636B2E63000000004E4F5F54B7
:103FC0004147000070B588B006461446A17AE27AEF
:103FD000237B657BCDE90453CDE90621A07BE17B02
:103FE00009A28423CDE90032CDE90210144B15A2B9
:103FF0001FA1022000F0F6FE08B021463046BDE8C1
:104000007040FFF7EFBD0000436F6E6E656374652F
:104010006420776974682074686520706565722013
:10402000253032583A253032583A253032583A2520
:104030003032583A253032583A253032582E000066
:10404000216001012E2E5C5372635C757365725F93
:1040500063616C6C6261636B5C757365725F6761F1
:10406000705F63616C6C6261636B2E6300000000C3
:104070004E4F5F5441470000012162F495950000C6
:104080003EB50546144609A1CDE901149C220092D3
:104090000C4B0DA217A1022000F0A4FE03B0214694
:1040A0002846BDE83040FFF7B3BD000044697363A4
:1040B0006F6E6E65637465642028307825303258E1
:1040C000292E0000346001012E2E5C5372635C7552
:1040D0007365725F63616C6C6261636B5C75736561
:1040E000725F6761705F63616C6C6261636B2E63AA
:1040F000000000004E4F5F5441470000104610F092
:1041000017BA00002DE9FC5F81468846B9F1000F1F
:104110000AD0524E30784044202807D9B8F1000F19
:1041200004D00420BDE8FC9F0520FBE700254FF0EC
:10413000010A4B4F80E00020787009EB05143378BA
:1041400062680FE006EB0011D1F808C0944507D172
:10415000097994F800C0614502D187F801A003E015
:10416000401CC0B28342EDD80092207A8DF8040042
:10417000607A8DF8050007208DF8060020780099F8
:1041800000F0D2FC2078694600F0F4FC0028C9D188
:104190007878B0BB307894E80E1006EB0010001D64
:1041A000B346A0E80E10A07A022825D12078012875
:1041B00022D1207A032806D0042809D005280DD062
:1041C000062815D110E00021606800F420F50FE00A
:1041D00040F20111606800F41AF509E04FF0011196
:1041E000606800F414F503E01E49606800F40FF500
:1041F0004FF0007074F47CD7207818B101280ED0ED
:1042000013E017E0062018F407D0062018F422D097
:10421000072018F401D0072018F41CD005E0122064
:1042200017F4FAD7122018F415D09BF80000401CA0
:104230008BF800006D1CEDB24545FFF47CAF38787B
:1042400050B9012108480CF0A1FF7880002801DA5C
:10425000042067E787F800A0002063E764938000EC
:10426000BC40800001010100385D0101F0B595B04E
:104270000446607F8DF82C000F270C9720780028CB
:104280001FD008200D904FF480100E9000260F963E
:1042900000131090119612961396149600210BA8F5
:1042A000FFF722FD21782F4D01EB810202EB411136
:1042B00005EB8101A1F88400002804DA042015B080
:1042C000F0BD0620DEE7FFF7FFFC0146207800EB9B
:1042D000800202EB401005EB80000163207800EBC8
:1042E000800202EB401005EB8000001DC862A07F39
:1042F0008DF804002078E8B10920029003974FF46C
:1043000000100490C012059006960796089609962C
:104310000A96002101A8FFF7E7FC217801EB810252
:1043200002EB411105EB8101A1F88600002803DAB8
:104330000420C4E70720E0E7FFF7C6FC0146207829
:1043400000EB800202EB401005EB80004163207817
:1043500000EB800202EB401005EB8000001DC862FC
:104360000020ACE7A49980002DE9FC410446294ACD
:104370002068904201D1002503E0274A904200D1F5
:1043800001258DF80010254E21B1012912D00229F6
:1043900020D02EE005EB850000EB451006EB8007F2
:1043A00057F88C0FFFF73CFD7868FFF739FDA06BDD
:1043B00001901EE005EB850000EB451006EB800048
:1043C000D0F88C00FFF72CFD208B618B401AADF8E4
:1043D00004000EE005EB850000EB451006EB8000C5
:1043E000D0F89000FFF71CFD208B618B401AADF8D0
:1043F000040005EB850000EB451006EB8002002170
:1044000082F8891056F82010002901D068468847A4
:10441000BDE8FC8100C300A000C400A0A4998000F6
:104420002DE9FC47054688462E78002D04D0022E43
:1044300004D30820BDE8FC870520FBE706EB8600D7
:10444000DFF8049100EB461709EB8704D4F88C00E1
:1044500028B904F18C00FFF7D1FC0028EAD1D4F888
:10446000900028B904F19000FFF7C8FC0028E1D1C2
:1044700001F0A4F8D5E90501CDE90001281D0FC818
:1044800007F0A2FF0028D5D1287F02280FD1EFF333
:10449000108A012080F310882846FFF7E7FEBAF162
:1044A000000F3CD0012181F310880028C2D1287F61
:1044B000012809D0DFF894A01AF9060017F4ACD649
:1044C0001AF9060017F4C6D6287F04F8680FA87FEB
:1044D000A070687F60706878E070683C04F16C00E0
:1044E0001822291DFDF7B4FE49F8278020350FCD8D
:1044F00004F108050FC51548001D50F8260060603E
:10450000201D06F06DFC002894D1201D06F0D4FC7F
:1045100000288FD10E4D0126287820B10EE0002111
:1045200081F31088C1E72E700848032114300CF085
:104530002DFE6880002801DA04207BE704F8886FEC
:104540000020607076E70000A4998000145E0101ED
:10455000CA408000F8B50E461146069D04461A462C
:104560000020022C11D281B17AB104EB840303EB59
:1045700044140E4B03EB840494F888302BB194F868
:104580006B3023B1012B0ED109E00420F8BD134696
:104590000A46201D3146009506F0A8FD03E0201DC7
:1045A0002B4606F03EFE0028F0D1F8BDA49980000D
:1045B000F8B50E461146069D04461A460020022C08
:1045C00011D281B17AB104EB840303EB44140E4B96
:1045D00003EB840494F888302BB194F86B3023B14A
:1045E000012B0ED109E00420F8BD13460A46201D18
:1045F0003146009506F0C4FD03E0201D2B4606F071
:1046000048FE0028F0D1F8BDA49980002DE9F04FB4
:1046100095B0044628210BA8FDF733FE282101A8F8
:10462000FDF72FFE94F835008DF82C000F270C971E
:104630002078C0B10C200D904FF480100E90002611
:104640000F9600131090A06B4FF010084FF0020966
:104650004FF0200A4FF0040B022806D8CDF8448012
:10466000CDF8489005E00820E5E7CDF844A0CDF866
:1046700048B01396149600210BA8FFF735FB21785C
:10468000334DC1EBC10101EB410105EBC101A1F8C3
:104690009800002803DA042015B0BDE8F08FFFF77A
:1046A00013FB2178C1EBC10101EB410105EBC10115
:1046B00048632178C1EBC10101EB410105EBC10168
:1046C000091DC16294F836008DF80400207880B18D
:1046D0000D20029003974FF400100490C012059033
:1046E0000696A06B022806D8CDF81C80CDF8209045
:1046F00005E00920EDE7CDF81CA0CDF820B0099623
:104700000A96002101A8FFF7EFFA2178C1EBC10159
:1047100001EB410105EBC101A1F89A00002801DA83
:104720000420B9E7FFF7D0FA2178C1EBC10101EB12
:10473000410105EBC10188632178C1EBC10101EBA7
:10474000410105EBC101091DC1620020A4E7000081
:10475000549880002DE9F0410546022D40D2C5EB6A
:10476000C500374F00EB400007EBC00494F89C00F5
:10477000A8B3D4F8A000002618B1FFF73DFBC4F899
:10478000A060D4F8A40018B1FFF736FBC4F8A46009
:1047900094F86800E16E00F0C7F9002821D194F880
:1047A0007400A16F00F0C0F900281AD194F88000BD
:1047B000D4F8841000F0B8F9002812D194F88C00D5
:1047C000D4F8901000F0B0F900280AD11D484057E5
:1047D00017F42FD594F86400022804D00BE0FFE70B
:1047E0000820BDE8F081B4F99800FFF72DFAB4F97C
:1047F0009A00FFF729FA84F89C6084F89D60EFF333
:104800001085012080F3108897F89C0040B997F834
:10481000440128B90C4FB7F902000CF0FDFC3E70C2
:1048200055B1012080F3108800F0C6FE201D06F06F
:1048300077FD0028D5D1D4E7002080F31088F3E776
:1048400054988000F45D0101C640800010B5002836
:104850000BD01D4C2179002907D00078022805D003
:10486000002802D1606B401C606310BD6079401C61
:1048700000F00300E179042902D2E179491CE171D9
:10488000E179042909D3A16B491CA163A179491CD1
:1048900001F00301A1710321E171E179E26B914221
:1048A00001D9E179E1636071084861794FF40062F0
:1048B00000EB4131012000F005F90028D5D0606BF4
:1048C000401C606310BD0000F443800044DD8200A2
:1048D0007CB5294B02689A4201D1002403E0274BA2
:1048E0009A4200D101248DF80010254E21B10129F2
:1048F00012D0022920D02EE0C06B0190C4EBC4007E
:1049000000EB400006EBC00555F8A00FFFF788FA52
:104910006868FFF785FA1EE041698069081AADF8FA
:104920000400C4EBC40000EB400006EBC000D0F86C
:10493000A000FFF775FA0EE0016A406A081AADF8A8
:104940000400C4EBC40000EB400006EBC000D0F84C
:10495000A400FFF765FAC4EBC40000EB400006EBCF
:10496000C002002182F89D1056F83010002901D0B5
:10497000684688477CBD000000F000A000CA00A087
:10498000549880002DE9F0478AB0054689462E7874
:10499000002D05D0022E05D308200AB0BDE8F0870F
:1049A0000520FAE7C6EBC600DFF80C8100EB4007F4
:1049B00008EBC704D4F8A00028B904F1A000FFF761
:1049C0001DFA0028E9D1D4F8A40028B904F1A40004
:1049D000FFF714FA0028E0D100F0F0FD242205F1E1
:1049E00010016846FDF734FC291D28780EC908F02F
:1049F000BDF90028D1D195F8340002280FD1EFF38A
:104A0000108A012080F310882846FFF7FFFDBAF1D5
:104A1000000F3DD0012181F310880028BDD195F809
:104A20003400012809D0DFF894A01AF9060017F421
:104A3000F3D31AF9060017F40DD415F8340F04F85F
:104A4000640FA878A0706878343D6070643C04F10D
:104A500068003022291DFDF7FBFB48F837903835F8
:104A600007CDC4E90312A0601448001D50F82600C9
:104A70006060201D06F054FC00288ED1201D06F039
:104A80006BFC002889D10E4D0126287820B10EE05C
:104A9000002181F31088C0E72E70084803211430EC
:104AA0000CF074FB6880002801DA042075E704F834
:104AB0009C6F0020607070E754988000F45D0101E5
:104AC000C640800070B50346022B14D299B192B152
:104AD000C3EBC30303EB4304124B03EBC40494F88E
:104AE0009C3043B194F86430012B04D094F89D506D
:104AF0001DB1022070BD042070BD012584F89D50B9
:104B000013B1022B07D103E0201D16F48BD602E06F
:104B1000201D16F4F1D518B1002184F89D1070BD48
:104B2000002070BD5498800010B50C46002805D0B8
:104B3000012811D0022813D0062010BD2004000C3B
:104B400003D0A1B2094806F0EFF8200C0CD0210CDC
:104B5000074806F0E9F807E0E0B205F06DFE03E073
:104B600004F01F0006F030FC002010BD000001A082
:104B7000001001A010B58EB00C46002C07D040B13B
:104B800001282BD0022841D006200EB010BD0520F0
:104B9000FBE7207907281FD0304951F820000B90FF
:104BA000A1F12400617950F821000C90A0790D90BA
:104BB00020680104090C05D080B20A900AA928488F
:104BC00006F0F2F82068010C45D0000C0A900AA902
:104BD000244806F0E9F83EE00720D6E720790728C8
:104BE00012D01E49203151F820000790A1F1380061
:104BF000617950F821000890A079099020780690FA
:104C000006A805F067FE26E00720BEE72079C11E52
:104C1000032901D80720B8E7072809D00F494031F8
:104C200051F8200002902079072803D0012002E0EB
:104C30000120F7E700200390084861790C3850F80C
:104C400021000490A0790590207800F01F000190C9
:104C500001A806F013FC002097E70000685D010141
:104C6000000001A0001001A010B502460C46002073
:104C70000021002A08D0012A17D0022A14D1A0B29C
:104C8000BDE8104017F482922004000C04D0A1B2B9
:104C9000084814F41CD70146200C04D0210C064807
:104CA00014F415D70146084610BDA0B2BDE8104067
:104CB00012F4E096000001A0001001A070B50C46AF
:104CC0001546002D03D0012D01D0042070BD28B160
:104CD000012813D0022816D0062070BD2004000C35
:104CE00004D0A1B22A460B4814F404D7200C0ED0ED
:104CF000210C2A46084814F4FDD608E0A0B2294643
:104D000005F048FE03E0A0B2294617F457D2002070
:104D100070BD0000000001A0001001A000B587B028
:104D200003208DF800001D208DF8160001208DF85D
:104D300017008DF818008DF81900684600F020F86B
:104D40000349044800F026F9FEF740FE07B000BD15
:104D5000BBF90001DD440101002806D0002904D080
:104D6000024AD269002A00D010477047F09D8000A7
:104D70000248006A002800D000477047F09D80007C
:104D800070B500250F4C00280AD0017803290FD8F0
:104D90000121A17601461A222046FDF759FA04E0C6
:104DA000A5761A210748FDF76CFAE07E10B106E0FF
:104DB000002070BD02F05AF90348E061256201202D
:104DC00070BD0000F09D800081700001044A104415
:104DD000807D084201D0012070470020704700000C
:104DE000F09D80002DE9FE4FDDF830B0064692467A
:104DF000994600240027019702975A480178B1424A
:104E000002D2807E00287DD10DF13808CDF80080D7
:104E1000EFF311850220FDF7B7FF01465248006805
:104E2000C0F30220401C012282408818C0B280F3E7
:104E3000118801213046FFF7C9FF38B14B484C4972
:104E400050F82620204600F0ADF804461C213046DC
:104E5000FFF7BCFF00285ED046A24549204600F07F
:104E6000A1F8204484B204213046FFF7AFFFF8B127
:104E700052463F49204600F095F8204484B208216C
:104E80003046FFF7A3FF38B13BA23949204600F076
:104E900089F8204484B20BE010213046FFF796FFDA
:104EA00030B136A23249204600F07CF8204484B26A
:104EB00008213046FFF78AFF90B14A462C49204628
:104EC00000F070F8204484B210213046FFF77EFFD6
:104ED00030B12BA22649204600F064F8204484B269
:104EE00010213046FFF772FF70B15B4626A2052104
:104EF00001A8FDF701FF01AA1D49204600F052F864
:104F0000204400E02BE084B220A21949204600F0A2
:104F100049F8204484B21648C4F5807120444346C1
:104F20000D9AFDF717FF00974FF48071002804DBFE
:104F30002044884201DC86B200E00E46B01C884264
:104F400000D9FE2612A20A49304600F02BF8304460
:104F500081B20748FFF700FFE8B280F31188BDE88F
:104F6000FE8F0000F09D80000CED00E03C428000D0
:104F7000F09C800028000000200000003A000000A3
:104F8000204C696E653A0000256C64002920000001
:104F90000D0A0000024AD06111620120D0767047EC
:104FA000F09D800030B50546002000290CD0002A75
:104FB0000AD006E02B18FF2B06D8CC54521C401CFC
:104FC00080B21478002CF5D130BD000010B5074A2E
:104FD00006214CF201000AF063FD0FF0F7F9FFF72C
:104FE0009DFEBDE81040002073F43C965460010122
:104FF0002DE9F04F95B0044694F835008DF82C005B
:105000000F270C972078002817D000200D904FF420
:1050100080100E9000250F9500131090A06B4FF09C
:1050200002084FF010094FF0200A4FF0040BB0F5C2
:10503000E02F04D8119512950DE00220E6E7B0F5B7
:10504000702F04D8CDF84490CDF8488003E0CDF817
:1050500044A0CDF848B01395149500210BA8FEF795
:1050600043FE2178374E01EB011202EB411106EBB2
:105070008101A1F8AC00002803DA042015B0BDE8D6
:10508000F08FFEF721FE0146207800EB001202EBC4
:10509000401006EB80004164207800EB001202EB28
:1050A000401006EB8000001DC86294F836008DF8B1
:1050B0000400207878B10020029003974FF400108C
:1050C0000490C01205900695A06BB0F5E02F04D8AF
:1050D000079508950DE00320EEE7B0F5702F04D892
:1050E000CDF81C90CDF8208003E0CDF81CA0CDF8C1
:1050F00020B009950A95002101A8FEF7F5FD217859
:1051000001EB011202EB411106EB8101A1F8AE00A7
:10511000002801DA0420B1E7FEF7D6FD0146207829
:1051200000EB001202EB401006EB80008164207857
:1051300000EB001202EB401006EB8000001DC8627D
:1051400000209BE7CC9A80002DE9F0410546022D16
:1051500024D205EB05103F4F00EB451007EB800410
:1051600094F8B000D0B1D4F8B800002618B1FEF71A
:1051700043FEC4F8B860D4F8BC0018B1FEF73CFE9A
:10518000C4F8BC60D4F8C00018B1FEF735FEC4F80E
:10519000C06094F88500012803D008E00820BDE82D
:1051A000F08194F87C00D4F88010FFF7BDFC94F8EF
:1051B0009100012805D194F88800D4F88C10FFF7ED
:1051C000B3FC94F89D00012805D194F89400D4F81C
:1051D0009810FFF7A9FC94F8A900012805D194F8CC
:1051E000A000D4F8A410FFF79FFC1B48405717F409
:1051F00020D094F87800022807D1B4F9AC00FEF76B
:1052000023FDB4F9AE00FEF71FFD84F8B06084F80A
:10521000B160EFF31085012080F3108897F8B0009B
:1052200040B997F8740128B90C4FB7F902000BF098
:10523000F3FF3E704DB1012080F3108800F0BCF9FF
:10524000201D06F05DFA0020A9E7002080F31088F9
:10525000F4E70000CC9A8000345E0101CE4080006B
:105260002DE9FC4102243C4B02689A4201D1002402
:1052700003E03A4B9A4200D101248DF80010384ED9
:10528000012731B101291BD002292ED0032941D099
:1052900045E0C06C019004EB041000EB441006EBF9
:1052A000800595F8B40038B9D5F8B800FEF7B8FD18
:1052B000D5F8BC00FEF7B4FD05F8B27F6F702EE0A4
:1052C000016A406A081AADF8040004EB041000EB10
:1052D000441006EB800595F8B40018B9D5F8B8006D
:1052E000FEF79EFD85F8B37019E0C16A006B081ADD
:1052F000ADF8040004EB041000EB441006EB80054D
:1053000095F8B40018B9D5F8BC00FEF789FD85F80A
:10531000B27004E0C16A006B081AADF8040004EB37
:10532000041000EB441506EB8500002180F8B11055
:105330004CB190F88510012905D17C3001224168DB
:105340000078FFF7BBFC56F82510002901D068460D
:105350008847BDE8FC81000000C100A000C000A09B
:10536000CC9A80002DE9F0478AB0054688462E7811
:10537000002D05D0022E05D308200AB0BDE8F08725
:105380000520FAE706EB0610DFF81C9100EB461744
:1053900009EB8704D4F8BC0028B904F1BC00FEF77F
:1053A0002DFD0028E9D1D4F8B80028B904F1B800DF
:1053B000FEF724FD0028E0D1D4F8C00028B904F19C
:1053C000C000FEF71BFD0028D7D100F0F7F824221B
:1053D00005F110016846FCF73BFF291D28780EC92E
:1053E0000DF052FC0028C8D195F8340002280FD1E6
:1053F000EFF3108A012080F310882846FFF7F8FDAC
:10540000BAF1000F3BD0012181F310880028B4D1FC
:1054100095F83400012809D0DFF890A01AF90600A9
:1054200016F4FAD61AF9060016F414D715F8340F44
:1054300004F8780FA878A0706878343D6070783CE4
:1054400004F17C003022291DFCF702FF49F8278077
:1054500004F10800182205F13801FCF7F9FE1348A1
:10546000001D50F826006060201D06F049F9201D3F
:1054700006F062F90E4D0126287820B10EE00021D9
:1054800081F31088C2E72E700848032114300BF016
:105490007DFE6880002801DA04206EE704F8B06F12
:1054A0000020607069E70000CC9A8000345E010142
:1054B000CE4080002DE9F8430546DDF820900E46E9
:1054C00017469846022D14D29EB197B1B8F1000F3D
:1054D0000FD005EB051000EB4511174800EB8104D8
:1054E00094F8B00028B175B194F88500012803D074
:1054F00009E00420BDE8F88394F87C000022D4F889
:105500008010FFF7DBFB201D43463A463146CDF8BD
:1055100000901BF412D306464DB194F88500012883
:1055200005D17C34012220786168FFF7C7FB0EB1FA
:105530003046DFE70020DDE7CC9A80002DE9F0411E
:1055400005460E4617469846022D11D286B17FB108
:1055500005EB051000EB4511164800EB810494F8AB
:10556000B00028B175B194F88500012803D009E096
:105570000420BDE8F08194F87C000022D4F880106B
:10558000FFF79CFB201D43463A4631461BF4C3D12E
:1055900006464DB194F88500012805D17C340122DE
:1055A00020786168FFF78AFB0EB13046E1E7002002
:1055B000DFE70000CC9A80007047000010B50B4C6C
:1055C00047202070607800280ED14FF0E02000695D
:1055D000C00701D105F0E2FE01206070BDE8104077
:1055E000032103480BF0D2BD10BD0000C440800071
:1055F000E85D0101F0B595B0044694F835008DF8EA
:105600002C000F270C970A200D904FF480100E905D
:1056100000260F960013109011961296139614966A
:1056200000210BA8FEF760FB21782D4DC1EB011284
:1056300002EB811105EB8101A1F89800002802DA44
:10564000042015B0F0BDFEF73FFB01462078C0EB0B
:10565000001202EB801005EB800001632078C0EBA4
:10566000001202EB801005EB8000001DC86294F868
:1056700036008DF804000B20029003974FF40010C1
:105680000490C01205900696079608960996A020E9
:105690000A90002101A8FEF727FB2178C1EB011237
:1056A00002EB811105EB8101A1F89A00002801DAD3
:1056B0000420C6E7FEF708FB01462078C0EB001285
:1056C00002EB801005EB800041632078C0EB0012F4
:1056D00002EB801005EB8000001DC8620020B0E7DF
:1056E000DC9580002DE9FC4105460224444A2868E7
:1056F000904201D1002403E0424A904200D10124AB
:105700008DF80010404E0027C9B101292FD0022981
:105710004DD0032961D004290FD1C4EB041000EB54
:10572000841406EB8400D0F83801FEF779FB56F8B4
:105730002410002901D068468847BDE8FC81E86B49
:105740000190C4EB041000EB841506EB850404F50E
:1057500098746068FEF764FBA068FEF761FB277031
:1057600056F825100029E8D068468847E5E7288CD8
:10577000698C401AADF80400204600F0ABF9C4EB88
:10578000041000EB841506EB850494F8300118B979
:10579000D4F83401FEF744FB94F830010028CCD152
:1057A00056F825100029C8D068468847C5E7C4EBDD
:1057B000041000EB841406EB8400D0F83801FEF7E7
:1057C0002FFB288D698D401AADF8040056F824107F
:1057D0000029B2D068468847AFE7C4EB041000EB5D
:1057E000841406EB8405D5F83401FEF719FB85F81F
:1057F000307156F8241000299FD0684688479CE7EE
:1058000000C600A000C700A0DC9580002DE9F84389
:10581000C0EB001101EB8012424901EB8204271D0D
:10582000022878D294F89C00002874D0FFF7C6FEB6
:1058300094F89C0001286ED184F8310194F864201A
:10584000012A4DD00025D4E903010144207D00F058
:105850000100C01D0E186068C16FC1F380010029EE
:10586000FAD0BAB1DFF8C0806D1C201D05F0A9FF89
:10587000102808D0A068D8F80010B1FBF0F07043F1
:10588000B5EBC01FF0D904F1A00630460CF0B0F91A
:1058900085B21EE0A68CE58C201D1BF443D5A01913
:1058A000411BB031201D41F288332A461CF487D0B9
:1058B000E9E73046012269460CF0A4F96068C16F3F
:1058C000C1F340010029FAD09DF8001001606D1E5F
:1058D000ADB2002DEDD130460CF08AF90028D4D1BC
:1058E0006068C16FC1F380010029FAD094F86400A8
:1058F00001280DD0EFF31081012080F31088386863
:10590000426842F08202426039B1012080F310887F
:10591000002084F83101BDE8F883002080F310886E
:10592000F6E70000DC958000204080002DE9F04F74
:1059300089B00546894617462E78002D05D0022EDF
:1059400005D3082009B0BDE8F08F0520FAE795F8E7
:105950003400012800D05FB1C6EB0610DFF818A1B3
:1059600000EB86180AEB8804D4F8340110B107E084
:105970000420E7E704F59A70FEF740FA0028E1D129
:10598000D4F8380128B904F59C70FEF737FA0028DE
:10599000D8D1FFF713FE242205F110016846FCF769
:1059A00057FC291DA86C0EC90EF0BEFC0028C9D1F9
:1059B00095F83400022812D10EB10820C2E7EFF3A7
:1059C000108B012080F310882846FFF713FEBBF1EF
:1059D000000F3DD0012181F310880028B2D195F845
:1059E000340001280BD006CF04F1A0000CF0EAF837
:1059F000224FB85716F410D4B85716F42BD415F814
:105A0000340F04F8640FA878A0706878343D607093
:105A1000643C04F168003022291DFCF719FC4AF8A7
:105A2000289004F10800182205F13801FCF710FC59
:105A30001248001D50F826006060201D05F0A6FEEB
:105A4000201D05F0C7FE0E4D0126287820B10EE07E
:105A5000002181F31088C0E72E700848032114301C
:105A60000BF094FB6880002801DA04206AE784F8D0
:105A70009C60002066E70000DC958000C85D0101A5
:105A8000C040800010B503460020022B13D291B114
:105A90008AB1C3EB031404EB83140D4B03EB8403B3
:105AA00093F89C403CB193F8644034B1012C0BD086
:105AB000022C09D105E0042010BD181D1BF4F4D6FA
:105AC00002E0181D1BF472D60028F5D110BD0000AD
:105AD000DC9580002DE9F0410546C5EB051000EB93
:105AE0008511204800EB810404F1A00630460CF03B
:105AF0007FF882B21746A2B194F83101012810D084
:105B0000C5EB0510174900EB851001EB8005B0359A
:105B1000802A0BD32946304680220CF073F8802768
:105B200008E0002084F83001BDE8F08129463046C5
:105B30000CF068F894F8640010B102280FD107E067
:105B40002946201D3A461BF4BBD70028ECD106E0BD
:105B50002946201D3A461BF46DD70028E4D10020C9
:105B6000E2E70000DC95800070B50546022D13D2F7
:105B700091B18AB1C5EB051000EB8513134800EB1A
:105B8000830494F89C0038B104F1A0000CF098F85C
:105B900094F8300110B117E0042070BD94F8310181
:105BA00090B994F89C0001280ED16068D0F8980054
:105BB00050B1012084F830012846FFF78BFF18B15F
:105BC000002184F8301170BD002070BDDC9580008C
:105BD0002DE9F04106460C46174604F1080520461B
:105BE0006FF4EAD5C3B21B48E1184268914202DD66
:105BF0000320BDE8F0811849184A00680968126856
:105C0000891A081A001FE91881421CD94FF400456F
:105C100013A22946002003F497F101F0E1FA30B114
:105C200018A22946002003F48FF10820E1E71DA205
:105C30002946002003F488F13A4621463046BDE863
:105C4000F0410FF0D3BB3A4621463046BDE8F04163
:105C50000FF0CCBBD8328000D0238000CC23800052
:105C6000523A353A4E564453206172656120697349
:105C7000206265696E6720636F6D7061637465642F
:105C80002E0D0A00523A353A436F6D7061637469A4
:105C90006E67204E564453206661696C65640D0A38
:105CA00000000000523A353A436F6D7061637469C9
:105CB0006E67204E56445320737563636573736635
:105CC000756C0D0A000000007CB50D4600220092A4
:105CD0000192694603F43AF1044634BB4FF4205173
:105CE000684603F435F1B8B942F60101684603F499
:105CF0002FF188B942F60301684603F429F158B937
:105D000042F60201684603F423F128B94FF4245106
:105D1000684603F41DF108B1062406E00098C5F3B7
:105D20000B01808808430099888020467CBD0000D4
:105D30002DE9F04105460C46FF26217A1E2905D0A3
:105D400022480279521E52B200683AE004F108017A
:105D5000284603F4FFF0064635E010F832308B4257
:105D60002DD11B4E56F82500406F30B300273B461F
:105D700018A24021002003F4E7F0062000EB0520E4
:105D80002AF4F8D2C00605D5002717A2402100202A
:105D900003F4DAF021460C3956F82500743003F488
:105DA000DBF00020A08001266FB115A2402103F492
:105DB000CBF0284603F4D2F005E00127D7E7521EC6
:105DC00052B2002AC9DA3046BDE8F0817C05800075
:105DD000C40E8000523A333A657865637574653D48
:105DE000307825780A000000523A333A636F6E6EBD
:105DF000656374206E6F742063666D0A0000000096
:105E0000523A333A737461727420657865637574BD
:105E1000650A00000348024901600D214160704796
:105E2000F06301017C0580002DE9FF5F81460F468C
:105E30000024A246CDF808A0CDF80CA0584850F890
:105E40002900603003F48CF080463D1F7988288853
:105E5000544BCDE9001054A24021002003F474F00B
:105E60002888E8BB484603F47DF0401E28800026C1
:105E700011E007EB460002AB82880021484603F49C
:105E800073F0C4B2CDF808A0CDF80CA00CB1B046A8
:105E90003BE0761CB6B27888B042EAD835E007EB32
:105EA00048006B46818801AA484603F45FF0C4B2FB
:105EB0003CBBBDF804002988884200D3084686B25E
:105EC000022106F1080029F4FFD78346ABF80460ED
:105ED00032460BF106000099FCF7BAF9304800E0B1
:105EE00013E050F829005946603003F435F0484675
:105EF00003F43EF02888801B288008F101081FFA6F
:105F000088F8CDF808A0CDF80CA07888404503D9D2
:105F1000288808B1002CC2D044BB484603F422F0C4
:105F20002988401A401E86B20025062000EB09236E
:105F30000F220421484600962CF476D38246AAF814
:105F40000260174850F82900066E0AE00AEB0500C7
:105F5000B288001DB11DFCF77BF9B088284485B2DA
:105F60003668002EF2D1504603F404F04CB1062CF2
:105F700007D007EB4800397882882346484602F468
:105F8000FBF7084B14A240210020009402F4DCF738
:105F9000062C03D0002004B0BDE8F09F0120FAE7F2
:105FA000C40E800058640101523A333A5B25735D98
:105FB00020656E7465722C206E625F68616E646C21
:105FC000653D307825782C2072655F6C656E3D30BC
:105FD0007825780A00000000523A333A5B25735D59
:105FE00020657869742C207374617475733D307802
:105FF00025780A000148007970470000F4438000CA
:1060000070B5124D0024EFF31080012181F3108848
:10601000E97959B1A979AA79521C02F00302AA714F
:10602000EA79521EEA710A4A02EB413448B1012072
:1060300080F3108814B1204600F09CF9002CE1D1C7
:1060400070BD002080F31088F4E70000F443800066
:1060500044DD820010B54FF400410548FCF711F90A
:106060000448002141718171C171C163816310BD18
:1060700044DD8200F443800010B5104C20790028E4
:1060800001D0002010BDE07818B906F029FEE078B4
:1060900060B1FFF7DFFF4FF4006209490120FEF70E
:1060A00011FD40B1616B491C616310BD606B401C08
:1060B0006063042010BD0121217110BDF4438000F4
:1060C00044DD820070B5094CE07800280DD0002531
:1060D00025710120FEF73EFBE5704FF400410448B6
:1060E000FCF7CFF86571A571E57170BDF4438000D0
:1060F00044DD820038B51B4C207B002804D00120F1
:106100000EF096F810B117E0002038BDD4E9140164
:10611000401A38BD14496B46F422A1F50A7002F00A
:10612000A5F9C8B90098B8B181B20F480EF0C2F90C
:10613000606D009908446065F42000F0FDFD18B121
:10614000D4E914108842E5D3D4E91410884207D367
:1061500000F00CF8002038BD00F008F8002038BD31
:10616000081A38BD6443800050D482001FB50E4C1D
:10617000207B002817D00D4801F02EFF002020734F
:106180000EF084F80EF08CF9D4E9140108A240F264
:10619000AF43CDE90032CDE902100D4B0DA214A1A1
:1061A0000220FEF71FFE1FBD6443800028D282003C
:1061B000424C452073656E6420646F6E653A2025FD
:1061C0006C752F256C752062797465730000000072
:1061D000086201012E2E5C5372635C757365725CFC
:1061E000617564696F5F73746F726167652E6300B8
:1061F0004E4F5F54414700000EB522A04FF4D571B9
:10620000CDE90010294B2AA234A10220FEF7EAFDB5
:106210000EF06EFF002828D0324833A140F2AD12B4
:106220000078CDE900210290204B21A22BA1022071
:10623000FEF7D8FD0EF0C0FC58B134A040F2AF110B
:10624000CDE90010194B1AA224A10220FEF7CAFDC5
:106250000EBD37A04FF4DA71CDE90010134B14A234
:106260001EA10020FEF7BEFD0EBD39A040F2B71101
:10627000CDE900100D4B0EA218A10020FEF7B2FDD3
:106280000EBD00003D3D3D20417564696F204861B1
:1062900072647761726520496E69742028574D38A1
:1062A00039363229203D3D3D000000005B6201018E
:1062B0002E2E5C5372635C617564696F5F6C6F6FE7
:1062C000706261636B5C617564696F5F6361707458
:1062D0007572655F68772E63000000004E4F5F5453
:1062E00041470000F4438000574D3839363220666C
:1062F0006F756E642061742049324320616464725A
:10630000657373203078253032580000574D383986
:10631000363220696E697469616C697A65642073CC
:1063200075636365737366756C6C7921000000009A
:10633000574D3839363220696E697469616C697AF3
:106340006174696F6E206661696C65642E0000007F
:10635000574D38393632206E6F7420666F756E6413
:10636000206F72204944206D69736D617463682EDB
:10637000000000002DE9F041074600230022002420
:1063800000204FF0010C4FF4806157F830502E146C
:106390000CEB400557F825502D14964200DD32468F
:1063A0007642964200DD3246A54200DD2C466D4223
:1063B000A54200DD2C46401C8842E6D3944201DD14
:1063C000012600E000260020214D9FED221ADFF873
:1063D00088C006EB400257F8222012149A4200DDD2
:1063E000134654429C4200DD234600EE102AB8EECC
:1063F000C00AD5ED120AD5ED131A70EE600A41EE0F
:10640000810A85ED120AC5ED130ABDEEE00A10EE11
:10641000102A2CF81020401C8842DAD32B630E4837
:1064200000F0A2FA01200DF003FF00280ED04FF477
:106430000064204600F080FC002807D02146064872
:106440000EF038F8BDE8F0410DF004BFBDE8F08172
:10645000F443800052B87E3F44D5820010B50EF060
:10646000B3F8034901204871BDE810400EF0BAB8F6
:1064700064438000FEB5234C032600256078012785
:10648000002817D104F1180101F1400002F00DFAC3
:1064900068B11DA040F21931CDE90010224B23A2B2
:1064A00029A10020FEF79EFCE6710320FEBD677067
:1064B000A571E571134901221831254801F0DAFE72
:1064C00070B124A140F22532CDE900210290164B93
:1064D00016A21DA10020FEF785FCE6710320FEBD7B
:1064E000A770E57120A14FF44B720648CDE9002159
:1064F000183002900C4B0DA213A10220FEF772FC83
:106500000020FEBD644380005446204661744673FB
:1065100020647269766572206C696E6B20666169B1
:106520006C65642E00000000906101012E2E5C530A
:1065300072635C757365725C617564696F5F7374B7
:106540006F726167652E63004E4F5F5441470000D4
:10655000B8C981005446206D6F756E7420666169FC
:106560006C65643A202564005446206D6F756E7426
:1065700065642061742025730000000010B50EF0E2
:1065800023F8034844790EF02DF8204610BD000092
:10659000644380000148C078704700006443800075
:1065A00070B5124DE87800281FD04FF48071104864
:1065B00009F0E6FD04463CB161000D4800F078F9B1
:1065C00010B9A86A2044A8620DF0FEFF687908B1EE
:1065D000A86B40B100240EF005F8002C05D0BDE8F2
:1065E000704000F011B90124F5E770BD64438000EC
:1065F00028CE82002DE9F04788B08146109C0F46D6
:1066000090461E46564DA878002811D0E87808B16B
:1066100000F0FAF88CB1207878B12146514800F0AA
:1066200035FD50490622A1F50A7001F047FE1DE034
:106630000620E87108B0BDE8F08701244FF47A7AAB
:10664000224649A104A8FCF771FB04A9454800F0C3
:106650001DFD44490622A1F50A7001F02FFE28B164
:10666000082803D1641CA4B25445E9D3042498B18A
:1066700008280ED03FA14FF45E72CDE900210290B0
:10668000424B43A249A10020FEF7ACFBEC71042071
:10669000D0E70520E871CDE7C5F81490EF81A5F8A3
:1066A000108000272F626E62AF62EF626F7109F097
:1066B000BFFD30460EF07AF9A8720EF095F9064645
:1066C0008EB13C4801F088FC3BA0CDE901064FF4B7
:1066D000637100912D4B2EA234A10020FEF782FBA6
:1066E000EC710420A6E7334801F072FF06468EB134
:1066F000304801F071FC37A0CDE901064FF4657117
:106700000091224B22A229A10020FEF76BFBEC7125
:1067100004208FE72C21274801F0FBFC28B12548F5
:1067200001F05AFCEC71042084E70120E8702F711D
:10673000EF61A871EF632F726F721E48C068286402
:10674000EF712BA140F2A932CDE90021054802905A
:106750000E4B0FA215A10220FEF744FB002069E7B3
:106760006443800010CE8100415544253033752E9E
:106770005741560054462066696C65206F70656EFF
:10678000206661696C65643A20256400A36101019B
:106790002E2E5C5372635C757365725C61756469FF
:1067A0006F5F73746F726167652E63004E4F5F5445
:1067B00041470000E8CB810057415620686561647D
:1067C0006572207772697465206661696C65643AE8
:1067D0002025640057415620686561646572207306
:1067E000796E63206661696C65643A2025640000F7
:1067F0005446207265636F7264696E672066696CC7
:10680000653A2025730000001CB5174CE07800287D
:1068100029D0216A15482C3101F07BFC10B91348AE
:1068200001F01EFF08B90EF0DFF8207218B90F480A
:1068300001F0CEFE20720D48C06820640B4801F0C4
:10684000CBFB60720020E070E061A071206AE06321
:1068500007A040F25A41CDE900100B4B0BA212A148
:106860000220FEF7BFFA1CBD64438000E8CB810024
:106870005446207265636F7264696E672073746F2B
:10688000707065642E000000DB6101012E2E5C53E8
:1068900072635C757365725C617564696F5F737454
:1068A0006F726167652E63004E4F5F544147000071
:1068B00030B587B00D46194CE178002909D058B1A0
:1068C00055B1014606AB2A46154801F01DFF40B9F7
:1068D00004E0062007B030BD0020FBE70699A9427E
:1068E00013D002AB069923C30EA240F2BE30019230
:1068F0000090134B13A21AA10020FEF773FA002098
:10690000E070A0710420E071E4E7E0690844E06110
:10691000206A08442062E0630020DBE764438000D3
:10692000E8CB8100544620777269746520666169FE
:106930006C65643A2025642C2025752F2575000090
:10694000C76101012E2E5C5372635C757365725CC6
:10695000617564696F5F73746F726167652E630040
:106960004E4F5F544147000070B50C461A4DEA780F
:106970006B799A430ED078B171B1696A012689B1F9
:10698000EA6A8A420AD30DF01FFE6E710DF02AFEEC
:10699000002070BD062070BD002070BD891A8C4299
:1069A00000D90C46214609F00FFCE96A0144E9626E
:1069B000A04206D20DF008FE6E710DF013FE042009
:1069C00070BD686A30B1814204D30DF0FDFD6E7177
:1069D0000DF008FE002070BD644380000AF0C2FC88
:1069E000FFF70EFBFFF7DCFD01200DF093FEF5E74E
:1069F00008F030B92DE9F04105468846284669F48B
:106A00009FD3C0B22449097888420DD200EB4000E0
:106A1000213040F400404246AC2109F041F80446E0
:106A2000200032D0012430E069F4CED3C7B207EBA6
:106A3000470606F1200040F400402A46072109F0ED
:106A40002FF810B10120BDE8F081384675F40CD55F
:106A500006F1210040F400404246AC2109F020F844
:106A60000446200001D00120EDE7223646F4004024
:106A700070F4CCD50949C7EBC700096808442968F8
:106A80000160A9888180A97981711CB94146284695
:106A9000FCF7F2FE2046D6E7382380003C23800036
:106AA00010B50BF02FFC0BF0CFFB0AF093FE0CF0AF
:106AB0001FFE00F0F1F90BF039FC0BF09FFC08F021
:106AC00013FF00F061F903F0B1F8BDE8104000F0E9
:106AD00052B910B507F044FA08F082F907F050FAFD
:106AE00007F090FE07F0A6FA06F096FB06F0C8FA4B
:106AF00002F092FE03F06EF90BF02EFC0BF0CAFCD4
:106B000003F044F90BF024FDBDE810400CF0B4B8DC
:106B100070B504460D4620460BF0ACFC002805D1AC
:106B200029462046BDE8704062F4449270BD70B5BD
:106B300004460D4620460BF09DFC002804D1294652
:106B4000204663F4E3D280B270BD70B504460D46B2
:106B500020460BF08FFC002805D129462046BDE8D1
:106B6000704063F4199470BD70B504460D4620461C
:106B70000BF080FC002804D12946204663F4F8D6A7
:106B800080B270BD10B58CB008A80CF0DFFBBDF86A
:106B9000221009989DF82120CDE904109DF820309D
:106BA0002EA0F121CDE90232CDE90010364B37A2FB
:106BB0003CA10220FEF716F90AA85FF4F9D10446B9
:106BC00054B114223049183103A8FBF741FBADF84A
:106BD000104003A8FDF740F99DF828009DF8291002
:106BE000CDE906109DF82A209DF82B30CDE904321E
:106BF0009DF82C109DF82D002CA2F623CDE9003233
:106C0000CDE90201204B21A226A10220FEF7EAF8DD
:106C100031A0FD21CDE900101B4B1CA221A10220B7
:106C2000FEF7E0F80DF0DEFA0DF04EFB0BF082FE01
:106C300002F02AFD304900205FF420D40446002CE5
:106C40000AD0142210492C3103A8FBF701FBADF840
:106C5000104003A8FDF700F90CB010BD476F6F643A
:106C60006978204752353531782053444B205625DA
:106C7000642E25642E253032642028636F6D6D6983
:106C80007420256429000000106101012E2E5C5340
:106C900072635C757365725C757365725F61707049
:106CA0002E6300004E4F5F54414700004C6F6361FC
:106CB0006C20426F61726420253032583A253032A0
:106CC000583A253032583A253032583A2530325821
:106CD0003A253032582E0000476F6F64697820558E
:106CE000415254206578616D706C652073746172D7
:106CF0007465642E000000004C43800010B540F421
:106D0000404070F483D410BD10B540F4404008F00A
:106D1000C7FE10BD04490160044941600449816017
:106D20000449C1607047000041C2060015C2060058
:106D3000096D0001FD6C000110B5044605480AF01C
:106D400057FF81B2C1F5A050A04201DD012010BD66
:106D5000002010BD98C9810010B508F0C3F808F0F4
:106D600007FD08F0D5FC08F019FE02F0FDFEBDE8B5
:106D7000104002F0A9BF10B5FFF7ABFEFFF7ECFF24
:106D8000FFF736FE10BD00000449034808600549BE
:106D900003480860704700008D9200010C228000BB
:106DA0003D940001182280003EB500241D0A0A7897
:106DB000122A02D0132A04D006E000208DF8000029
:106DC00002E001208DF800008888ADF804004888B2
:106DD000ADF80200891D0291002069F451D20B48E0
:106DE000016829B18A691AB169462846904708E0C6
:106DF0009DF80000012804D1BDF804102846FFF7D3
:106E000087FE69F473D220463EBD0000B4228000A4
:106E10007CB50E46150A0020009001906946284670
:106E200073F4ACD29DF8061068466DF4B5D60446EE
:106E3000CCB163F4ABD0C0B163F4A8D0C01C81B2B4
:106E40003288002320466DF489D4694628460BF029
:106E5000BBFB40B106A24021002002F475F02146A0
:106E600068465EF4F1D500207CBD0020E7E7000015
:106E7000523A333A7361766520636363640A0000B3
:106E80007CB5DDE90654CDE9005466F4ABD6BDE827
:106E90007C400AF0DDB900000249014808607047F3
:106EA000816E00014823800010B588B0044667F465
:106EB00027D10020079007A854F4CED70798FFF7F2
:106EC00029FF2068019060680290A0680390E06844
:106ED0000490208AADF81400608AADF81600A08AEC
:106EE000ADF81800E08AADF81A0001A854F4DED716
:106EF00054F4BED70348016801614168416108B09C
:106F000010BD0000300100B02DE9FC4705460C46DD
:106F1000FFF7C6FD69F4EAD107463048006800B1C2
:106F200080470120FBF78CF9DFF8B490DFF8B480DC
:106F3000E16999F8000098F800200244B1FBF2F1F1
:106F4000CEB216FB00F1A06965F430D2286863F474
:106F5000BFD568685FF4CCD4286967F46BD1A868A2
:106F600061F464D7E86862F409D01F484CF492D306
:106F70001E484CF495D31E484CF498D31D4854F445
:106F8000C1D71D484CF43CD31C484CF43FD31C489B
:106F90004CF442D31B4865F4DDD14FF0806072F4AD
:106FA000A7D02046FFF780FFD4E90A01CDE9000110
:106FB00099F80010A06916FB010098F8001016FB64
:106FC00001F1D4E90823104C2468A047384669F43D
:106FD00057D1BDE8FC4765F4A192000080268000EF
:106FE00029D507002AD50700119F0700B9C306005D
:106FF00065C40600EDAF070025ED060045ED06006F
:1070000065ED0600799B07004823800010B50A460D
:1070100001460A480AF054FE0948418807480AF028
:10702000DDFD002809D0002105200DF007F9002121
:10703000BDE81040084603F0C5BA10BDA8C98100DC
:1070400050438000034900EB800001EB8000808802
:1070500070470000D4448000034A00EB800002EB3C
:107060008000818070470000D444800008B5002370
:10707000022000901A4619461846FBF7B3FC08BDDB
:107080000A4601460020FBF7DDBC000070B504464F
:107090000D4607492046FBF727F92046FBF7FCF889
:1070A000C0F1170229462046BDE87040FBF708B939
:1070B0007C43800010B504460020E070401EE06272
:1070C000204608F0D3FC08B1042010BD04F22E20A5
:1070D00006F0C6F8A0F52A41553901D0032010BDAD
:1070E00094F83000E92803D0EB2801D0E8280DD12E
:1070F000032209A104F1660008F092FC40B10522C8
:1071000006A104F1820008F08BFC18B1022010BD2A
:10711000002010BD002010BD4641540046415433AC
:107120003200000000E0401C02780AB18A42FAD125
:107130000078704770B504460D46194E0022194B71
:1071400020462946FBF7DAFA06D2306820F4704070
:1071500040F44050306070BD0022134B2046294659
:10716000FBF7E4FA0DD20022134620462946FBF72E
:10717000C5FA06D2306820F4704040F48040306098
:1071800070BD0022094B20462946FBF7CFFAF7D203
:10719000306820F4704040F4A040306070BD0000C2
:1071A00024C500A0008040C000003EC00000244074
:1071B000891E4269921E8A4201D800207047826A65
:1071C000408900FB0120704710B50BF045F809F02D
:1071D000C7FF0CF0EDF8BDE8104000F06FBC0000F8
:1071E0002DE9F04F87B0DFF8EC9100240025A2468E
:1071F00000260CF09BFA78480168C9F80010406836
:10720000C9F80400754800680830059009F10800C5
:107210000690042203A9059800F01CFCBDF80C1090
:10722000A1F57F40FF3843D0082203A9059800F05C
:1072300011FCBDF80E006EF4BFD200F0FF08BDF8DF
:107240000C00002867D00698A9EB000707F58057C7
:10725000BDF80E1008F1080083460844B84263D810
:1072600005AB082203A906A800F0ECF8BDF80E0053
:10727000002300EB080205A906A809F0F4FF641C2E
:10728000BDF80E005844B842C3D10020CDE90060DB
:1072900053464A46214628460DF0BEFF002826D117
:1072A000824600260024CDF818906D1CEDB2B0E7A0
:1072B0000020CDE9006053464A46214628460DF09D
:1072C000ABFF002813D16D1CECB2444D4FF4805736
:1072D000434E08E0286800EB0430394603F09AFC7E
:1072E00040B1641CE4B2707AA042F3D8002007B029
:1072F000BDE8F08F3B498869497A40F25C42CDE9AC
:1073000000210290384B39A24FF40041002001F4D3
:107310001BF60920EBE7BDF80E00059908F10808F7
:1073200008444044059074E7082F29D305AB082290
:1073300003A906A800F086F8083F2FB100233A46BB
:1073400005A906A809F08FFF611C0020CDE90060A7
:1073500053464A4628460DF05FFF0028C7D18246B3
:10736000BDF80E004044C61B0024CDF818906D1CDB
:10737000EDB20023324605A906A809F074FF48E7DC
:1073800005AB3A4603A906A800F05CF8611C03A807
:10739000CDE9006053464A4628460DF03DFF0028DF
:1073A000A5D1C7F1080ABDF80E0000EB08060024BD
:1073B000CDF818906D1CEDB20123524605A906A820
:1073C00009F051FF0023324605A906A809F04BFF3A
:1073D0001FE70000445D8300ACD50700CC2380008C
:1073E000D8328000641F8000F2620101523A353ABF
:1073F00025732C204C256420666C6173682073749F
:10740000617465203078253032582C206572726F97
:1074100072203078253038580D0A00000221B0FB68
:10742000F1F2FF2A04D8B0FBF1F201FB12022AB1FB
:10743000491CC9B24029F2D300207047B0FBF1F0DB
:10744000C0B2704770B5044615461E462A462068ED
:10745000FAF7FEFE30682844306020682844206037
:1074600070BD000010B50548C17A491CC1720020EA
:1074700072F4BCD3BDE8104000F064B890448000C2
:10748000FEB52A4C206840F040002060206820F4BF
:107490008070206025482C30016821F400310160A3
:1074A000224D24352868224980B2084328602148AB
:1074B00003C8CDE900012068C82100F007001DF8CD
:1074C000000010FB01F2DFF870C0DCF8006046F04D
:1074D0008070CCF800001948076847F0010101608E
:1074E000416843685B1A9342FBD30760CCF80060A5
:1074F000FFF7A0DD02909DF8080028B19DF8080074
:107500000F4948618861C861286820F07F40286081
:10751000206840F040002060206840F480702060C7
:10752000206820F040002060FEBD000004C500A0DF
:1075300000008F11AC770001FCED00E0001000E0CE
:10754000904480002DE9FC412D4D286820F07F40BB
:1075500040F0885028602B4803C8CDE90001284836
:1075600024380068C82100F007001DF8000010FB57
:1075700001F2254F3C6844F080703860234806686B
:1075800046F001010160416843685B1A9342FBD3F6
:1075900006603C600026FFF74DDD0446DFF8708092
:1075A000D8F81800844201D9012700E0002772F4BE
:1075B000C3D140B91FB1D8F81800201A02E0D8F89A
:1075C0001800001BC6B2D8F81800C8F82000B6EBA7
:1075D000900F03D8292C01D8112C02D200F01AF8F0
:1075E00007E000EBC00020440A21B0FBF1F0C8F82E
:1075F0001800286820F07F402860BDE8FC8100006A
:1076000028C500A0AC770001FCED00E0001000E010
:10761000904480002DE9FF5F4FF0000B0824604E7E
:107620001A2070615F4801685F4A89B211430160A6
:1076300003A8FBF775FA0220FBF77AFADFF86491EA
:1076400009F10809D9F8000020F47C3040F420301A
:10765000C9F8000055A003C8CDE90001DFF844A136
:10766000AAF1240ADAF80000C82100F007001DF88A
:10767000000010FB01F1DFF83C81D8F8003043F046
:107680008070C8F800004C4F3D6845F0010038603C
:1076900078687A68121A8A42FBD33D60C8F80030D5
:1076A000FFF7C8DC02909DF808107069814204D988
:1076B0009DF80820811C8A425FD99DF808108142FC
:1076C00004D29DF80820811E8A4256D29DF80810E7
:1076D000814201D9012500E0002515B1641C64B286
:1076E00001E0641E64B2202C0FD3D9F8000020F40E
:1076F0007C3040F42030C9F80000B06B401CB0630F
:10770000002002904FF0010B37E0D9F8000020F480
:107710007C3040EA043040F40030C9F8000023A077
:1077200003C8CDE90001DAF80000642100F0070089
:107730001DF8000010FB01FCD8F8000040F080713B
:10774000C8F80010396841F001023A607A687B6835
:107750009B1A6345FBD33960C8F80000FFF76ADC69
:1077600002902DB19DF8080071698842B5D804E0F7
:107770009DF8080071698842AFD39DF80C00FBF7B3
:10778000D7F90848016821F07F4101609DF80800A1
:10779000B061706A401C706204B05846BDE8F09F4A
:1077A0009044800028C500A000008F1140301018C0
:1077B00010200000FCED00E0001000E02DE9F04199
:1077C00080460F46D8F80050002F08D03946404672
:1077D00002F040FC022809D20120BDE8F081EE68E9
:1077E00016B16869B04207D8012605E0411CF4D003
:1077F00069698142F1D83E462869D0B10024BE4271
:1078000015D1741C6869A04200D802242146404664
:1078100002F020FC0128E0D0411CDED038B1E8683D
:10782000022803D36969814200D90646002414B1B5
:1078300018E00020D1E73446641C6869A04204D8EF
:107840000224022E01D20020C7E72146404602F062
:1078500001FC38B10128C0D0411CBED0B442EBD1EC
:107860000020BAE74FF0FF3632462146284609F09D
:107870007EFB28B927B122463946284609F077FB16
:1078800020B101280FD001242046A6E7EC60D5E9FD
:107890000401891E884201D8401E2861287940F0E1
:1078A00001002871F0E73446EEE700002DE9F05FB3
:1078B0008B46DBF8009000F120070B222021384690
:1078C00008F0CEF800252E464FF008083046761C0A
:1078D00019F80040202C16D92F2C0ED05C2C0CD07F
:1078E0002E2C01D045451BD3B8F10B0F01D02E2C07
:1078F00012D00620BDE8F09F761C19F806002F284C
:10790000FAD05C28F8D009EB0600CBF80000B5B33C
:107910003878E52836D037E008254FF00B08D5E752
:10792000802C03D31C4904F07F000C5C204600F03F
:1079300085F898B13046761C19F800A0504600F042
:1079400083F818B1A8F10100854201D30620D1E7E0
:10795000681C7C55451C07F800A0B7E721460FA01E
:10796000FFF7E0FB08B10620C4E7A4F16100192885
:1079700001D8203CE4B228466D1C3C54A6E7FFE742
:107980000620B7E705203870202C01D8042000E03D
:107990000020F8720020ADE7285F0101222A2B2C7D
:1079A0003A3B3C3D3E3F5B5D7C7F00002DE9F04172
:1079B00080460D4616461F46FDF786DD094C26809B
:1079C00065800120207308EB060020F070406060A5
:1079D0007F1CA7602946044A0AF05AFC0020BDE833
:1079E000F0810000B86E8300C92E010170B5044615
:1079F0000D460F4E00220F4B20462946FAF796FE01
:107A000008D2D6F8200220F4706040F44070C6F826
:107A1000200270BD0022084B20462946FAF76EFE70
:107A2000F7D2D6F8200220F47060C6F8200270BDAC
:107A300000E000A00000494000004440002801D0C0
:107A40000020704700207047002801D000207047B8
:107A5000002070472DE9F04105460E461746094CB7
:107A60002378002B02D000206EF41AD23A46314619
:107A7000284603F00FF9054620786EF411D2284607
:107A8000BDE8F081C92380002DE9F04105460E468E
:107A90001746094C2378002B02D000206EF400D248
:107AA0003A463146284603F005F9054620786EF43B
:107AB000F7D12846BDE8F081C92380000121024AA0
